:0200000480007A
:1000000097D100009381017497020000938242010E
:08001000739052306F004000B4
:04001800EF505066EF
:10001C00130101FB232251002324610023267100CC
:10002C002328C101232AD101232CE101232EF10124
:10003C002320A1022322B1022324C1022326D102B0
:10004C002328E102232AF102232C0103232E11037E
:10005C00232011002324810417A400001304441F3F
:10006C00F322103423205104F32300302322710493
:10007C00EF00C014631A0504F3222034B703008088
:10008C009383F3FFB3F272001303B000638A620030
:10009C0013050100970000009380C00B6F501057A0
:1000AC0083220104938242002320510483224100C5
:1000BC0063860200130530006F00800003250102E7
:1000CC00930501006F509053032304009303130016
:1000DC0023207400631A03009302010003214400DF
:1000EC00130101FF2320510073252034B702008037
:1000FC009382F2FF33755500EF00400B979200008E
:10010C009382828F13153500B382A20003A50200DF
:10011C0003A34200E7000300832304009383F3FF4F
:10012C0023207400639603020321010083258400BD
:10013C00130101FF2320B10013050000EF70C06C08
:10014C00832501001301010163040500EF50105ACF
:10015C00832201047390123483234104F3920330FD
:10016C000324810483224100032381008323C100E3
:10017C00032E0101832E4101032F8101832FC10125
:10018C000325010283254102032681028326C10235
:10019C000327010383274103032881038328C10319
:1001AC00832001001301010573002030130310009C
:1001BC00B312A30073B3423467800000F3222034DF
:1001CC0037030080B3F26200130500006384020061
:0801DC00130515006780000007
:1001E4009308050013830500130706001308050090
:1001F4009387050063920628B79500809385C5C050
:100204006376C30EB70601006378D60C93360610E6
:1002140093C61600939636003355D600B385A500D1
:1002240083C5050013050002B386D500B305D54088
:10023400630CD500B317B300B3D6D8003317B60098
:10024400B3E7F6003398B8009355070133D3B702E8
:100254001316070113560601B3F7B702130503007B
:10026400B30866029396070193570801B3E7D700D2
:1002740063FE1701B307F7001305F3FF63E8E70014
:1002840063F617011305E3FFB387E700B38717414C
:10029400B3D8B7021318080113580801B3F7B7020B
:1002A400B3061603939707013368F8009387080091
:1002B400637CD800330807019387F8FF6366E8007E
:1002C4006374D8009387E8FF131505013365F500BF
:1002D40093050000678000003705000193060001C4
:1002E400E36CA6F2930680016FF01FF393060000FF
:1002F400630C0600B70701006370F60C9336061012
:1003040093C6160093963600B357D600B385F5000E
:1003140083C70500B387D70093060002B385F64070
:100324006396F60AB307C340930510009358070178
:1003340033DE1703131607011356060193560801FB
:10034400B3F7170313050E003303C603939707018E
:10035400B3E7F60063FE6700B307F7001305FEFF7B
:1003640063E8E70063F667001305EEFFB387E70071
:10037400B387674033D317031318080113580801D0
:10038400B3F71703B3066602939707013368F800BF
:1003940093070300637CD800330807019307F3FF36
:1003A4006366E8006374D8009307E3FF131505013F
:1003B4003365F50067800000B7070001930600016C
:1003C400E364F6F4930680016FF01FF43317B6006C
:1003D400B356F300135507013313B300B3D7F80032
:1003E400B3E7670033D3A6021316070113560601B9
:1003F4003398B800B3F6A602B308660293950601D3
:1004040093D60701B3E6B6009305030063FE160115
:10041400B306D7009305F3FF63E8E60063F616011D
:100424009305E3FFB386E600B3861641B3D8A6026C
:100434009397070193D70701B3F6A6023306160371
:1004440093960601B3E7D7009386080063FEC700BE
:10045400B307F7009386F8FF63E8E70063F6C70085
:100464009386E8FFB387E70093950501B387C740F8
:10047400B3E5D5006FF09FEB63E6D518B70701002D
:1004840063F4F60413B70610134717001317370065
:10049400B7970080B3D5E6009387C7C0B387B7008A
:1004A40083C70700B387E70013070002B305F740CB
:1004B4006316F70213051000E3EE66E033B5C800D7
:1004C4001345150067800000B707000113070001FA
:1004D400E3E0F6FC130780016FF09FFB3357F6004F
:1004E400B396B600B366D7003357F3003313B300A3
:1004F400B3D7F800B3E7670013D30601B35E67020E
:1005040013980601135808013316B60033776702AF
:10051400330ED8031315070113D707013367A70058
:1005240013850E00637EC7013387E6001385FEFF43
:100534006368D7006376C7011385EEFF3307D700DE
:100544003307C741335E67029397070193D70701C7
:10055400337767023308C80313170701B3E7E700CB
:1005640013070E0063FE0701B387F6001307FEFFAF
:1005740063E8D70063F607011307EEFFB387D700DC
:1005840013150501370E01003365E5009306FEFFE0
:100594003377D500B3870741B376D60013580501E6
:1005A400135606013303D702B306D8023307C70232
:1005B4003308C8023306D700135703013307C700B3
:1005C4006374D7003308C80193560701B386060144
:1005D40063E6D702E39ED7CEB70701009387F7FF00
:1005E4003377F700131707013373F300B398B80098
:1005F4003307670093050000E3FEE8CC1305F5FF1D
:100604006FF01FCD93050000130500006780000004
:100614001308060093070500138705006396062058
:10062400B79800809388C8C063FCC50CB706010066
:10063400637ED60A9336061093C616009396360048
:100644003353D600B388680083C80800130300023C
:10065400B386D800B308D340630CD3003397150195
:10066400B356D5003318160133E7E600B317150166
:1006740013560801B356C702131508011355050193
:100684003377C702B386A6029315070113D7070170
:100694003367B700637AD7003307E800636607015E
:1006A4006374D700330707013307D740B356C70233
:1006B4003377C702B386A60293970701131707017E
:1006C40093D70701B3E7E70063FAD700B307F8004D
:1006D40063E6070163F4D700B3870701B387D74004
:1006E40033D517019305000067800000370300012C
:1006F40093060001E36666F4930680016FF05FF4ED
:1007040093060000630C060037070100637EE606CB
:100714009336061093C61600939636003357D600C8
:10072400B388E80003C708003307D7009306000224
:10073400B388E6406394E6063387C54093550801C1
:100744003356B702131508011355050193D6070153
:100754003377B7023306A6021317070133E7E6001F
:10076400637AC7003307E800636607016374C70050
:10077400330707013307C740B356B7023377B702CD
:10078400B386A6026FF05FF33707000193060001FA
:10079400E366E6F8930680016FF05FF833181601FC
:1007A400B3D6E500B3171501B39515013357E5002A
:1007B400135508013367B700B3D5A6021313080114
:1007C40013530301B3F6A602B3856502139606011B
:1007D40093560701B3E6C60063FAB600B306D80021
:1007E40063E6060163F4B600B3860601B386B64039
:1007F40033D6A6021317070113570701B3F6A6024F
:1008040033066602939606013367D700637AC700FE
:100814003307E800636607016374C7003307070101
:100824003307C7406FF09FF163E4D51C370801001C
:1008340063FE060513B80610134818001318380091
:10084400B798008033D306019388C8C0B388680082
:1008540083C8080013030002B38808013308134156
:100864006310130563E4B600636CC5003306C5402A
:10087400B386D5403337C500930706003387E64077
:10088400138507009305070067800000B70800017F
:1008940013080001E3E616FB130880016FF05FFA0A
:1008A400B3571601B3960601B3E6D70033D7150143
:1008B40013DE0601335FC7031393060113530301C9
:1008C400B3970501B3551501B3E5F50093D70501B9
:1008D40033160601331505013377C703B30EE3035B
:1008E40013170701B3E7E70013070F0063FED701EF
:1008F400B387F6001307FFFF63E8D70063F6D70159
:100904001307EFFFB387D700B387D741B3DEC7031D
:100914009395050193D50501B3F7C703138E0E0014
:100924003303D30393970701B3E5F50063FE650032
:10093400B385B600138EFEFF63E8D50063F6650049
:10094400138EEEFFB385D50093170701370F01000F
:10095400B3E7C701B38565401303FFFF33F76700AF
:10096400135E060193D7070133736600B30E670263
:10097400338367023307C703B387C703330E6700A4
:1009840013D70E013307C70163746700B387E70108
:1009940013530701B307F300370301001303F3FFF5
:1009A4003377670013170701B3FE6E003307D701CF
:1009B40063E6F500639EF500637CE5003306C740FB
:1009C4003333C700B306D30013070600B387D740F9
:1009D4003307E5403335E500B385F540B385A540DD
:1009E400B39815013357070133E5E800B3D5050182
:1009F4006780000013803000130101FF232481006D
:100A040023261100930700001304050063880700E0
:100A14009305000097000000E7000000B7970080EE
:100A240003A587C08327C50363840700E780070005
:100A340013050400EF50006813803000930505008F
:100A440003A5C1826F00005D13803000930505008B
:100A540003A5C1826F00404513803000130101F9E2
:100A64002326810613040107232EA4F8232CB4F8AB
:100A7400232AC4F88327C4F92326F4FE832784F9A0
:100A84002324F4FE0327C4FE832744F9B307F700A5
:100A9400232EF4FC93073000232CF4FC0327C4FE1C
:100AA400832784FE3347F700832784FDB377F70059
:100AB400B337F00093F7F70F639A0700832744F9DD
:100AC40093B7470093F7F70F6388070613000000F6
:100AD4006F008000130000000327C4FE8327C4FDB9
:100AE400B337F70093F7F70F638407046F008003AD
:100AF400832784FE83C70700A303F4FA8327C4FE75
:100B0400938717002326F4FE832784FE9387170018
:100B14002324F4FE8327C4FE9387F7FF034774FA64
:100B24002380E7000327C4FE8327C4FDE362F7FCA8
:100B34008327C4F96F0080280327C4FE832784FD1C
:100B4400B377F700B337F00093F7F70F6386070422
:100B54006F008003832784FE83C70700A30BF4FC84
:100B64008327C4FE938717002326F4FE832784FE7D
:100B7400938717002324F4FE8327C4FE9387F7FF8B
:100B8400034774FD2380E7000327C4FE832784FD05
:100B9400B377F700E39007FC8327C4FE2322F4FE17
:100BA400832784FE2320F4FE832784FD13C7F7FFE5
:100BB4008327C4FDB377F7002328F4FC832704FDBF
:100BC400938707FE032744FEB337F70093F7F70F25
:100BD400638C071A6F00C016832704FE138747002F
:100BE4002320E4FE83A707002326F4FC832704FEC6
:100BF400138747002320E4FE83A707002324F4FC83
:100C0400832704FE138747002320E4FE83A70700FD
:100C14002322F4FC832704FE138747002320E4FEE9
:100C240083A707002320F4FC832704FE13874700CF
:100C34002320E4FE83A70700232EF4FA832704FE6F
:100C4400138747002320E4FE83A70700232CF4FA2C
:100C5400832704FE138747002320E4FE83A70700AD
:100C6400232AF4FA832704FE138747002320E4FE93
:100C740083A707002328F4FA832704FE1387470079
:100C84002320E4FE83A707002326F4FA832744FEE7
:100C9400138747002322E4FE0327C4FC23A0E700B4
:100CA400832744FE138747002322E4FE032784FCA2
:100CB40023A0E700832744FE138747002322E4FE92
:100CC400032744FC23A0E700832744FE138747003F
:100CD4002322E4FE032704FC23A0E700832744FE29
:100CE400138747002322E4FE0327C4FB23A0E70065
:100CF400832744FE138747002322E4FE032784FB53
:100D040023A0E700832744FE138747002322E4FE41
:100D1400032744FB23A0E700832744FE13874700EF
:100D24002322E4FE032704FB23A0E700832744FED9
:100D3400138747002322E4FE0327C4FA23A0E70015
:100D4400832704FD938707FE032744FEE366F7E841
:100D54006F008003832704FE83A707002324F4FA8B
:100D6400832744FE938747002322F4FE832704FE4F
:100D7400938747002320F4FE832744FE9387C7FF0D
:100D8400032784FA23A0E700032744FE832704FDF6
:100D9400E362F7FC832744FE2326F4FE832704FE44
:100DA4002324F4FE0327C4FE8327C4FDB337F700CE
:100DB40093F7F70FE39007D28327C4F9138507004D
:100DC4000324C10613010107678000001303F00028
:100DD40013070500637EC3029377F7006390070A45
:100DE40063920508937606FF1376F600B386E60051
:100DF4002320B7002322B7002324B7002326B700FB
:100E040013070701E366D7FE63140600678000003A
:100E1400B306C3409396260097020000B38656009B
:100E24006780C6002307B700A306B7002306B700F0
:100E3400A305B7002305B700A304B7002304B70034
:100E4400A303B7002303B700A302B7002302B7002C
:100E5400A301B7002301B700A300B7002300B70024
:100E64006780000093F5F50F93968500B3E5D500F0
:100E740093960501B3E5D5006FF0DFF6939627004E
:100E840097020000B386560093820000E78006FABA
:100E940093800200938707FF3307F7403306F60079
:100EA400E378C3F66FF0DFF3138030006382051438
:100EB40083A7C5FF130101FF23248100232291008E
:100EC40023261100930405001384C5FF63C4070897
:100ED40013850400EF00507E37A700808327C7D511
:100EE400638A0710637AF402832604003306D4006D
:100EF400638EC70A2322F40013850400232E87D4AB
:100F0400032481008320C1008324410013010101D3
:100F14006F00507B6364F4041387070083A74700C2
:100F2400E39A07FE03260700B306C7006306D40648
:100F3400636AD40C2322F40023228700138504005F
:100F4400032481008320C100832441001301010193
:100F54006F0050773304F4006FF09FF78326070087
:100F64003306D700630E8604636EC4088326040028
:100F74003306D400E390C7FC03A6070083A547000B
:100F840013850400B307D6002320F4002322B40001
:100F9400232287006FF0DFFA8327040013850400FF
:100FA400B387C7002320F7006FF09FF903A607005B
:100FB40083A74700B306D6002320D4006FF09FF325
:100FC40003260400B386C6002320D7003306D700C7
:100FD400E396C7F603A6070083A54700138504001C
:100FE400B307D6002320F7002322B7006FF05FF584
:100FF400678000002322040013850400232E87D475
:101004006FF01FF09307C00023A0F40013850400C1
:101014006FF01FF313803000130101FE232A9100A7
:101024009384350093F4C4FF23282101232E110057
:10103400232C810023263101938484009307C0006C
:101044001309050063FEF4049304C00063ECB404C4
:1010540013050900EF005066B7A6008003A7C6D5A4
:10106400630A0704130407006F0040018327440048
:101074001307040063800704138407008327040014
:10108400B3879740E3C407FE1306B0006366F60A0D
:10109400832744006300E40E2322F7006F008005D9
:1010A400E3D604FA9307C0002320F90013050000D7
:1010B4006F00C00637A40080832784D56382070AA3
:1010C4009385040013050900EF00400B9309F0FF1A
:1010D400630C3507130435001374C4FF630A8500D9
:1010E400B305A44013050900EF004009630E35055C
:1010F4002320940013050900EF00D05C1305B4000D
:1011040093074400137585FF3307F5406308F50022
:101114003304E400B387A7402320F4008320C101F3
:101124000324810183244101032901018329C1008E
:1011340013010102678000002320F4003304F4004B
:10114400232094006FF01FFB9307C00013050900D0
:101154002320F900EF001057130500006FF01FFC67
:101164009305000013050900EF004001232CA4D4CB
:101174006FF01FF523AEF6D46FF0DFF71380300065
:10118400130101FF2324810023229100130405008D
:10119400B7A40080138505002326110023A004D6DC
:1011A400EF4090739307F0FF630CF5008320C100B8
:1011B400032481008324410013010101678000009E
:1011C40083A704D6E38407FE8320C1002320F40010
:1011D400032481008324410013010101678000007E
:1011E400232015002322850023249500232625018E
:1011F40023283501232A4501232C5501232E65017B
:101204002320750323228503232495032326A50382
:101214002328B503232A2502130500006780000054
:101224008320050003244500832485000329C50089
:1012340083290501032A4501832A8501032BC5015E
:10124400832B0502032C4502832C8502032DC50242
:10125400832D05030321450313B515003305B5009C
:101264006780000013803000130101F7232C8106EE
:10127400232E1106232A91062320E1082322F108B4
:10128400232401092326110913030600130405006E
:101294006342060A93078020231AF1002324B10035
:1012A400232CB10013860600930601086306030489
:1012B4001303F3FF9304F0FF9305810023286100D7
:1012C400232E6100231B91002322D100EF00D07450
:1012D400635695009307B0082320F4008327810008
:1012E400238007008320C107032481078324410747
:1012F40013010109678000009304F0FF9305810046
:1013040023280100232E0100231B91002322D10056
:10131400EF009070635695009307B0082320F40003
:101324008320C10703248107832441071301010992
:10133400678000009307B0082320F5001305F0FF31
:101344006FF01FFE13803000130101F6232C810679
:10135400232AF108232E1106232A91062326D108D5
:101364002328E108232C0109232E110903A4C18297
:1013740063C4050A93078020231AF1002324A100E3
:10138400232CA1009306C108638805049387F5FF05
:101394009304F0FF93058100130504002328F10052
:1013A400232EF100231B91002322D100EF00D066ED
:1013B400635695009307B0082320F4008327810027
:1013C400238007008320C107032481078324410766
:1013D4001301010A678000009304F0FF9305810064
:1013E4001305040023280100232E0100231B910070
:1013F4002322D100EF005062635695009307B00892
:101404002320F4008320C107032481078324410798
:101414001301010A678000009307B0082320F40039
:101424001305F0FF6FF01FFE1380300083470500A3
:10143400638607069306F6FF630C0606930705000A
:101444001306F0FF6F00C0009386F6FF6382C606A2
:1014540003C7170093871700E31807FE03C70500A7
:10146400630407041386F6FF638406049306F0FFFF
:101474006F00C0001306F6FF630CD60293851500B7
:101484002380E70003C7050093871700E31407FED2
:1014940063000602238007006780000093070500AD
:1014A400930606006FF09FFB138606006FF05FFE45
:1014B400130101FF23261100EF40D04913803000AF
:1014C400130101FF232481002326110093773500A3
:1014D4001304050063940704032705003706FFFE81
:1014E4001306F6EFB307C700B78680801347F7FFEC
:1014F400B3F7E70093860608B3F7D70063900702B3
:101504000327450013054500B307C7001347F7FF3A
:10151400B3F7E700B3F7D700E38407FE834705007A
:10152400638807008347150013051500E39C07FE35
:10153400EF00000E8320C100130504000324810082
:10154400130101016780000013803000130101FFC3
:1015540023229100930405001385050023248100B0
:1015640023202101232611001309060013840500FA
:10157400EF00402B13061500636EC90263E8840074
:10158400B307C40063E8F40263169400B387C4008D
:101594006362F40293050400032481008320C100E4
:1015A4000329010013850400832441001301010170
:1015B4006FF08FCAEF40103A13803000130101FD21
:1015C4002326810213040103232EA4FCB7877F7F03
:1015D4009387F7F72326F4FE0327C4FD8327C4FE6D
:1015E4003377F7008327C4FE3307F7008327C4FD4E
:1015F4003367F7008327C4FEB367F70093C7F7FF89
:10160400138507000324C10213010103678000004E
:1016140013803000130101FC232E1102232C8102BC
:10162400130401042326A4FC2324B4FC8327C4FC50
:101634002326F4FE0327C4FC832784FCB367F70046
:1016440093F737002320F4FE832704FE93B7170093
:1016540093F7F70F638207128327C4FC2324F4FE55
:10166400832784FC2322F4FE6F004002032744FEF8
:10167400930747002322F4FE832784FE93864700C2
:101684002324D4FE0327070023A0E700832744FE76
:1016940083A7070013850700EFF01FF293070500E7
:1016A400E38607FC832784FE2326F4FC832744FE79
:1016B4002324F4FC832784FC83C70700230FF4FC52
:1016C400832784FC9387170083C70700A30EF4FCC9
:1016D400832784FC9387270083C70700230EF4FC29
:1016E4008327C4FC138717002326E4FC0347E4FD87
:1016F4002380E70083C70700639607008327C4FE9F
:101704006F00800B8327C4FC138717002326E4FC97
:101714000347D4FD2380E70083C7070063960700CF
:101724008327C4FE6F004009832784FC9387370016
:1017340083C70700A30DF4FC8327C4FC1387170099
:101744002326E4FC0347C4FD2380E70083C7070086
:10175400639607008327C4FE6F0000061300000091
:101764008327C4FC138717002326E4FC2380070087
:101774008327C4FE6F004004832784FC83C70700CB
:10178400A30FF4FC832784FC938717002324F4FC21
:101794008327C4FC938717002326F4FC8327C4FC07
:1017A4009387F7FF0347F4FD2380E7008347F4FDA5
:1017B400E39407FC8327C4FE138507008320C10339
:1017C40003248103130101046780000013803000A7
:1017D400130101FD2326810213040103232EA4FC1B
:1017E400B7877F7F9387F7F72326F4FE0327C4FD8B
:1017F4008327C4FE3377F7008327C4FE3307F7003B
:101804008327C4FD3367F7008327C4FEB367F7005B
:1018140093C7F7FF138507000324C10213010103D3
:101824006780000013803000130101FC232E110295
:10183400232C8102130401042326A4FC8327C4FC63
:101844002324F4FE8327C4FC93F737006382070440
:101854008327C4FC83C70700A303F4FE8327C4FCC7
:10186400938717002326F4FC834774FE639C0700C8
:101874000327C4FC832784FEB307F7409387F7FF4D
:101884006F00C0218327C4FC93F73700E39207FC61
:101894008327C4FC2326F4FE130000008327C4FE20
:1018A400138747002326E4FE83A707001385070058
:1018B400EFF0DFF193070500E38207FE8327C4FE00
:1018C4002326F4FE8327C4FE2326F4FC0327C4FC4A
:1018D400832784FEB307F7402320F4FE93074000D8
:1018E400232EF4FC8327C4FDB307F0400327C4FC74
:1018F400B307F70083C70700A30DF4FC1307100018
:101904008327C4FDB307F7400327C4FCB307F700DC
:1019140083C70700230DF4FC130720008327C4FDAD
:10192400B307F7400327C4FCB307F70083C70700D6
:10193400A30CF4FC130730008327C4FDB307F7405E
:101944000327C4FCB307F70083C70700230CF4FC88
:101954008347B4FD639A0700032704FE8327C4FD6D
:10196400B307F7406F0080138347A4FD639C07000F
:10197400032704FE8327C4FDB307F74093871700AA
:101984006F00C011834794FD639C0700032704FE86
:101994008327C4FDB307F740938727006F00001027
:1019A4000327C4FD930740006306F700834784FDC3
:1019B400639C0700032704FE8327C4FDB307F74095
:1019C400938737006F00800D130740008327C4FD01
:1019D400B307F7400327C4FCB307F70083C7070026
:1019E400A30DF4FC130750008327C4FDB307F7408D
:1019F4000327C4FCB307F70083C70700230DF4FCD7
:101A0400130760008327C4FDB307F7400327C4FC12
:101A1400B307F70083C70700A30CF4FC1307700097
:101A24008327C4FDB307F7400327C4FCB307F700BB
:101A340083C70700230CF4FC8347B4FD639C0700B1
:101A4400032704FE8327C4FDB307F74093874700A9
:101A54006F00C0048347A4FD639C0700032704FEB2
:101A64008327C4FDB307F740938757006F00000333
:101A7400834794FD639C0700032704FE8327C4FD6A
:101A8400B307F740938767006F004001032704FE04
:101A94008327C4FDB307F7409387770013850700B6
:101AA4008320C10303248103130101046780000020
:101AB400138030006306060663E6C6060347050086
:101AC400930705003308D500631607006F00000272
:101AD400638A070503C717009386070093871700D7
:101AE400E31807FE1308F8FFB306D8403386C50091
:101AF4003388D7006F0040019386F6FF63840703A1
:101B040093871700638AC50003C7050093851500F2
:101B14002380E700E31207FE6386060023800700A4
:101B240067800000130101FF23261100EF4080624B
:101B340013803000137735009307050063140704FE
:101B440083260500B708FFFE9388F8EF3387160154
:101B54003788808093C6F6FF3377D70013080808C8
:101B6400337707016310070283A647009387470072
:101B74003387160193C6F6FF3377D700337707010F
:101B8400E30407FE03C707006308070003C7170041
:101B940093871700E31C07FEB386C700630406029D
:101BA40003C705009387170093851500A38FE7FEED
:101BB40063080700E396F6FE2380060067800000B2
:101BC400678000006780000013803000B367B500B1
:101BD40093F7370013070500639A0706930730004D
:101BE40063F6C7063703FFFEB78880801303F3EF5D
:101BF40093880808130E30006F0080012320D7005B
:101C04001306C6FF13074700938545006370CE048F
:101C140083A60500B387660013C8F6FFB3F7070170
:101C2400B3F71701E38C07FC93851500930717009E
:101C34006304060283C6F5FF1308F6FFA38FD7FEDD
:101C4400638E0600138707001306080093851500AA
:101C540093071700E31006FE678000003307C700F0
:101C6400630A080093871700A38F07FEE39CE7FE2F
:101C7400678000006780000013803000B306B50061
:101C840093070500639805006F00400293871700CF
:101C9400638AF60003C70700E31A07FE3385A740EB
:101CA400678000003385A6406780000013050000AC
:101CB4006780000013803000130101FFB798008093
:101CC40023268100930F0500938705009388D8D0BD
:101CD40003C807001385070093871700338708019B
:101CE4000347070013778700E31407FE1307D002A6
:101CF4006302E8101307B00213040000630AE80843
:101D04006392060213070003630EE80E37A39919C2
:101D140093035000130393999302A0009306A00029
:101D24006F00C001130700016382E6109303F0FF04
:101D340033D3D30293820600B3F3D3029308000093
:101D440013050000130E9000130F9001930EF0FF83
:101D5400130708FD6378EE001307F8FB6360EF04D4
:101D6400130798FC6354D704638ED8019308F0FFDB
:101D7400636AA300630065069308100033055502E7
:101D84003305A7009387170003C8F7FF6FF05FFCC4
:101D940003C80700930725006FF09FF61307F8F9AF
:101DA4006366EF00130798FAE340D7FC1307F0FFCC
:101DB4006386E802630404003305A040630606005A
:101DC400639608022320B6000324C1001301010115
:101DD40067800000E3C8E3FA6FF01FFA13072002DC
:101DE40023A0EF001305F0FFE30006FE9385F7FF41
:101DF4006FF05FFD03C8070013041000930725006C
:101E04006FF01FF003C70700930680051377F70DE3
:101E14006304D70437030020930370001303F3FF14
:101E240093028000930680006FF05FF113070003B4
:101E3400630CE800370300109303F0001303F3FF6F
:101E4400930200016FF09FEF03C70700130580059D
:101E54001377F70DE310A7FE3703001003C817002C
:101E64009303F000938727001303F3FF9302000109
:101E7400930600016FF09FEC138030006FF09FE336
:101E8400138030009307050003A5C1829306060062
:101E940013860500938507006FF0DFE1138030009F
:101EA4009307050003A5C182930606001386050067
:101EB400938507006FF01FE0138030001385418382
:101EC4006F40402513803000138541836F40C02646
:101ED40013803000130101FE2328210103A985008A
:101EE400232C8100232A910023263101232E110063
:101EF40023244101232251012320610183A70500EA
:101F040013840500938406009309060063E0260FFA
:101F14000397C50093760748639E0604930409005B
:101F2400138507001386040093850900EF00105BF6
:101F34000327840083270400130500003307274187
:101F4400B38797002324E4002320F4008320C101F5
:101F54000324810183244101032901018329C10050
:101F6400032A8100832A4100032B0100130101028B
:101F740067800000130A050003A5450183A5050138
:101F840093861400131615003306A6001359F601A0
:101F94003309C900B38AB74013591940B3875601AE
:101FA400130609006376F9001389070013860700F6
:101FB40013770740630007049305060013050A001E
:101FC400EFF04F85130B0500630405068325040118
:101FD40013860A00EFE05FA88357C40093F7F7B7AE
:101FE40093E707082316F4006F00C0011389060065
:101FF4006FF01FF313050A00EF00106F130B0500B9
:1020040063020502B3075B01B30A5941232A240181
:10201400232864012320F400138904002324540199
:102024006FF01FF08325040113050A00EFE0DFE7DA
:102034008357C4001307C0002320EA0093E7070472
:102044002316F4001305F0FF6FF05FF013803000E7
:1020540083278600130101FD232E3101232C410126
:102064002326110223248102232291022320210307
:10207400232A51012328610123267101232481018C
:1020840083290600130A0600638C071403A785003E
:1020940083A70500930A050093840500930B0000B1
:1020A400130900006F00000E0397C40093760748DD
:1020B400638A060803A6440183A504019316160047
:1020C400B386C6003384B74013DBF601330BDB0061
:1020D40093071400135B1B40B387270113060B00FF
:1020E4006376FB00138B0700138607001377074002
:1020F400630A070A9305060013850A00EFE09FF1BF
:10210400130C0500630E050A83A5040113060400DD
:10211400EFE09F9483D7C40093F7F7B793E70708DA
:102124002396F400B3078B4033058C0023AA640183
:1021340023A8840123A0A400130B090023A4F40002
:10214400130409001306040093850B00EF001039F3
:1021540003A7840083A7040083268A00330767410A
:10216400B387870023A4E40023A0F400B3862641A8
:102174002324DA006386060683AB090003A9490019
:1021840093898900130B070013850700E30609FEF2
:1021940013040700E37AE9F0130B090013040900A0
:1021A4006FF05FFA13850A00EF001054130C05005A
:1021B400E31A05F683A5040113850A00EFE0DFCED8
:1021C40083D7C4001307C00023A0EA0093E70704E1
:1021D4002396F40023240A001305F0FF6F00800007
:1021E400130500008320C1020324810223220A0074
:1021F40083244102032901028329C101032A8101A5
:10220400832A4101032B0101832BC100032C81008C
:1022140013010103678000001380300083D7C500D9
:10222400130101F42322510B2320610B2328A1095C
:10223400232E110A232C810A232A910A2328210BF5
:102244002326310B2324410B232E7109232C8109CE
:10225400232A91092326B10993F70708938A0500D5
:10226400130B0500130D06006386070083A7050101
:10227400638E073493070002A30CF1029307000353
:10228400230DF10283470D00232A0102232ED100DE
:10229400B7A400801309100037AA0080B7AB0080F0
:1022A400B72C0080130C00006388071813040D007A
:1022B400130750026388E71C8347140013041400B7
:1022C400E39A07FEB30DA4416308A41793860D0097
:1022D40013060D0093850A0013050B00EFF05FBF92
:1022E4009307F0FF630AF5140327410383470400AF
:1022F4003307B701232AE102638007149307F0FF31
:102304001304140023200102232601022322F102D4
:1023140023240102A3010106232C01066F004001BE
:102324001304070003270102B367F7002320F10217
:102334008345040013065000138584D1EF00900DEB
:10234400938784D113071400B307F540B317F9003A
:10235400130D0700E31605FC8327010293F607011A
:102364006386060093060002A301D10693F6870054
:10237400638606009306B002A301D10683450400D8
:102384009306A0026398D5100327C1018326070092
:1023940013074700232EE10063C4061A2326D10243
:1023A400834514009307E002638CF5121306300092
:1023B40013050AD2EF0010066302050293070AD23E
:1023C4003305F54083270102130700043317A700E0
:1023D400B3E7E700130D1D002320F10283450D0030
:1023E4001306600013854BD2230CB102EF00900258
:1023F400130D1D00630A0516630E0C101307C101AB
:1024040093864CED13860A009305010213050B0015
:1024140097000000E7000000930905009307F0FF10
:10242400638CF90083274103B3873701232AF10220
:1024340083470D00E39C07E683D7CA0093F707049C
:10244400639E071A032541038320C10B0324810BD8
:102454008324410B0329010B8329C10A032A810A1E
:10246400832A410A032B010A832BC109032C810906
:10247400832C4109032D0109832DC1081301010C8B
:1024840067800000B30DA441E312A4E58347040070
:102494006FF09FE6938605FD93079000130D0400EB
:1024A400E3E2D7F00326C102130590006F00800019
:1024B400130717009317260083450700B387C70047
:1024C400939717003386D700938605FDE372D5FEF4
:1024D4002326C1029307E002130D0700E398F5ECED
:1024E40083451D009307A0026390F50A8327C10169
:1024F40083452D0093062D0003A70700938747000B
:10250400232EF1002322E10263440702138D060007
:102514006FF0DFE9032701028327C1011377071056
:10252400630A070293874700232EF1006FF09FEFA1
:102534009307F0FF2322F102138D06006FF01FE7CB
:10254400B306D04093E727002326D1022320F102CB
:102554006FF01FE59387770093F787FF93878700D2
:10256400232EF1006FF01FEC1307C10193864CED8D
:1025740013860A009305010213050B00EF0080295E
:10258400930905006FF09FE923220102138705FDDB
:1025940093079000130D1D00E3EAE7E093060000A3
:1025A4001306900083451D0093972600B387D70038
:1025B40093971700B386E700138705FD130D1D00DD
:1025C400E372E6FE2322D1026FF05FDE930500047E
:1025D4002326D100EFE01FA423A0AA0023A8AA0069
:1025E4008326C100630805009307000423AAFA00A8
:1025F4006FF05FC89307C0002320FB001305F0FFB2
:102604006FF09FE413803000130101FD2324810245
:10261400138405008327040183A585002320210357
:10262400232E3101232C4101232A51012326110297
:102634002322910223286101232671011309050035
:10264400930A060093890600130A070063D4B700AF
:102654009387050023A0FA008346340463860600AA
:102664009387170023A0FA008327040013F70702B7
:102674006300071403A70A001307270023A0EA0036
:102684008327040093F6670013860700639E060001
:102694008326C400930B940193040000130BF0FFF2
:1026A400138607006346D70E834634041376060266
:1026B400B336D00063020602B307D4001307000345
:1026C400A381E7040347540493871600B307F40077
:1026D40093862600A381E704130634049385090036
:1026E40013050900E7000A009307F0FF6302F506EB
:1026F40083270400930540008326C40093F76700F2
:1027040003A50A0003278400032604016388B70C89
:102714006352E60E930A00003307C740B38AEA0007
:102724001304A40193040000130BF0FF6F00800056
:1027340063D2540D93061000130604009385090018
:1027440013050900E7000A0093841400E31265FFEF
:102754001305F0FF8320C102032481028324410274
:10276400032901028329C101032A8101832A41012A
:10277400032B0101832BC1001301010367800000B7
:102784008327C40003A70A00B387E74063D8F4068D
:102794009306100013860B009385090013050900A6
:1027A400E7000A0093841400E31C65FD6FF05FFAF0
:1027B40013F76700B336D000E31007F203A70A004B
:1027C4008326C400930B940193040000130BF0FFC1
:1027D40013860700E34ED7FA6FF01FEDB386A640C9
:1027E40093CAF6FF93DAFA41B3FA5601E346E6F2E6
:1027F400E348D0F2130500006FF0DFF50326040070
:102804008346340413760602B336D000E31606EA90
:102814006FF09FEC13803000130101FC232C810224
:10282400232821032326310323244103232E1102C9
:10283400232A91022322510323206103232E7101B1
:1028440003C88501138405001309050093090600D4
:10285400138A06009385350463080804930788FAED
:1028640093F7F70F9306000263E6F610B79600801D
:1028740093972700938606E1B387D70083A70700C1
:10288400678007008327040083260700032544018B
:1028940013F6070813884600630A062E232007014F
:1028A40083A7060023A0A70023280400938405001F
:1028B40013070A00938609001306C1009305040058
:1028C40013050900EFF01FD4930AF0FF63065507C0
:1028D4008326040113860400938509001305090067
:1028E400E7000A00630A5505832704000325C40092
:1028F400832AC10093F727006388070663D6AA06D4
:10290400930B940193040000130BF0FF6F0040013C
:102914000325C40093841400B307554163D6F4041B
:102924009306100013860B00938509001305090014
:10293400E7000A00E31E65FD1305F0FF8320C103D1
:102944000324810383244103032901038329C1024E
:10295400032A8102832A4102032B0102832BC10132
:102964001301010467800000E35A55FD13850A0032
:102974006FF0DFFC93042404230104059307100083
:102984002328F400A30104046FF09FF283260400BB
:102994008327070013F6060813854700631606000D
:1029A40013F606046316062003A607002320A700D7
:1029B4009307060003274400634A062037A60080D5
:1029C4001306C6D21305A0006F00000F832704006E
:1029D4008326070013F607081385460063160600CE
:1029E40093F707046390071C83A706002320A7001E
:1029F40037A600801307F0061306C6D2130580001D
:102A04006308E80A1305A0006F00800A8326070004
:102A1400930424049307100003A60600938646003B
:102A24002320D7002301C4046FF09FF583270700F8
:102A34000326440093050000938647002320D70013
:102A440083A4070013850400EF00C01C6300051C69
:102A5400B30795402322F4006FF09FF2832604000D
:102A640093E606022320D40093078007A302F4040C
:102A74000325070037A6008093F70608130606D43B
:102A840013084500639E070893F70604638A070842
:102A9400835705002320070113F716006306070078
:102AA40093E606022320D400638207041305000181
:102AB40003274400A30104042324E400634C070611
:102AC4008326040093F6B6FF2320D40063940706FC
:102AD4009384050063140712930780006304F508C8
:102AE400B38595402328B4006FF09FDC03270400CE
:102AF4001377F7FD2320E4006FF05FFB9307800555
:102B0400A302F404832604000325070037A60080EB
:102B140093F706081306C6D213084500E38607F6A2
:102B240083270500232007016FF01FF78326040085
:102B34006FF09FF3930805009384050033F817039F
:102B44009384F4FF138707003308060183460800C3
:102B5400B3D717032380D400E37217FF93078000D1
:102B6400E310F5F88327040093F71700E38A07F6C8
:102B74000327440083270401E3C4E7F69307000313
:102B8400A38FF4FE9384F4FF6FF09FF593F707048B
:102B9400232007016386070283A706002390A7006A
:102BA4006FF09FD083D706002320A7006FF05FE467
:102BB400839707002320A700138607006FF09FDF89
:102BC40083A7060023A0A7006FF01FCE1306D00230
:102BD400A301C4042324E4006346070093F6B6FF6C
:102BE4002320D40037A60080B307F0409308A00048
:102BF4001306C6D21305A0006FF01FF48347060026
:102C0400930424042301F4046FF01FED832744008C
:102C14006FF01FD7138030009377350093F6F50FCC
:102C2400638E07029307F6FF630606021306F0FF9E
:102C34006F00800113051500137735006302070246
:102C44009387F7FF6388C70003470500E314D7FEA3
:102C540067800000130500006780000093070600EA
:102C640013073000637CF70493F5F50F1397850081
:102C7400B305B70013970501B708FFFE37888080B6
:102C8400B385E5009388F8EF1308080813033000B0
:102C94006F0000019387C7FF130545006370F302BB
:102CA4000327050033C7E500330617011347F7FF71
:102CB4003377E60033770701E30E07FC3307F500AB
:102CC400639807006FF01FF913051500E304A7F8D4
:102CD40083470500E39AD7FE678000001380300025
:102CE400130101FD2326810213040103232EA4FCF6
:102CF400232CB4FC232AC4FC8327C4FD2326F4FE1E
:102D0400832784FD2324F4FE032784FE8327C4FE43
:102D1400637CF706032784FE832744FDB307F7008B
:102D24000327C4FE6372F706032784FE832744FD4A
:102D3400B307F7002324F4FE0327C4FE832744FDCE
:102D4400B307F7002326F4FE6F00C002832784FE36
:102D54009387F7FF2324F4FE8327C4FE9387F7FFAA
:102D64002326F4FE832784FE03C707008327C4FEBB
:102D74002380E700832744FD1387F7FF232AE4FC1D
:102D8400E39607FC6F000015032744FD9307F0004A
:102D940063FAE712032784FE8327C4FEB367F700B0
:102DA40093F73700639007128327C4FE2322F4FEAF
:102DB400832784FE2320F4FE6F000009032704FE0A
:102DC400930747002320F4FE832744FE938647009D
:102DD4002322D4FE0327070023A0E700032704FED1
:102DE400930747002320F4FE832744FE938647007D
:102DF4002322D4FE0327070023A0E700032704FEB1
:102E0400930747002320F4FE832744FE938647005C
:102E14002322D4FE0327070023A0E700032704FE90
:102E2400930747002320F4FE832744FE938647003C
:102E34002322D4FE0327070023A0E700832744FDB1
:102E4400938707FF232AF4FC032744FD9307F0002C
:102E5400E3E6E7F66F000003032704FE9307470049
:102E64002320F4FE832744FE938647002322D4FEC6
:102E74000327070023A0E700832744FD9387C7FFA8
:102E8400232AF4FC032744FD93073000E3E6E7FC20
:102E9400832744FE2326F4FE832704FE2324F4FE22
:102EA4006F004002032784FE930717002324F4FED7
:102EB4008327C4FE938617002326D4FE0347070006
:102EC4002380E700832744FD1387F7FF232AE4FCCC
:102ED400E39A07FC8327C4FD138507000324C1027A
:102EE400130101036780000013803000130101FE09
:102EF400232C8100232E1100232A91002328210151
:102F040023263101130406006388050A63020608B8
:102F14009384050013090500EF00000C9389040055
:102F2400636285028320C10103248101832441015A
:102F340003290101138509008329C100130101023A
:102F4400678000009305040013050900EFE08F8CEF
:102F54009309050063000504130604009385040027
:102F6400EFD09FAF1305090093850400EFD0DFF382
:102F74008320C10103248101832441010329010128
:102F8400138509008329C100130101026780000031
:102F9400EFD09FF18320C101032481019309000034
:102FA4008324410103290101138509008329C100F8
:102FB4001301010267800000032481018320C10101
:102FC40083244101032901018329C10093050600DB
:102FD400130101026FE00F841380300083A7C5FF43
:102FE4001385C7FF63C4070067800000B385A5008D
:102FF40083A705003305F5006780000013803000C7
:10300400130101FF2326110037950080130545E9BC
:10301400EF101037130500008320C10013010101D4
:103024006780000013803000130101FF2326110084
:1030340037950080130545EAEF109034130500001E
:10304400EFD05F9B13803000130101FF2326110092
:1030540037950080130505EDEF109032130500003D
:10306400EFD05F9913803000130101FF2326110074
:1030740037950080130585EFEF109030130500009D
:10308400EFD05F9713803000930705FD93F7F70F98
:10309400130790006378F7029307F5F993F7F70F96
:1030A40013075000636EF702130595FAB7D7008033
:1030B40013152500938747E6B387A70003A50700E8
:1030C40067800000130505FDB7D7008013152500A0
:1030D400938747E6B387A70003A50700678000002E
:1030E400130500006780000013803000130101FF06
:1030F4002326110037950080130585F1EF10502821
:10310400B7A700809387472103A507001305C5F9D6
:1031140083A54700938585F303A68700130646ED30
:1031240083A6C700938606E703A707011307C7E032
:10313400B7D7008013172700938747EAB387E700C0
:1031440037D7008093962600130787EC3307D70000
:10315400B7D6008013162600938686EDB386C60084
:1031640037D6008093952500130606F23306B60081
:103174001315250093854181B385A50083A7070016
:103184000327070083A606000326060083A505007F
:10319400379500801305C5F2EF10901E8320C100FF
:1031A400130101016780000013803000130101FF47
:1031B40023261100232481002322910023202101AE
:1031C40013040500B7A700809387472183A747000E
:1031D4001307A00C6368F7021307900C63F6E70467
:1031E4001307800C639EE704032745009307F00050
:1031F40063FAE718B7A40080938484221309C000FB
:103204006F0000041307B00C639CE702B7A70080AB
:103214009387472183A787001307C0136380E710B0
:103224001307D0136382E710032744009307300089
:1032340063FEE714B7940080938444F713090000F5
:1032440003254400EFD04FFF2326A4006302051298
:103254001306090093850400EFD01F8083244400E3
:10326400B38424419384B4FF0325C400138604006B
:103274009305100433052501EFD05FB59385040051
:1032840037950080130505FAEF10900F832584000D
:1032940037950080130545FBEF10900EB7A700800B
:1032A4009387472103A787009307C0136308F70296
:1032B4008327C40033099900B38727018345840019
:1032C400034694008346A4000347B4002380B70058
:1032D400A380C7002381D700A381E7008327C4000C
:1032E400032744001307F7FFB387E7002380070091
:1032F4008325C40037950080130585FCEF10500822
:10330400130510008320C10003248100832441009D
:103314000329010013010101678000001307501005
:103324002322E5006FF0DFEF832744009387C70172
:103334002322F4000327C4002300F700832744005A
:1033440093D787000327C400A300F7008327C40092
:10335400130710042381E7008327C400A381070017
:10336400930740002322F400130510006FF09FF927
:10337400379500801305C5F7EF1090001305000082
:103384006FF05FF8130500006FF0DFF7130500001E
:103394006FF05FF713803000130101FF2326110043
:1033A40093057045EFD0DFE7138030006F00800194
:1033B40003C705002300E5009385150013051500D8
:1033C400138607009307F6FFE31406FE67800000E8
:1033D40013803000130101BF2326114023248140B0
:1033E4001304050037950080130585FDEF1040791F
:1033F400232024008320C140032481401301014180
:103404006780000013803000130101FF23261100A0
:10341400232481002322910093840500EFE08FC0D0
:103424001374F50F13050400EFD00FE1B384A44027
:103434001304F4FF3374940033058500930710FAE2
:103444002300F5008320C10003248100832441006C
:10345400130101016780000013803000130101FE95
:10346400232E11002326B100B7A70080938747219C
:1034740003A787009307C0136302F7028327C100E1
:103484006394070237950080130505FFEF10406F22
:103494008320C10113010102678000009305C1006C
:1034A400EFF05FF66FF09FFD379500801305450040
:1034B400EF10006D13050000EFD0CFD31380300060
:1034C400130101FF232611002324810023229100EC
:1034D40023202101130405008344050083471500BC
:1034E40093978700B384F4009394040193D4040164
:1034F40013850400EFD04FD413090500138604008C
:1035040093052400EFD04FD5130400006F00000191
:103514001304140013140401135404016372940279
:10352400B307890083C507009307F001E3F2B7FEF0
:103534003795008013050503EF1080646FF05FFD7D
:10354400379500801305C5FEEF1080638320C1000A
:103554000324810083244100032901001301010194
:103564006780000013803000130101FF232611003F
:1035740023248100130405009386050037960080F8
:103584001306460393059000EFD0DFDB930700009A
:103594006F00800093871700130780006340F702D1
:1035A4003307F4000346070093060002E314D6FE33
:1035B400930600032300D7006FF0DFFD8320C100D2
:1035C400032481001301010167800000138030008F
:1035D400130101FF93D785012306F10093D7050159
:1035E400A306F10093D785002307F100A307B100D8
:1035F400130730006F00400293073000B387E740A1
:10360400B307F50093060701B386260083C6C6FFF9
:103614002380D7001307F7FFE35007FE13010101CE
:103624006780000013803000130101F6232E110877
:10363400232C8108232A91082328210923263109D0
:1036440093040500232A0106232C0106230E0106F8
:10365400232801062324010623160106232201043C
:10366400232401042326010423280104232A01041A
:10367400232C0104232E0104232001062302010626
:103684002320010223220102232401022326010212
:1036940023280102232A0102232C0102232E0102E2
:1036A40023000104232A0100232C0100230E01001E
:1036B400232401002326010023080100B7350080DC
:1036C40093858502B717000093870780B3F7F50049
:1036D400638A0704B7450080938585021305410773
:1036E400EFF05FE813063000930591071305010717
:1036F400EFE08FCD130650009305410713058106B3
:10370400EFE08FCC1306000193050000379500808D
:1037140013058503EFE08FF8130905001304000077
:103724006F00800313054107EFF0DFE36FF09FFBA9
:1037340093070408B387270003C587FEEFF09F941F
:103744009305050093061002130640001305410477
:10375400EFE00FB61304140093074000E3DA87FC8C
:1037640013061002B79500809385450413054104A0
:10377400EFD09FCB130620009305000013054104EE
:10378400EFE0CFF19309050093050500130541010E
:10379400EFF05FDD130400006F00C002930704081C
:1037A400B387270003C507FFEFF0DF8D93050500FE
:1037B400930610021306400013050102EFE04FAF19
:1037C4001304140093072000E3DA87FC13061002A5
:1037D400B79500809385450513050102EFD0DFC43A
:1037E400130620009305000013050102EFE00FEB20
:1037F400130405009305050013058100EFF09FD61F
:103804009385090013850400EFF05FDC9305040041
:1038140013854400EFF09FDB9305090013858400B2
:10382400EFF0DFDA9385090013054101EFF09FD330
:103834009305040013058100EFF0DFD23795008073
:103844001305C506EF10C033930641011306810624
:10385400B795008093858509379500801305450A3F
:10386400EF1000329306810013060107B79500801C
:103874009385450B379500801305450CEF104030B8
:103884003796008013068603B79500809385450D0F
:10389400379500801305C50DEF10802E8320C109D4
:1038A4000324810983244109032901098329C108C7
:1038B4001301010A67800000138030001301019195
:1038C4002326116E2324816E2322916E2320216FDF
:1038D400232E316D232C416D1304016F232EA492EA
:1038E400232CB49213060002B7D50080938505C437
:1038F400130504E8EFD05FC5B73400809384040057
:10390400232E94A613054010EFD00F932326A492E0
:103914002320951013054010EFD00F929304050057
:1039240013054010EFD04F91130905001305401003
:10393400EFD08F90130A050013054000EFD0CF8F0E
:10394400232A049263880408930905006304090880
:10395400B7A7008013071006238AE7101306000296
:10396400B7D50080938505C437A500801305450F9E
:10397400EFD09FBD37A5008013058522EFF09FCAC5
:10398400B7A700809387472183A7C700130720198F
:103994006386E726636AF704130700196382E70A5C
:1039A40013071019639EE70CB7A70080938747217C
:1039B40083A78700130780136388E71663E4241939
:1039C4003795008013058511EF10801B1305100037
:1039D400EFD04F82379500801305850FEF10401A02
:1039E40013051000EFD00F8113073019639AE7080D
:1039F400B7A700809387472183A7870013079013F5
:103A04006386E71A13071013638AE71A1307B013C0
:103A14006386E71AB7D70080938707C6232CF496EA
:103A2400B7A700809387472103A747009307B00CEB
:103A34006306F71A23249492232A94926F00400475
:103A4400B7A700809387472183A7870013077013C4
:103A54006386E7081307E0126380E70A930704A864
:103A6400232CF496B7A700809387472103A7470028
:103A74009307B00C6300F70A23249492232A9492A8
:103A84000327449363080700B73700809387070030
:103A94002320F700B7A7008083A747211307400618
:103AA4006388E71E130750066384E736B7A70080D0
:103AB4009387472183A787009387E7EC1307400088
:103AC400636AF74493972700379700801307C72C3E
:103AD400B387E70083A707006780070037A7008044
:103AE4008326472113074006E396E6F69307C49717
:103AF400232CF4966FF01FF7B7A7008003A7472184
:103B040093074006E31CF7F413058497EFF05F8CEA
:103B14006FF05FF5930704EA2324F4EA23249492D4
:103B2400232A94926FF0DFF537A70080832647217C
:103B340013074006E394E6E88327C492232CF49603
:103B44006FF01FF4E37E49E7232C949623202493FB
:103B5400232E44911307D013638EE7021309000048
:103B640013054000EFC05FED232AA4921305001350
:103B7400EFC09FEC37A70080130747218326470037
:103B84001307B00C638EE60E2324A49223282493F7
:103B94006FF01FEF13064010B7D50080938505C45E
:103BA40013050900EFD05F9A6FF09FFBB7D7008031
:103BB400938707D6232CF4966FF09FECB7A7008069
:103BC40003A7472193074006E316F7E4B7D700801D
:103BD400938787F4232CF4966FF09FE4B7D7008083
:103BE40023A207F4938747F437D700802320F7A450
:103BF40023249492232A94926FF09FE8B7A700801D
:103C04009387472103A787009307A0136306F7044C
:103C1400B7A7008093874711232CF496B7A7008099
:103C240023A207D8B73700809387070037A70080FF
:103C34002320F7D837A70080232EF7D6B7A7008014
:103C44009387472103A747009307B00C630EF7003F
:103C5400232A94926FF0DFE2B7A70080938707FFCF
:103C6400232CF4966FF0DFE137A70080B7A700801C
:103C7400938747D8232EF7D6232A94926FF05FE0D8
:103C84002324A49223282493232E34916FF05FDFFE
:103C9400B7A700809387472183A78700938747EDC1
:103CA40013071001E364F7E0939727003797008028
:103CB4001307072EB387E70083A707006780070071
:103CC4009307C4FF2328F4926FF05FDE9307C49335
:103CD4002328F4926FF09FDD832744932328F492E2
:103CE4006FF0DFDCB7A70080938787D72328F4928F
:103CF4006FF0DFDBB7D70080938707F42328F492B3
:103D04006FF0DFDA930704EB2328F4926FF01FDAE5
:103D1400832784932328F4926FF05FD983278492B6
:103D24002328F4926FF09FD8B7D700809387079128
:103D34002328F4926FF09FD7B7A70080938707DBFF
:103D44002328F4926FF09FD69307C4A72328F492F4
:103D54006FF0DFD58327C492938707102328F4924A
:103D64006FF0DFD4B7D70080938707E62328F49257
:103D74006FF0DFD3B7A700809387070F2328F4924F
:103D84006FF0DFD2B7A700809387472183A7C700CE
:103D9400130720196384E70E636EF70013070019F5
:103DA4006386E70E13071019E392E7D023283493B0
:103DB4006FF0DFCF13073019E39AE7CEB7D700804F
:103DC400938747F42328F4926FF05FCEB7A700805F
:103DD4009387472183A7C70013072019638EE70A37
:103DE400636CF70013070019E392E7CC930704E828
:103DF4002328F4926FF09FCB13073019E398E7CA96
:103E0400B7D70080938707C42328F4926FF01FCAA2
:103E1400B7A700809387472183A7C70013072019FA
:103E24006384E7086364F70213070019638CE708E7
:103E340013071019E39CE7C6832704922322F49204
:103E44008327C4912328F4926FF05FC613073019B7
:103E5400E39EE7C4B7D70080938707B42322F49284
:103E6400B7D70080938707A42328F4926FF01FC468
:103E74009307C4EA2328F4926FF05FC3B7A70080C6
:103E8400938747D82328F4926FF05FC2930704EA1C
:103E94002328F4926FF09FC1B7A700809387470F40
:103EA4002328F4926FF09FC0B7A70080938707D8A8
:103EB4002322F492B7A700809387C7D72328F492CC
:103EC4006FF0DFBE930744EA2322F492930784EA57
:103ED4002328F4926FF09FBD130504EBEFD04FB08D
:103EE40063180500930704EB2328F4946F00800201
:103EF400379500801305C514EF0090486F00C05B30
:103F040003258493EFD0CFAD6310050C93078493FE
:103F14002328F4949307C4FF2322F496B7A70080C0
:103F24009387472103A747002320E49483A707002E
:103F340093064006638CD712130750066382E71A70
:103F44008324049393850400379500801305451C4E
:103F5400EF00104383258497379500801305851D52
:103F6400EF0010428325849763FC9528B385B44001
:103F7400938555002322B494379500801305851E3C
:103F8400EF001040832784972380070013050494CF
:103F9400EFF08FA163000528B7A70080938747211E
:103FA40083A707019387C7E0130780006364F73C86
:103FB400939727003797008013078732B387E7006A
:103FC40083A7070067800700379500801305C51491
:103FD400EF00103B6FF09FF303258492EFD04FA0C6
:103FE400631A0500832784922328F494232A0494D3
:103FF4006FF05FF2379500801305C514EF00503859
:104004006F00804B37D5008013050591EFD04F9D8D
:10401400631C0500B7D70080938707912328F49485
:10402400232A04946FF01FEF379500801305C514FD
:10403400EF0010356F00404837A50080130505DBFD
:10404400EFD00F9A631C0500B7A70080938707DBA6
:104054002328F494232A04946FF0DFEB379500802F
:104064001305C514EF00D0316F0000459307A00C71
:104074006300F70463E2E7029307800C6302F7042A
:104084009307900C6314F704B73700809387870471
:104094002324F4946FF0DFEA9307B00C6318F7025B
:1040A400B7C7ADDE9387F7EE2324F4946FF05FE98E
:1040B400B7370080938787062324F4946FF05FE872
:1040C400832784972324F4946FF09FE73795008027
:1040D4001305C517EF00D02A13051000EFC09F91F8
:1040E400B7A700809387472183A78700938747ED6D
:1040F40013071001636CF70E93972700379700801E
:104104001307C734B387E70083A707006780070056
:104114009307C4FF2324F4946FF09FE29307C4EA47
:104124002324F4946FF0DFE19307C4932324F494DD
:104134006FF01FE1832744932324F4946FF05FE02E
:10414400B7A70080938787D72324F4946FF05FDFA9
:10415400B7D70080938707F42324F4946FF05FDECD
:104164009307C4A72324F4946FF09FDD8327C4929C
:10417400938707102324F4946FF09FDCB7D7008053
:10418400938707E62324F4946FF09FDBB7A700809E
:104194009387070F2324F4946FF09FDA930704EBBB
:1041A4002324F4946FF0DFD9832784932324F49495
:1041B4006FF01FD9832784922324F4946FF05FD87F
:1041C400B7D70080938707912324F4946FF05FD7C7
:1041D400B7A70080938707DB2324F4946FF05FD69E
:1041E400938701812324F4946FF09FD53795008041
:1041F4001305C519EF00D01813051000EFC08FFF89
:10420400379500801305C51FEF00901713051000A4
:10421400EFC04FFE3795008013050522EF005016BE
:1042240013051000EFC00FFD032644941306F6FF98
:104234008325C49403258497EFC01F82B7A7008009
:1042440083A7472113074006638EE702130750062E
:104254006394E724B7A700809387472103A7070146
:104264009307B01F6302F712B7A700809387472113
:1042740083A747001307900C638AE7121307800C87
:104284006382E720379500801305450FEF00500F38
:10429400379500801305452BEF00900EB7A70080DB
:1042A4009387472183A78700938737ED130700017E
:1042B4006364F720939727003797008013074739E3
:1042C400B387E70083A70700678007008325C494AA
:1042D40003258497EFD0CFB36FF05FF603264494A1
:1042E4008325C49403258497EFD01F8E6FF01FF5A8
:1042F4008325C49403258497EFD08FB16FF01FF406
:104304008326C49437960080130606248325449498
:1043140003258497EFD00F836FF05FF28325C49455
:1043240003258497EFD08F996FF05FF103264494AF
:104334008325C49403258497EFD08FFF6FF01FF07B
:104344008326449437960080130646249305F00090
:1043540013058496EFC01FFF6FF05FEE03264494AD
:104364001306F6FF8325C49403258497EFF0CF83C7
:104374006FF0DFEC379500801305C524EF00500083
:1043840013051000EFC00FE78326049383A70600EC
:104394001397870023A0E600370700011307F7FFF0
:1043A400B3F7E70023A0F6006FF01FECB7370080E7
:1043B400938787042324F494832784978324449243
:1043C400B387F440938757002322F494130504948D
:1043D400EFE09FDD032644941306F6FF8325C4947F
:1043E40003258497EFC04FE7938504003795008039
:1043F40013050527EF00C078B7A7008093874721EE
:1044040083A7C700130720196382E7066366F702D0
:10441400130700196382E70413071019E394E7E60E
:104424008327049203A707008327049383A7070025
:1044340023A0E7006FF01FE513073019E394E7E4C6
:10444400B7D7008003A707B48327049383A7070083
:1044540023A0E7006FF01FE38327049383A70700DB
:10446400032744EA23A0E7006FF0DFE183270493E6
:1044740083A7070037A70080032707D823A0E700F6
:104484006FF05FE08327049383A7070003278497D3
:1044940023A0E7006FF01FDF379500801305852800
:1044A400EF00006E13051000EFC0CFD41305000019
:1044B4008327C4EAE78007008320C16E0324816E4A
:1044C4008324416E0329016E8329C16D032A816D02
:1044D4001301016F678000009305000013050000BD
:1044E4008327C493E78007006FF01FFD832744935D
:1044F40083A707009305000013050000E780070069
:104504006FF09FFBB7A7008083A787D793050000B0
:1045140013050000E78007006FF01FFAB7D700808B
:1045240083A707F49305000013050000E780070044
:104534006FF09FF8130504EBEFE0DFE503258493A8
:10454400EFE05FE503258492EFE0DFE437D50080F8
:1045540013050591EFE01FE437A50080130505DB83
:10456400EFE05FE393050000130500008327C4A771
:10457400E78007006FF05FF48327C49283A70710D6
:104584009305000013050000E78007006FF0DFF2D9
:10459400B7D70080938707D683A707109305000039
:1045A40013050000E78007006FF01FF1B7A7008034
:1045B400938707FF83A707109305000013050000E6
:1045C400E78007006FF05FEFB7A70080938747216C
:1045D40083A7C700130720196380E7066364F70203
:1045E400130700196380E70413071019E396E7EC37
:1045F4008327C49183A5070003258497EFE0DFE5B3
:104604006FF09FEB13073019E398E7EAB7D7008000
:1046140083A707A483A5070003258497EFE0DFE3BE
:104624006FF09FE9832784EA83A507000325849715
:10463400EFE09FE26FF05FE8B7A7008083A7C7D7DA
:1046440083A5070003258497EFE01FE16FF0DFE601
:1046540003258497EFE09FE66FF01FE61380300098
:10466400130101FF23261100B7A700809387472178
:1046740083A747001307800C6386E7061307A00C83
:10468400638AE7081307B00C6388E70AB7A70080BA
:104694009387472183A78700938757EC130720004C
:1046A4006376F712B7A700809387472183A7C700D3
:1046B400130720196380E72C6368F71213070019A6
:1046C400638CE71413071019639CE710B7A70080E5
:1046D40003A74721930740066304F720130510003E
:1046E4006F00C01237A70080130747210327070173
:1046F4009306401FE304D7F89306C01FE300D7F8DE
:10470400379500801305853DEF00804713050000B1
:104714006F00C00F37A70080832647211307400688
:10472400E382E6F63795008013050542EF00404525
:10473400130500006F00800DB7A700809387472101
:1047440083A78700938657EC130720006364D7047C
:10475400938747EC130710006378F704B7A700802A
:104764009387472103A7C70093071019E31CF7F2A7
:10477400B7A7008003A7472193075006E314F7F275
:10478400379500801305054DEF00803F13050000A9
:104794006F00C0073795008013054546EF00403E83
:1047A400130500006F008006B7A7008003A7472108
:1047B40093075006E314F7FA37950080130545492B
:1047C400EF00003C130500006F00400437950080A3
:1047D40013058550EF00C03A130500006F00000375
:1047E400130510006F00800213073019639EE70061
:1047F400B7A7008003A74721930740066306F71273
:10480400130510006F008000130510008320C10001
:104814001301010167800000B7A7008003A74721A7
:10482400930740066306F700130510006FF01FFEA0
:10483400B7A700809387472183A78700938617ED46
:10484400130720006372D70413074013638EE70233
:1048540013076013638AE702130750136386E702A2
:10486400130780136382E70213079013638EE70034
:104874001307A013638AE7001307E0126380E702BB
:10488400130510006FF09FF8379500801305C55489
:10489400EF00002F130500006FF05FF7B7A700804B
:1048A4009387472183A70701938687E013071000A6
:1048B400637ED7001307B01F638AE7001307C01F86
:1048C4006386E700130510006FF05FF437950080EE
:1048D4001305455AEF00C02A130500006FF01FF3BB
:1048E400B7A700809387472183A78700938647ED66
:1048F400130720006370D702938707ED1307A00006
:10490400636CF7121307F06EB357F70093F71700B1
:10491400638807123795008013050563EF0040266E
:10492400130500006FF09FEEB7A70080938747211F
:1049340083A78700938647ED130720006372D7028D
:10494400138717ED9307B00063E0E710B717000073
:104954009387B7B7B3D7E70093F71700638A070EB7
:104964003795008013058568EF008021130500004A
:104974006FF0DFE9B7A7008083A74721130740063C
:10498400638AE70013075006638AE70413051000DF
:104994006FF0DFE737A7008013074721032787005D
:1049A400130647ED9306200063F0C602130717EDC4
:1049B4009306A000E3E8E6FC9306D07B33D7E60039
:1049C40013771700E30007FC379500801305856E05
:1049D400EF00001B130500006FF05FE3B7A7008032
:1049E4009387472103A78700930740136306F700C3
:1049F400130510006FF09FE1B7A70080938747214C
:104A040083A707011307401F6388E7041307601F88
:104A14006388E7041307C01F6396E70013051000BB
:104A24006FF0DFDE3795008013050574EF00401545
:104A3400130500006FF09FDD130510006FF01FDDFC
:104A4400130510006FF09FDC130510006FF01FDCDE
:104A5400130510006FF09FDB130510006FF01FDBD0
:104A6400130510006FF09FDA13803000130101EC7E
:104A7400232E1112EFF09FBE63000502930501007F
:104A84003735008013050500EFE01FE38320C113D1
:104A940013010114678000001305C0C7EFB09FF530
:104AA4001380300013802000130101FF232611001E
:104AB400B7A70080938747211307400623A0E70088
:104AC4001307A00C23A2E7001307C01223A4E700D6
:104AD4001307001923A6E7001307401F23A8E700C4
:104AE400B795008093850579379500801305C579BE
:104AF400EF000009EFE04FDFEFF01FF7379500807C
:104B04001305057BEF00C0078320C10013010101D9
:104B140067800000138030001305000067800000E8
:104B240013803000130101FF2326110083A7C181E4
:104B3400E78007008320C1001301010167800000A2
:104B44001380300023AEA180678000001380300002
:104B5400130101FF232611001306050093860500A7
:104B6400130700009305000037550080130545B274
:104B7400EF00501D8320C100130101016780000074
:104B840013803000130101FC232E11002322B102F3
:104B94002324C1022326D1022328E102232AF1027D
:104BA400232C0103232E1103930541022326B10074
:104BB400EFF0DFF98320C1011301010467800000D5
:104BC40013803000130101FF232611009307050011
:104BD400138505009305060013860600E780070089
:104BE400EF300073EF30807E138030001306050031
:104BF40003270500130500006F00C001931725006B
:104C0400B387A7009397170013071700B387D7003C
:104C1400138507FD83460700B79700809387D7D095
:104C2400B387F60083C7070093F74700E39807FCB0
:104C34002320E6006780000013803000130605007F
:104C440013850500930610006F0040068357060085
:104C540093E747002310F600638806041305150044
:104C64006F0080048357060093E787002310F60043
:104C74006FF09FFE8357060093E707012310F600A9
:104C84006FF09FFD8357060093E707022310F60099
:104C94006FF09FFC8357060093E707042310F60088
:104CA4006FF09FFB930600006388060283470500AC
:104CB400938707FE93F5F70F13070001E364B7FE2C
:104CC4009397250037A700801307C79DB387E70094
:104CD40083A70700678007008327060093F747042C
:104CE400130740046384E7006780000083570600CD
:104CF40093F7F7FB2310F6006FF01FFF13803000CB
:104D0400130101FE232E1100232C8100232A91007C
:104D1400130405002326B1008357050093E7070811
:104D24002310F5009384050003C705009307A00230
:104D34006304F7061305C100EFF01FEB8327C100DE
:104D44006380F4048357040093E707082310F400F6
:104D54002322A4008327040093D7170093F7170096
:104D64006348050413070000B3E7E70093971700AF
:104D7400035704001377D7FFB367F7002310F40039
:104D84000325C1008320C10103248101832441013F
:104D940013010102678000008357050093E70710A1
:104DA4002310F500138515002326A1006FF09FFD45
:104DB400130710006FF05FFB13803000130101FE36
:104DC400232E1100232C81002326B10003C70500E4
:104DD400130727FD93361700939696008357050013
:104DE40093F7F7DFB3E7D7002310F5006316070640
:104DF400130405008327C100138717002326E1004D
:104E040003C717009307A002630CF7041305C1003E
:104E1400EFF09FDD2324A4008327040093D7170019
:104E240093F71700634C050413070000B3E7E7008A
:104E340093971700035704001377D7FFB367F7005E
:104E44002310F4000325C1008320C1010324810140
:104E54001301010267800000138505006FF0DFFE77
:104E64008357050093E707402310F5000325C1008D
:104E7400130515002326A1006FF01FFD1307100072
:104E84006FF0DFFA138030001306050083C70500B6
:104E9400938747FB93F6F70F1307E002636AD7166D
:104EA4009397260037A70080130707A2B387E7006C
:104EB40083A70700678007001385150003C7150043
:104EC400930780066302F702835706003787FFFFC4
:104ED4001307F77FB3F7E70037170000B3E7E700DE
:104EE4002310F60067800000835706003787FFFF12
:104EF4001307F77FB3F7E70037170000130707809E
:104F0400B3E7E7002310F60013852500678000004F
:104F14001385150003C715009307C0066304F70241
:104F2400835706003787FFFF1307F77FB3F7E700C0
:104F34003727000013070780B3E7E7002310F600C4
:104F440067800000835706003787FFFF1307F77F4A
:104F5400B3F7E70037270000B3E7E7002310F600B4
:104F64001385250067800000835705003787FFFFFE
:104F74001307F77FB3F7E7003737000013070780FD
:104F8400B3E7E7002310F5001385150067800000E0
:104F9400835705003787FFFF1307F77FB3F7E70051
:104FA40037370000B3E7E7002310F5001385150039
:104FB40067800000835705003787FFFF1307F77FDB
:104FC400B3F7E7003747000013070780B3E7E700AC
:104FD4002310F50013851500678000008357050032
:104FE4003787FFFF1307F77FB3F7E7003747000062
:104FF400B3E7E7002310F500138515009397070125
:1050040093D7070193E727002310F6006780000079
:10501400835706003787FFFF1307F77FB3F7E700CF
:105024002310F6001385050067800000138030000C
:10503400130705001385150083C70500A301F700B6
:105044009306800763EAF6049306E00663FAD7083A
:105054009306900663E2F6049306800563E8D7049A
:10506400138687FA93061000B396C60037E600004D
:105074001306062033F6C60063180604371600002C
:105084001306168033F6C60063180610371602009E
:10509400B3F6C6006394060A8357070093E7170024
:1050A4002310F700930700006F00800C9306100490
:1050B400638CD700E3E2D7FE9387B7FB93F7F70F30
:1050C40093062000E3EAF6FC8347270093F787FF63
:1050D40093E747002301F700930710006F0040098E
:1050E400138627F993061000B396C60013F62648D4
:1050F400B335C0006312060A13F64602B337C00084
:10510400631A060C93F61600E38806F80346270094
:10511400137686FF136636002301C7000356070083
:10512400B7850000938505803376B600B745000047
:105134006310B604938706006F008003834627003C
:1051440093F686FF93E616002301D70083560700E3
:105154003786000013060680B3F6C6003746000003
:105164006386C60493063006638AD7049307000057
:105174008326070093D6160093F61600B3E7D700EC
:10518400939717008356070093F6D6FFB3E7F6000C
:105194002310F700678000008346270093F686FFFC
:1051A40093E626002301D7006FF05FFA83560700C9
:1051B40093E616002310D7006FF0DFFA8357070039
:1051C400B786000093860680B3F7D700B337F000A4
:1051D4006FF01FFA8346270093F686FF93E63600A6
:1051E4002301D70083560700378600001306068084
:1051F400B3F6C600E39E06F6938705006FF05FF7EB
:1052040013803000130101FF2326110023248100A1
:105214001304050023200500232205002324050090
:1052240083C71500130750026388E70493851500AC
:1052340013050400EFF05FA09305050013050400B7
:10524400EFF0DFAB9305050013050400EFF0DFB6C4
:105254009305050013050400EFF0DFC29305050074
:1052640013050400EFF09FDC8320C10003248100B8
:10527400130101016780000013852500A301F400D8
:105284006FF09FFE138030009307F006630CF50265
:1052940063FEA70093070007630AF50293078007DC
:1052A400631AF50213050001678000009307800567
:1052B4006306F5001305A0006780000013050001D4
:1052C400678000001305800067800000130500015B
:1052D400678000001305A000678000001380300081
:1052E400130101FD232611022324810223229102AA
:1052F40023202103232E3101232C4101232A510190
:1053040023286101232671012324810193090500C7
:1053140013840500130C0600938A06009304070007
:1053240003453600B79700809387D7D0B307F500BD
:1053340083CB070093FB3B00EFF0DFF41309050078
:105344006F00800493071000638AFB069377F50FC0
:105354009387770593F7F70F9384F4FF2380F40082
:105364001306090093060000138509009305040041
:10537400EFA01FE7636E4405630A8A0463FA9A0484
:105384009309050013840500130B0900130A000098
:105394001306090093060000138509009305040011
:1053A400EFB00FA793079000E3EEA7F89377F50FFC
:1053B4009387070393F7F70F6FF01FFA9377F50FAF
:1053C4009387770393F7F70F6FF01FF9E3F869FBFF
:1053D40083570C0093F70702638A07009307800042
:1053E4006300F904930700016304F90413850400BE
:1053F4008320C10203248102832441020329010280
:105404008329C101032A8101832A4101032B01015C
:10541400832BC100032C810013010103678000006A
:1054240083472C0093E787002301FC006FF01FFCE7
:1054340083472C0093E707012301FC006FF01FFB57
:10544400138030008327050093D7B70093F7F70044
:10545400130770006364F7069397270037A700804B
:105464001307C7ADB387E70083A70700678007006A
:1054740023A0C500678000002380C500678000006A
:105484002390C5006780000023A0C500678000004A
:105494009357F64123A0C50023A2F50067800000BE
:1054A4009357F64123A0C50023A2F50067800000AE
:1054B40023A0C5006780000023A0C500678000000A
:1054C40013803000130101FE232E1100232C8100D0
:1054D400232A910023282101232631012324410179
:1054E400130A0500938905001389060013040000BC
:1054F4006F0000029304160093850900034506001B
:10550400E7000A0063400502130414001386040034
:10551400E36226FF6316090083470600E39C07FC49
:10552400130504008320C101032481018324410164
:10553400032901018329C100032A81001301010207
:105544006780000013803000130101F8232E110638
:10555400232C8106232A9106232821072326310799
:10556400232441072322510723206107232E710599
:10557400232C81051309050093840500930A060072
:105584002326D1001304000003C50A006300057834
:1055940093075002630EF500938A1A009385040062
:1055A400E700090063460576130414006FF0DFFD7D
:1055B40023280100232A0100232C0100232E0100AB
:1055C40023200102232201022324010223260102B3
:1055D40093850A0013050102EFF09FC293090500A9
:1055E4008357010213F707106302070C8327C100D6
:1055F400138747002326E10003AA0700634E0A0825
:105604008357010213F707406308070C8327C1007F
:10561400138747002326E10003AB070063440B0A0A
:1056240023220102232401028327010213D7070145
:105634001377770093D7B70093F7F70093860700A3
:10564400130610006306C70A130620006300C71E72
:1056540093074000630AF72C930730006308F7327E
:105664008327010293F73700639E07328347310291
:105674009387B7FD93F6F70F13073005636AD74C8A
:105684009397260037A70080130747B0B387E70036
:1056940083A70700678007008357010293E7470049
:1056A4002310F102330A40416FF09FF593F7070886
:1056B40063860700032A41026FF09FF4130AF0FF88
:1056C4006FF01FF48357010293F7F7DF2310F10201
:1056D400130BF0FF6FF0DFF493F7072063860700E6
:1056E400032B81026FF0DFF3130BF0FF6FF05FF316
:1056F40013075000638EE70E636EF7021307300042
:105704006382E70A13074000639EE7048327C1000E
:105714009387770093F787FF138787002326E10099
:1057240003A7070083A747002328E100232AF100E9
:105734006F0000059387A70093F7F7001307100085
:105744006362F7028327C100138747002326E10021
:1057540083A7070013D7F7412328F100232AE10088
:105764006F0000028327C100138747002326E1004E
:1057740083A7070013D7F7412328F100232AE10068
:1057840093071000638AF60893072000E39AF6EC67
:105794008317010113D7F7412328F100232AE100DD
:1057A4006FF01FEC03473102930730066302F702E0
:1057B4008327C100138747002326E10083A707003E
:1057C40013D7F7412328F100232AE1006FF05FFB90
:1057D4008327C100138747002326E10083A707001E
:1057E40013D7F7412328F100232AE1006FF05FF972
:1057F4008327C1009387770093F787FF1387870078
:105804002326E10003A7070083A747002328E1001C
:10581400232AF1006FF0DFF68307010113D7F74164
:105824002328F100232AE1006FF09FE313075000BF
:105834006380E70C636EF70213073000638CE7089C
:1058440013074000639CE7048327C1009387770014
:1058540093F787FF138787002326E10003A7070038
:1058640083A747002328E100232AF1006F00800466
:105874009387A70093F7F700130710006360F702FC
:105884008327C100138747002326E10083A707006D
:105894002328F100232A01006F00C0018327C100DF
:1058A400138747002326E10083A707002328F1007C
:1058B400232A0100930710006380F6069307200053
:1058C400E390F6DA835701012328F100232A01002B
:1058D4006FF01FD98327C100138747002326E100F7
:1058E40083A707002328F100232A01006FF09FFCFF
:1058F4008327C1009387770093F787FF1387870077
:105904002326E10003A7070083A747002328E1001B
:10591400232AF1006FF01FFA834701012328F100C5
:10592400232A01006FF0DFD3930780006386F60219
:105934008327C1009387770093F787FF1387870036
:105944002326E10003A7070083A747002328E100DB
:10595400232AF1006FF0DFD08327C10013874700AB
:105964002326E10083A7070003A6070083A64700B8
:1059740003A7870083A7C7002328C100232AD100D7
:10598400232CE100232EF1006FF09FCD8327C1006B
:10599400138747002326E10083A707002328F1008B
:1059A4006FF01FCC9386090013860A0093850400C8
:1059B40013050900EFF0DFB0634C05343304A40091
:1059C400938A09006FF05FBC9385040013055002AD
:1059D400E7000900634E053213041400930B000022
:1059E400130BE104930A00006F004017832A01019E
:1059F400634E0B0093050B0013850A00EFC0CFA77D
:105A0400338BAA00930B00006F00401513850A0026
:105A1400EFB05FE16FF0DFFE83270101230CF10299
:105A2400930B0000130B9103930A81036F0000137F
:105A34008357010213F78700631A070093F70701DE
:105A440063940702930B00006F008000930BB00275
:105A5400032701018327410163CC07002328E100C8
:105A6400232AF1006F000003930B00026FF05FFE26
:105A7400B306E0403337E000B307F040B387E740B4
:105A84002328D100232AF100930BD0026F00800059
:105A9400930B00001307E10493068103130601022C
:105AA4000325010183254101EFF05F83930A05007B
:105AB40063460B129307E104B3875741035701026E
:105AC4001377F7FB2310E10263FE6711B307FB4072
