:0200000480007A
:1000000097C100009381012797020000938242016B
:08001000739052306F004000B4
:04001800EF30901520
:10001C00130101FB232251002324610023267100CC
:10002C002328C101232AD101232CE101232EF10124
:10003C002320A1022322B1022324C1022326D102B0
:10004C002328E102232AF102232C0103232E11037E
:10005C00232011002324810417940000130444F579
:10006C00F322103423205104F32300302322710493
:10007C00EF00C014631A0504F3222034B703008088
:10008C009383F3FFB3F272001303B000638A620030
:10009C0013050100970000009380C00B6F305006D1
:1000AC0083220104938242002320510483224100C5
:1000BC0063860200130530006F00800003250102E7
:1000CC00930501006F30D002032304009303130047
:1000DC0023207400631A03009302010003214400DF
:1000EC00130101FF2320510073252034B702008037
:1000FC009382F2FF33755500EF00400B97720000AE
:10010C009382426813153500B382A20003A5020046
:10011C0003A34200E7000300832304009383F3FF4F
:10012C0023207400639603020321010083258400BD
:10013C00130101FF2320B10013050000EF50001C38
:10014C00832501001301010163040500EF30500900
:10015C00832201047390123483234104F3920330FD
:10016C000324810483224100032381008323C100E3
:10017C00032E0101832E4101032F8101832FC10125
:10018C000325010283254102032681028326C10235
:10019C000327010383274103032881038328C10319
:1001AC00832001001301010573002030130310009C
:1001BC00B312A30073B3423467800000F3222034DF
:1001CC0037030080B3F26200130500006384020061
:0801DC00130515006780000007
:1001E4009308050013830500130706001308050090
:1001F4009387050063920628B785008093858599C7
:100204006376C30EB70601006378D60C93360610E6
:1002140093C61600939636003355D600B385A500D1
:1002240083C5050013050002B386D500B305D54088
:10023400630CD500B317B300B3D6D8003317B60098
:10024400B3E7F6003398B8009355070133D3B702E8
:100254001316070113560601B3F7B702130503007B
:10026400B30866029396070193570801B3E7D700D2
:1002740063FE1701B307F7001305F3FF63E8E70014
:1002840063F617011305E3FFB387E700B38717414C
:10029400B3D8B7021318080113580801B3F7B7020B
:1002A400B3061603939707013368F8009387080091
:1002B400637CD800330807019387F8FF6366E8007E
:1002C4006374D8009387E8FF131505013365F500BF
:1002D40093050000678000003705000193060001C4
:1002E400E36CA6F2930680016FF01FF393060000FF
:1002F400630C0600B70701006370F60C9336061012
:1003040093C6160093963600B357D600B385F5000E
:1003140083C70500B387D70093060002B385F64070
:100324006396F60AB307C340930510009358070178
:1003340033DE1703131607011356060193560801FB
:10034400B3F7170313050E003303C603939707018E
:10035400B3E7F60063FE6700B307F7001305FEFF7B
:1003640063E8E70063F667001305EEFFB387E70071
:10037400B387674033D317031318080113580801D0
:10038400B3F71703B3066602939707013368F800BF
:1003940093070300637CD800330807019307F3FF36
:1003A4006366E8006374D8009307E3FF131505013F
:1003B4003365F50067800000B7070001930600016C
:1003C400E364F6F4930680016FF01FF43317B6006C
:1003D400B356F300135507013313B300B3D7F80032
:1003E400B3E7670033D3A6021316070113560601B9
:1003F4003398B800B3F6A602B308660293950601D3
:1004040093D60701B3E6B6009305030063FE160115
:10041400B306D7009305F3FF63E8E60063F616011D
:100424009305E3FFB386E600B3861641B3D8A6026C
:100434009397070193D70701B3F6A6023306160371
:1004440093960601B3E7D7009386080063FEC700BE
:10045400B307F7009386F8FF63E8E70063F6C70085
:100464009386E8FFB387E70093950501B387C740F8
:10047400B3E5D5006FF09FEB63E6D518B70701002D
:1004840063F4F60413B70610134717001317370065
:10049400B7870080B3D5E60093878799B387B70001
:1004A40083C70700B387E70013070002B305F740CB
:1004B4006316F70213051000E3EE66E033B5C800D7
:1004C4001345150067800000B707000113070001FA
:1004D400E3E0F6FC130780016FF09FFB3357F6004F
:1004E400B396B600B366D7003357F3003313B300A3
:1004F400B3D7F800B3E7670013D30601B35E67020E
:1005040013980601135808013316B60033776702AF
:10051400330ED8031315070113D707013367A70058
:1005240013850E00637EC7013387E6001385FEFF43
:100534006368D7006376C7011385EEFF3307D700DE
:100544003307C741335E67029397070193D70701C7
:10055400337767023308C80313170701B3E7E700CB
:1005640013070E0063FE0701B387F6001307FEFFAF
:1005740063E8D70063F607011307EEFFB387D700DC
:1005840013150501370E01003365E5009306FEFFE0
:100594003377D500B3870741B376D60013580501E6
:1005A400135606013303D702B306D8023307C70232
:1005B4003308C8023306D700135703013307C700B3
:1005C4006374D7003308C80193560701B386060144
:1005D40063E6D702E39ED7CEB70701009387F7FF00
:1005E4003377F700131707013373F300B398B80098
:1005F4003307670093050000E3FEE8CC1305F5FF1D
:100604006FF01FCD93050000130500006780000004
:100614001308060093070500138705006396062058
:10062400B78800809388889963FCC50CB7060100DD
:10063400637ED60A9336061093C616009396360048
:100644003353D600B388680083C80800130300023C
:10065400B386D800B308D340630CD3003397150195
:10066400B356D5003318160133E7E600B317150166
:1006740013560801B356C702131508011355050193
:100684003377C702B386A6029315070113D7070170
:100694003367B700637AD7003307E800636607015E
:1006A4006374D700330707013307D740B356C70233
:1006B4003377C702B386A60293970701131707017E
:1006C40093D70701B3E7E70063FAD700B307F8004D
:1006D40063E6070163F4D700B3870701B387D74004
:1006E40033D517019305000067800000370300012C
:1006F40093060001E36666F4930680016FF05FF4ED
:1007040093060000630C060037070100637EE606CB
:100714009336061093C61600939636003357D600C8
:10072400B388E80003C708003307D7009306000224
:10073400B388E6406394E6063387C54093550801C1
:100744003356B702131508011355050193D6070153
:100754003377B7023306A6021317070133E7E6001F
:10076400637AC7003307E800636607016374C70050
:10077400330707013307C740B356B7023377B702CD
:10078400B386A6026FF05FF33707000193060001FA
:10079400E366E6F8930680016FF05FF833181601FC
:1007A400B3D6E500B3171501B39515013357E5002A
:1007B400135508013367B700B3D5A6021313080114
:1007C40013530301B3F6A602B3856502139606011B
:1007D40093560701B3E6C60063FAB600B306D80021
:1007E40063E6060163F4B600B3860601B386B64039
:1007F40033D6A6021317070113570701B3F6A6024F
:1008040033066602939606013367D700637AC700FE
:100814003307E800636607016374C7003307070101
:100824003307C7406FF09FF163E4D51C370801001C
:1008340063FE060513B80610134818001318380091
:10084400B788008033D3060193888899B3886800F9
:1008540083C8080013030002B38808013308134156
:100864006310130563E4B600636CC5003306C5402A
:10087400B386D5403337C500930706003387E64077
:10088400138507009305070067800000B70800017F
:1008940013080001E3E616FB130880016FF05FFA0A
:1008A400B3571601B3960601B3E6D70033D7150143
:1008B40013DE0601335FC7031393060113530301C9
:1008C400B3970501B3551501B3E5F50093D70501B9
:1008D40033160601331505013377C703B30EE3035B
:1008E40013170701B3E7E70013070F0063FED701EF
:1008F400B387F6001307FFFF63E8D70063F6D70159
:100904001307EFFFB387D700B387D741B3DEC7031D
:100914009395050193D50501B3F7C703138E0E0014
:100924003303D30393970701B3E5F50063FE650032
:10093400B385B600138EFEFF63E8D50063F6650049
:10094400138EEEFFB385D50093170701370F01000F
:10095400B3E7C701B38565401303FFFF33F76700AF
:10096400135E060193D7070133736600B30E670263
:10097400338367023307C703B387C703330E6700A4
:1009840013D70E013307C70163746700B387E70108
:1009940013530701B307F300370301001303F3FFF5
:1009A4003377670013170701B3FE6E003307D701CF
:1009B40063E6F500639EF500637CE5003306C740FB
:1009C4003333C700B306D30013070600B387D740F9
:1009D4003307E5403335E500B385F540B385A540DD
:1009E400B39815013357070133E5E800B3D5050182
:1009F4006780000013030500630E0600838305006F
:100A0400230073001306F6FF1303130093851500E8
:100A1400E31606FE6780000013030500630A060060
:100A24002300B3001306F6FF13031300E31A06FEB4
:100A340067800000232015002322850023249500CD
:100A44002326250123283501232A4501232C55017A
:100A5400232E650123207503232285032324950374
:100A64002326A5032328B503232A25021305000002
:100A7400678000008320050003244500832485004B
:100A84000329C50083290501032A4501832A850119
:100A9400032BC501832B0502032C4502832C8502FD
:100AA400032DC502832D05030321450313B515004A
:100AB4003305B50067800000630C060213030500CC
:100AC40093061000636AB5009306F0FF1307F6FF60
:100AD4003303E300B385E50083830500230073003B
:100AE4001306F6FF3303D300B385D500E31606FEE1
:100AF4006780000013803000130101FF23261100DA
:100B040037850080130585A9EF10D0361305000042
:100B14008320C100130101016780000013803000AD
:100B2400130101FF2326110037850080130585AAD0
:100B3400EF10503413050000EF509017138030006D
:100B4400130101FF2326110037850080130545ADED
:100B5400EF10503213050000EF5090151380300051
:100B6400130101FF23261100378500801305C5AF4B
:100B7400EF10503013050000EF5090131380300035
:100B8400930705FD93F7F70F130790006378F702B7
:100B94009307F5F993F7F70F13075000636EF70205
:100BA400130595FAB7C7008013152500938747935B
:100BB400B387A70003A5070067800000130505FDA0
:100BC400B7C700801315250093874793B387A70001
:100BD40003A507006780000013050000678000007C
:100BE40013803000130101FF232611003785008094
:100BF4001305C5B1EF101028B7970080938747F706
:100C040003A507001305C5F983A54700938585F35C
:100C140003A68700130646ED83A6C700938606E75E
:100C240003A707011307C7E0B7C7008013172700FE
:100C340093874797B387E70037C7008093962600CA
:100C4400130787993307D700B7C600801316260009
:100C54009386869AB386C60037C60080939525008E
:100C64001306069F3306B6001315250093854181AC
:100C7400B385A50083A707000327070083A6060002
:100C84000326060083A5050037850080130505B3F8
:100C9400EF10501E8320C100130101016780000082
:100CA40013803000130101FF232611002324810047
:100CB400232291002320210113040500B79700800B
:100CC400938747F783A747001307A00C6368F702CD
:100CD4001307900C63F6E7041307800C639EE70484
:100CE400032745009307F00063FAE718B7940080E0
:100CF400938484F81309C0006F0000041307B00C38
:100D0400639CE702B7970080938747F783A7870020
:100D14001307C0136380E7101307D0136382E7102F
:100D2400032744009307300063FEE714B784008070
:100D3400938484B71309000003254400EF50407BDB
:100D44002326A400630205121306090093850400F8
:100D5400EFF05FCA83244400B38424419384B4FF36
:100D64000325C400138604009305100433052501EC
:100D7400EFF09FCA9385040037850080130545BAB8
:100D8400EF10500F8325840037850080130585BB41
:100D9400EF10500EB7970080938747F703A787009B
:100DA4009307C0136308F7028327C400330999002B
:100DB400B387270183458400034694008346A40037
:100DC4000347B4002380B700A380C7002381D70062
:100DD400A381E7008327C400032744001307F7FF18
:100DE400B387E700238007008325C400378500808C
:100DF4001305C5BCEF101008130510008320C100B3
:100E0400032481008324410003290100130101010B
:100E140067800000130750102322E5006FF0DFEF16
:100E2400832744009387C7012322F4000327C400C7
:100E34002300F7008327440093D787000327C400C7
:100E4400A300F7008327C400130710042381E700DD
:100E54008327C400A3810700930740002322F400E2
:100E6400130510006FF09FF937850080130505B84E
:100E7400EF105000130500006FF05FF81305000039
:100E84006FF0DFF7130500006FF05FF71380300099
:100E9400130101FF2326110093057045EFF09FBD58
:100EA400138030006F00800103C705002300E500B4
:100EB4009385150013051500138607009307F6FFA5
:100EC400E31406FE6780000013803000130101BFA5
:100ED4002326114023248140130405003785008014
:100EE4001305C5BDEF100079232024008320C140E1
:100EF4000324814013010141678000001380300006
:100F0400130101FF232611002324810023229100D1
:100F140093840500EF5050231374F50F1305040058
:100F2400EF50005DB384A4401304F4FF33749400C1
:100F340033058500930710FA2300F5008320C100D0
:100F44000324810083244100130101016780000010
:100F540013803000130101FE232E11002326B1005B
:100F6400B7970080938747F703A787009307C013B9
:100F74006302F7028327C100639407023785008068
:100F8400130545BFEF10006F8320C1011301010257
:100F9400678000009305C100EFF05FF66FF09FFDDE
:100FA40037850080130585C0EF10C06C1305000061
:100FB400EF50005013803000130101FF232611006D
:100FC40023248100232291002320210113040500FE
:100FD400834405008347150093978700B384F40086
:100FE4009394040193D4040113850400EF504050FA
:100FF400130905001386040093052400EFF09F9F56
:10100400130400006F0000011304140013140401FE
:101014001354040163729402B307890083C5070063
:101024009307F001E3F2B7FE37850080130545C34B
:10103400EF1040646FF05FFD37850080130505BF36
:10104400EF1040638320C100032481008324410006
:10105400032901001301010167800000138030009F
:10106400130101FF2326110023248100130405002A
:101074009386050037860080130686C39305900087
:10108400EF504071930700006F00800093871700B2
:10109400130780006340F7023307F4000346070098
:1010A40093060002E314D6FE930600032300D70040
:1010B4006FF0DFFD8320C1000324810013010101CF
:1010C4006780000013803000130101FF93D785016E
:1010D4002306F10093D70501A306F10093D78500F9
:1010E4002307F100A307B100130730006F0040028B
:1010F40093073000B387E740B307F5009306070171
:10110400B386260083C6C6FF2380D7001307F7FFE4
:10111400E35007FE130101016780000013803000D3
:10112400130101F6232E1108232C8108232A910888
:10113400232821092326310993040500232A0106C3
:10114400232C0106230E010623280106232401066D
:101154002316010623220104232401042326010467
:1011640023280104232A0104232C0104232E01042F
:101174002320010623020106232001022322010267
:10118400232401022326010223280102232A010227
:10119400232C0102232E010223000104232A01002F
:1011A400232C0100230E0100232401002326010027
:1011B40023080100B7150080938505B2B717000016
:1011C40093870780B3F7F500638A0704B725008087
:1011D400938505B213054107EFF05FE8130630006D
:1011E4009305910713050107EF50500213065000B1
:1011F4009305410713058106EF50500113060001C2
:1012040093050000378500801305C5C3EF50D01B3C
:1012140013090500130400006F0080031305410740
:10122400EFF0DFE36FF09FFB93070408B387270019
:1012340003C587FEEFF09F94930505009306100203
:101244001306400013054104EF50407613041400C4
:1012540093074000E3DA87FC13061002B785008089
:10126400938585C413054104EF50C0601306200024
:101274009305000013054104EF5010159309050070
:101284009305050013054101EFF05FDD1304000031
:101294006F00C00293070408B387270003C507FF44
:1012A400EFF0DF8D9305050093061002130640004E
:1012B40013050102EF50806F1304140093072000FC
:1012C400E3DA87FC13061002B7850080938585C591
:1012D40013050102EF50005A130620009305000085
:1012E40013050102EF50500E130405009305050089
:1012F40013058100EFF09FD6938509001385040040
:10130400EFF05FDC9305040013854400EFF09FDBEE
:101314009305090013858400EFF0DFDA9385090053
:1013240013054101EFF09FD39305040013058100D9
:10133400EFF0DFD237850080130505C7EF10803347
:101344009306410113068106B78500809385C5C9BC
:1013540037850080130585CAEF10C03193068100DC
:1013640013060107B7850080938585CB37850080F8
:10137400130585CCEF100030378600801306C6C3F2
:10138400B7850080938585CD37850080130505CE0C
:10139400EF10402E8320C1090324810983244109CD
:1013A400032901098329C1081301010A6780000088
:1013B40013803000130101912326116E2324816EC2
:1013C4002322916E2320216F232E316D232C416D16
:1013D4001304016F232EA492232CB492130600024B
:1013E400B7B5008093850571130504E8EF50804F6D
:1013F400B7140080938484AF232E94A61305401061
:10140400EF50000F2326A4922320951013054010BB
:10141400EF50000E9304050013054010EF50400DEB
:101424001309050013054010EF50800C130A050042
:1014340013054000EF50C00B232A0492638804086C
:101444009309050063040908B79700801307100681
:10145400238AE7E613060002B7B500809385057179
:1014640037950080130545E5EF50C0473795008058
:10147400130585F8EFF09FCAB7970080938747F765
:1014840083A7C700130720196386E726636AF70456
:10149400130700196382E70A13071019639EE70C08
:1014A400B7970080938747F783A7870013078013B4
:1014B4006388E71663E42419378500801305C5D1D2
:1014C400EF10401B13051000EF40907E378500801D
:1014D4001305C5CFEF10001A13051000EF40507D1F
:1014E40013073019639AE708B7970080938747F783
:1014F40083A78700130790136386E71A1307101353
:10150400638AE71A1307B0136386E71AB7B7008034
:1015140093870773232CF496B7970080938747F734
:1015240003A747009307B00C6306F71A2324949289
:10153400232A94926F004004B7970080938747F75B
:1015440083A78700130770136386E7081307E01265
:101554006380E70A930704A8232CF496B7970080C6
:10156400938747F703A747009307B00C6300F70A74
:1015740023249492232A9492032744936308070014
:10158400B7170080938787AF2320F700B7970080B1
:1015940083A747F7130740066388E71E130750061F
:1015A4006384E736B7970080938747F783A787005C
:1015B4009387E7EC13074000636AF7449397270087
:1015C40037870080130707EDB387E70083A7070079
:1015D4006780070037970080832647F71307400684
:1015E400E396E6F69307C497232CF4966FF01FF75F
:1015F400B797008003A747F793074006E31CF7F467
:1016040013058497EFF05F8C6FF05FF5930704EA9E
:101614002324F4EA23249492232A94926FF0DFF58E
:1016240037970080832647F713074006E394E6E8DC
:101634008327C492232CF4966FF01FF4E37E49E7CA
:10164400232C949623202493232E44911307D01300
:10165400638EE7021309000013054000EF40506950
:10166400232AA49213050013EF4090683797008053
:10167400130747F7832647001307B00C638EE60E63
:101684002324A492232824936FF01FEF1306401001
:10169400B7B500809385057113050900EF508024C8
:1016A4006FF09FFBB7C7008093870783232CF496C2
:1016B4006FF09FECB797008003A747F793074006A6
:1016C400E316F7E4B7C70080938787A7232CF49623
:1016D4006FF09FE4B7C7008023AA07A6938747A7A4
:1016E40037B700802328F75023249492232A949216
:1016F4006FF09FE8B7970080938747F703A78700A9
:101704009307A0136306F704B7970080938747E70E
:10171400232CF496B797008023AA07ACB717008050
:10172400938787AF379700802328F7AC37970080DB
:101734002326F7ACB7970080938747F703A74700A2
:101744009307B00C630EF700232A94926FF0DFE244
:10175400B7970080938707D5232CF4966FF0DFE1C9
:1017640037970080B7970080938747AD2326F7AC5F
:10177400232A94926FF05FE02324A49223282493D5
:10178400232E34916FF05FDFB7970080938747F77C
:1017940083A78700938747ED13071001E364F7E0FD
:1017A4009397270037870080130747EEB387E70036
:1017B40083A70700678007009307C4FF2328F492D8
:1017C4006FF05FDE9307C4932328F4926FF09FDDDC
:1017D400832744932328F4926FF0DFDCB7970080CB
:1017E400938787AC2328F4926FF0DFDBB7C70080C0
:1017F400938707A72328F4926FF0DFDA930704EBAB
:101804002328F4926FF01FDA832784932328F49219
:101814006FF05FD9832784922328F4926FF09FD8C6
:10182400B7B700809387073E2328F4926FF09FD7C1
:10183400B7970080938707B12328F4926FF09FD65F
:101844009307C4A72328F4926FF0DFD58327C492AB
:10185400938707102328F4926FF0DFD4B7C7008072
:10186400938707932328F4926FF0DFD3B797008010
:10187400938707E52328F4926FF0DFD2B7970080AF
:10188400938747F783A7C700130720196384E70EDC
:10189400636EF700130700196386E70E1307101928
:1018A400E392E7D0232834936FF0DFCF1307301986
:1018B400E39AE7CEB7C70080938747A72328F4921B
:1018C4006FF05FCEB7970080938747F783A7C70071
:1018D40013072019638EE70A636CF70013070019D6
:1018E400E392E7CC930704E82328F4926FF09FCBAC
:1018F40013073019E398E7CAB7B7008093870771D5
:101904002328F4926FF01FCAB7970080938747F794
:1019140083A7C700130720196384E7086364F702E9
:1019240013070019638CE70813071019E39CE7C633
:10193400832704922322F4928327C4912328F492C8
:101944006FF05FC613073019E39EE7C4B7B7008092
:10195400938707612322F492B7B7008093870751D6
:101964002328F4926FF01FC49307C4EA2328F49247
:101974006FF05FC3B7970080938747AD2328F49235
:101984006FF05FC2930704EA2328F4926FF09FC1BB
:10199400B7970080938747E52328F4926FF09FC0A0
:1019A400B7970080938707AD2322F492B7970080FE
:1019B4009387C7AC2328F4926FF0DFBE930744EA01
:1019C4002322F492930784EA2328F4926FF09FBDB4
:1019D400130504EBEFF00F8663180500930704EB7F
:1019E4002328F4946F00800237850080130505D501
:1019F400EF0050486F00C05B03258493EFF08F83A2
:101A04006310050C930784932328F4949307C4FF6D
:101A14002322F496B7970080938747F703A74700DC
:101A24002320E49483A7070093064006638CD7120F
:101A3400130750066382E71A8324049393850400F2
:101A440037850080130585DCEF00D0428325849719
:101A5400378500801305C5DDEF00D04183258497C9
:101A640063FC9528B385B440938555002322B49430
:101A7400378500801305C5DEEF00D03F83278497A8
:101A84002380070013050494EFF08FA16300052859
:101A9400B7970080938747F783A707019387C7E029
:101AA400130780006364F73C93972700378700800F
:101AB4001307C7F2B387E70083A70700678007000F
:101AC40037850080130505D5EF00D03A6FF09FF3FA
:101AD40003258492EFE01FF6631A0500832784929E
:101AE4002328F494232A04946FF05FF2378500804E
:101AF400130505D5EF0010386F00804B37B5008013
:101B04001305053EEFE01FF3631C0500B7B7008023
:101B14009387073E2328F494232A04946FF01FEF3D
:101B240037850080130505D5EF00D0346F00404899
:101B340037950080130505B1EFE0DFEF631C050066
:101B4400B7970080938707B12328F494232A049439
:101B54006FF0DFEB37850080130505D5EF0090317A
:101B64006F0000459307A00C6300F70463E2E702EB
:101B74009307800C6302F7049307900C6314F70433
:101B8400B7170080938707B42324F4946FF0DFEA37
:101B94009307B00C6318F702B7C7ADDE9387F7EE6F
:101BA4002324F4946FF05FE9B7170080938707B696
:101BB4002324F4946FF05FE8832784972324F49418
:101BC4006FF09FE737850080130505D8EF00902A52
:101BD40013051000EF40D00DB7970080938747F7A7
:101BE40083A78700938747ED13071001636CF70EF3
:101BF4009397270037870080130707F5B387E7001B
:101C040083A70700678007009307C4FF2324F49485
:101C14006FF09FE29307C4EA2324F4946FF0DFE1AA
:101C24009307C4932324F4946FF01FE18327449310
:101C34002324F4946FF05FE0B7970080938787AC18
:101C44002324F4946FF05FDFB7C70080938707A75E
:101C54002324F4946FF05FDE9307C4A72324F49441
:101C64006FF09FDD8327C492938707102324F49495
:101C74006FF09FDCB7C70080938707932324F49405
:101C84006FF09FDBB7970080938707E52324F494D4
:101C94006FF09FDA930704EB2324F4946FF0DFD9F9
:101CA400832784932324F4946FF01FD98327849289
:101CB4002324F4946FF05FD8B7B700809387073E6E
:101CC4002324F4946FF05FD7B7970080938707B10C
:101CD4002324F4946FF05FD6938701812324F49432
:101CE4006FF09FD537850080130505DAEF00901853
:101CF40013051000EF40C07B37850080130505E015
:101D0400EF00501713051000EF40807A37850080EC
:101D1400130545E2EF00101613051000EF4040795B
:101D2400032644941306F6FF8325C494032584975D
:101D3400EFE05FCCB797008083A747F7130740060F
:101D4400638EE702130750066394E724B797008075
:101D5400938747F703A707019307B01F6302F7129E
:101D6400B7970080938747F783A747001307900C22
:101D7400638AE7121307800C6382E72037850080AB
:101D8400130585CFEF00100F37850080130585EB11
:101D9400EF00500EB7970080938747F783A787001B
:101DA400938737ED130700016364F72093972700A7
:101DB40037870080130787F9B387E70083A70700F5
:101DC400678007008325C49403258497EF40D02FB0
:101DD4006FF05FF6032644948325C4940325849707
:101DE400EF40D0426FF01FF58325C49403258497F8
:101DF400EF40902D6FF01FF48326C4943786008043
:101E0400130646E48325449403258497EF409018F1
:101E14006FF05FF28325C49403258497EF40D022AA
:101E24006FF05FF1032644948325C49403258497BB
:101E3400EF4050336FF01FF08326449437860080C0
:101E4400130686E49305F00013058496EF4090147E
:101E54006FF05FEE032644941306F6FF8325C494C3
:101E640003258497EFF0CF836FF0DFEC3785008094
:101E7400130505E5EF00100013051000EF40406363
:101E84008326049383A706001397870023A0E60004
:101E9400370700011307F7FFB3F7E70023A0F600A5
:101EA4006FF01FECB7170080938707B42324F494D2
:101EB4008327849783244492B387F44093875700FD
:101EC4002322F49413050494EFE09FDD0326449445
:101ED4001306F6FF8325C49403258497EFE09FB18E
:101EE4009385040037850080130545E7EF0080786B
:101EF400B7970080938747F783A7C7001307201974
:101F04006382E7066366F702130700196382E70436
:101F140013071019E394E7E68327049203A7070045
:101F24008327049383A7070023A0E7006FF01FE52E
:101F340013073019E394E7E4B7B7008003A70761F8
:101F44008327049383A7070023A0E7006FF01FE310
:101F54008327049383A70700032744EA23A0E70009
:101F64006FF0DFE18327049383A70700379700808E
:101F7400032707AD23A0E7006FF05FE083270493F6
:101F840083A707000327849723A0E7006FF01FDFD0
:101F9400378500801305C5E8EF00C06D13051000F8
:101FA400EF400051130500008327C4EAE7800700CF
:101FB4008320C16E0324816E8324416E0329016E44
:101FC4008329C16D032A816D1301016F67800000AD
:101FD40093050000130500008327C493E7800700DE
:101FE4006FF01FFD8327449383A707009305000028
:101FF40013050000E78007006FF09FFBB797008090
:1020040083A787AC9305000013050000E780070051
:102014006FF01FFAB7C7008083A707A793050000D6
:1020240013050000E78007006FF09FF8130504EB29
:10203400EFE0DFE503258493EFE05FE50325849279
:10204400EFE0DFE437B500801305053EEFE01FE461
:1020540037950080130505B1EFE05FE393050000B9
:10206400130500008327C4A7E78007006FF05FF41F
:102074008327C49283A7071093050000130500006B
:10208400E78007006FF0DFF2B7C70080938707830C
:1020940083A707109305000013050000E7800700DD
:1020A4006FF01FF1B7970080938707D583A70710B8
:1020B4009305000013050000E78007006FF05FEF51
:1020C400B7970080938747F783A7C70013072019A2
:1020D4006380E7066364F702130700196380E7046B
:1020E40013071019E396E7EC8327C49183A507002F
:1020F40003258497EFE0DFE56FF09FEB13073019BA
:10210400E398E7EAB7B7008083A7075183A50700E0
:1021140003258497EFE0DFE36FF09FE9832784EAE8
:1021240083A5070003258497EFE09FE26FF05FE843
:10213400B797008083A7C7AC83A5070003258497BE
:10214400EFE01FE16FF0DFE603258497EFE09FE601
:102154006FF01FE613803000130101FF23261100E6
:10216400B7970080938747F783A747001307800C2E
:102174006386E7061307A00C638AE7081307B00C0D
:102184006388E70AB7970080938747F783A7870098
:10219400938757EC130720006376F712B7970080F4
:1021A400938747F783A7C700130720196380E72C99
:1021B4006368F71213070019638CE71413071019E7
:1021C400639CE710B797008003A747F7930740067F
:1021D4006304F720130510006F00C01237970080C6
:1021E400130747F7032707019306401FE304D7F8B3
:1021F4009306C01FE300D7F8378500801305C5FD9B
:10220400EF004047130500006F00C00F37970080B0
:10221400832647F713074006E382E6F637850080F6
:1022240013054502EF000045130500006F00800D03
:10223400B7970080938747F783A78700938657EC67
:10224400130720006364D704938747EC1307100037
:102254006378F704B7970080938747F703A7C7000D
:1022640093071019E31CF7F2B797008003A747F709
:1022740093075006E314F7F2378500801305450DE4
:10228400EF00403F130500006F00C0073785008052
:1022940013058506EF00003E130500006F0080065D
:1022A400B797008003A747F793075006E314F7FA9C
:1022B4003785008013058509EF00C03B1305000036
:1022C4006F004004378500801305C510EF00803A85
:1022D400130500006F000003130510006F00800257
:1022E40013073019639EE700B797008003A747F7E9
:1022F400930740066306F712130510006F00800071
:10230400130510008320C100130101016780000040
:10231400B797008003A747F7930740066306F700C3
:10232400130510006FF01FFEB7970080938747F7DF
:1023340083A78700938617ED130720006372D704E1
:1023440013074013638EE70213076013638AE702DF
:10235400130750136386E702130780136382E702AF
:1023640013079013638EE7001307A013638AE70033
:102374001307E0126380E702130510006FF09FF863
:102384003785008013050515EF00C02E13050000E6
:102394006FF05FF7B7970080938747F783A707012C
:1023A400938687E013071000637ED7001307B01FDE
:1023B400638AE7001307C01F6386E7001305100054
:1023C4006FF05FF4378500801305851AEF00802ACB
:1023D400130500006FF01FF3B7970080938747F74A
:1023E40083A78700938647ED130720006370D70205
:1023F400938707ED1307A000636CF7121307F06EC1
:10240400B357F70093F717006388071237850080E6
:1024140013054523EF000026130500006FF09FEE1F
:10242400B7970080938747F783A78700938647ED84
:10243400130720006372D702138717ED9307B000C8
:1024440063E0E710B71700009387B7B7B3D7E70087
:1024540093F71700638A070E378500801305C52894
:10246400EF004021130500006FF0DFE9B79700800B
:1024740083A747F713074006638AE700130750064C
:10248400638AE704130510006FF0DFE737970080D5
:10249400130747F703278700130647ED9306200029
:1024A40063F0C602130717ED9306A000E3E8E6FC09
:1024B4009306D07B33D7E60013771700E30007FCBD
:1024C400378500801305C52EEF00C01A13050000E0
:1024D4006FF05FE3B7970080938747F703A7870000
:1024E400930740136306F700130510006FF09FE194
:1024F400B7970080938747F783A707011307401F07
:102504006388E7041307601F6388E7041307C01F89
:102514006396E700130510006FF0DFDE3785008057
:1025240013054534EF000015130500006FF09FDD1F
:10253400130510006FF01FDD130510006FF09FDC12
:10254400130510006FF01FDC130510006FF09FDB04
:10255400130510006FF01FDB130510006FF09FDAF6
:1025640013803000130101EC232E1112EFF09FBEF3
:10257400630005029305010037150080130585AF3C
:10258400EFE01FE38320C1131301011467800000EF
:102594001305C0C7EF30D07113803000130101FF61
:1025A40023261100B7970080938747F71307400647
:1025B40023A0E7001307A00C23A2E7001307C0120F
:1025C40023A4E7001307001923A6E7001307401FFD
:1025D40023A8E700B78500809385453937850080B7
:1025E4001305053AEF000009EFE08FDFEFF05FF726
:1025F400378500801305453BEF00C0078320C100E9
:1026040013010101678000001380300013050000EE
:102614006780000013803000130101FF232611009E
:1026240083A7C181E78007008320C1001301010152
:10263400678000001380300023AEA1806780000013
:1026440013803000130101FF232611001306050037
:1026540093860500130700009305000037250080CA
:1026640013058561EF00501D8320C1001301010192
:102674006780000013803000130101FC232E110039
:102684002322B1022324C1022326D1022328E102FA
:10269400232AF102232C0103232E11039305410263
:1026A4002326B100EFF0DFF98320C10113010104F7
:1026B4006780000013803000130101FF23261100FE
:1026C400930705001385050093050600138606008D
:1026D400E7800700EF300073EF30807E1380300016
:1026E4001306050003270500130500006F00C00151
:1026F40093172500B387A7009397170013071700B4
:10270400B387D700138507FD83460700B79700807A
:102714009387D791B387F60083C7070093F74700E1
:10272400E39807FC2320E600678000001380300054
:102734001306050013850500930610006F0040067C
:102744008357060093E747002310F60063880604C6
:10275400130515006F0080048357060093E7870074
:102764002310F6006FF09FFE8357060093E70701DE
:102774002310F6006FF09FFD8357060093E70702CE
:102784002310F6006FF09FFC8357060093E70704BD
:102794002310F6006FF09FFB930600006388060287
:1027A40083470500938707FE93F5F70F130700018E
:1027B400E364B7FE93972500378700801307075E0D
:1027C400B387E70083A70700678007008327060015
:1027D40093F74704130740046384E700678000000D
:1027E4008357060093F7F7FB2310F6006FF01FFFE3
:1027F40013803000130101FE232E1100232C8100CD
:10280400232A9100130405002326B10083570500F1
:1028140093E707082310F5009384050003C7050018
:102824009307A0026304F7061305C100EFF01FEB42
:102834008327C1006380F4048357040093E70708E7
:102844002310F4002322A4008327040093D7170045
:1028540093F717006348050413070000B3E7E70084
:1028640093971700035704001377D7FFB367F70054
:102874002310F4000325C1008320C1010324810136
:10288400832441011301010267800000835705007E
:1028940093E707102310F500138515002326A100E4
:1028A4006FF09FFD130710006FF05FFB1380300083
:1028B400130101FE232E1100232C81002326B100D5
:1028C40003C70500130727FD933617009396960058
:1028D4008357050093F7F7DFB3E7D7002310F5001C
:1028E40063160706130405008327C1001387170026
:1028F4002326E10003C717009307A002630CF70423
:102904001305C100EFF09FDD2324A40083270400F6
:1029140093D7170093F71700634C050413070000BF
:10292400B3E7E70093971700035704001377D7FF23
:10293400B367F7002310F4000325C1008320C1010D
:10294400032481011301010267800000138505003F
:102954006FF0DFFE8357050093E707402310F5006F
:102964000325C100130515002326A1006FF01FFDE8
:10297400130710006FF0DFFA138030001306050010
:1029840083C70500938747FB93F6F70F1307E0020D
:10299400636AD71693972600378700801307476228
:1029A400B387E70083A70700678007001385150036
:1029B40003C71500930780066302F70283570600D6
:1029C4003787FFFF1307F77FB3F7E70037170000D8
:1029D400B3E7E7002310F600678000008357060082
:1029E4003787FFFF1307F77FB3F7E70037170000B8
:1029F40013070780B3E7E7002310F60013852500CB
:102A0400678000001385150003C715009307C006EF
:102A14006304F702835706003787FFFF1307F77F26
:102A2400B3F7E7003727000013070780B3E7E70091
:102A34002310F60067800000835706003787FFFFE6
:102A44001307F77FB3F7E70037270000B3E7E70082
:102A54002310F600138525006780000083570500C6
:102A64003787FFFF1307F77FB3F7E7003737000017
:102A740013070780B3E7E7002310F500138515005B
:102A840067800000835705003787FFFF1307F77F30
:102A9400B3F7E70037370000B3E7E7002310F5008A
:102AA4001385150067800000835705003787FFFFF3
:102AB4001307F77FB3F7E7003747000013070780D2
:102AC400B3E7E7002310F5001385150067800000C5
:102AD400835705003787FFFF1307F77FB3F7E70036
:102AE40037470000B3E7E7002310F500138515000E
:102AF4009397070193D7070193E727002310F60064
:102B040067800000835706003787FFFF1307F77FAE
:102B1400B3F7E7002310F600138505006780000073
:102B240013803000130705001385150083C70500C3
:102B3400A301F7009306800763EAF6049306E00610
:102B440063FAD7089306900663E2F60493068005B9
:102B540063E8D704138687FA93061000B396C60079
:102B640037E600001306062033F6C6006318060491
:102B7400371600001306168033F6C60063180610D5
:102B840037160200B3F6C6006394060A835707009B
:102B940093E717002310F700930700006F00800CE1
:102BA40093061004638CD700E3E2D7FE9387B7FB48
:102BB40093F7F70F93062000E3EAF6FC8347270018
:102BC40093F787FF93E747002301F700930710006B
:102BD4006F004009138627F993061000B396C600C8
:102BE40013F62648B335C0006312060A13F64602EC
:102BF400B337C000631A060C93F61600E38806F890
:102C040003462700137686FF136636002301C700A8
:102C140003560700B7850000938505803376B60018
:102C2400B74500006310B604938706006F00800365
:102C34008346270093F686FF93E616002301D70008
:102C4400835607003786000013060680B3F6C600D5
:102C5400374600006386C60493063006638AD704A9
:102C6400930700008326070093D6160093F61600F8
:102C7400B3E7D700939717008356070093F6D6FF60
:102C8400B3E7F6002310F7006780000083462700AF
:102C940093F686FF93E626002301D7006FF05FFAD0
:102CA4008356070093E616002310D7006FF0DFFA6F
:102CB40083570700B786000093860680B3F7D700D2
:102CC400B337F0006FF01FFA8346270093F686FFB0
:102CD40093E636002301D7008356070037860000A9
:102CE40013060680B3F6C600E39E06F69387050036
:102CF4006FF05FF713803000130101FF23261100EA
:102D04002324810013040500232005002322050049
:102D14002324050083C71500130750026388E704C2
:102D24009385150013050400EFF05FA093050500DB
:102D340013050400EFF0DFAB930505001305040051
:102D4400EFF0DFB69305050013050400EFF0DFC2D2
:102D54009305050013050400EFF09FDC8320C100F8
:102D640003248100130101016780000013852500FD
:102D7400A301F4006FF09FFE138030009307F00668
:102D8400630CF50263FEA70093070007630AF502CC
:102D940093078007631AF50213050001678000009A
:102DA400930780056306F5001305A0006780000003
:102DB4001305000167800000130580006780000090
:102DC40013050001678000001305A0006780000060
:102DD40013803000130101FD2326110223248102F4
:102DE4002322910223202103232E3101232C41018C
:102DF400232A5101232861012326710123248101FF
:102E04009309050013840500130C0600938A060039
:102E14009304070003453600B79700809387D79142
:102E2400B307F50083CB070093FB3B00EFF0DFF41F
:102E3400130905006F00800493071000638AFB06E2
:102E44009377F50F9387770593F7F70F9384F4FF40
:102E54002380F4001306090093060000138509007B
:102E640093050400EFD0CFB7636E4405630A8A0468
:102E740063FA9A049309050013840500130B0900EF
:102E8400130A0000130609009306000013850900C5
:102E940093050400EFD0CFF793079000E3EEA7F873
:102EA4009377F50F9387070393F7F70F6FF01FFAE4
:102EB4009377F50F9387770393F7F70F6FF01FF965
:102EC400E3F869FB83570C0093F70702638A070052
:102ED400930780006300F904930700016304F90475
:102EE400138504008320C102032481028324410248
:102EF400032901028329C101032A8101832A410193
:102F0400032B0101832BC100032C81001301010356
:102F14006780000083472C0093E787002301FC00AF
:102F24006FF01FFC83472C0093E707012301FC008B
:102F34006FF01FFB138030008327050093D7B70081
:102F440093F7F700130770006364F706939727005D
:102F5400378700801307076EB387E70083A707004E
:102F64006780070023A0C500678000002380C50098
:102F7400678000002390C5006780000023A0C5007F
:102F8400678000009357F64123A0C50023A2F500F3
:102F9400678000009357F64123A0C50023A2F500E3
:102FA4006780000023A0C5006780000023A0C5003F
:102FB4006780000013803000130101FE232E1100EE
:102FC400232C8100232A9100232821012326310167
:102FD40023244101130A050093890500138906007F
:102FE400130400006F000002930416009385090087
:102FF40003450600E7000A006340050213041400B9
:1030040013860400E36226FF631609008347060063
:10301400E39C07FC130504008320C1010324810100
:1030240083244101032901018329C100032A81006A
:10303400130101026780000013803000130101F8BE
:10304400232E1106232C8106232A910623282107E7
:103054002326310723244107232251072320610714
:10306400232E7105232C8105130905009384050083
:10307400930A06002326D1001304000003C50A00A6
:103084006300057893075002630EF500938A1A00D3
:1030940093850400E70009006346057613041400D1
:1030A4006FF0DFFD23280100232A0100232C0100F7
:1030B400232E0100232001022322010223240102E2
:1030C4002326010293850A0013050102EFF09FC233
:1030D400930905008357010213F707106302070CD5
:1030E4008327C100138747002326E10003AA0700B2
:1030F400634E0A088357010213F707406308070C5D
:103104008327C100138747002326E10003AB070090
:1031140063440B0A232201022324010283270102B0
:1031240013D707011377770093D7B70093F7F70006
:1031340093860700130610006306C70A13062000CF
:103144006300C71E93074000630AF72C93073000FF
:103154006308F7328327010293F73700639E07322F
:10316400834731029387B7FD93F6F70F13073005B2
:10317400636AD74C939726003787008013078770BC
:10318400B387E70083A7070067800700835701021E
:1031940093E747002310F102330A40416FF09FF593
:1031A40093F7070863860700032A41026FF09FF430
:1031B400130AF0FF6FF01FF48357010293F7F7DF50
:1031C4002310F102130BF0FF6FF0DFF493F70720E5
:1031D40063860700032B81026FF0DFF3130BF0FF0C
:1031E4006FF05FF313075000638EE70E636EF70210
:1031F400130730006382E70A13074000639EE70465
:103204008327C1009387770093F787FF138787008D
:103214002326E10003A7070083A747002328E10032
:10322400232AF1006F0000059387A70093F7F700A6
:10323400130710006362F7028327C1001387470056
:103244002326E10083A7070013D7F7412328F100C1
:10325400232AE1006F0000028327C100138747007F
:103264002326E10083A7070013D7F7412328F100A1
:10327400232AE10093071000638AF60893072000CD
:10328400E39AF6EC8317010113D7F7412328F100E1
:10329400232AE1006FF01FEC034731029307300645
:1032A4006302F7028327C100138747002326E10046
:1032B40083A7070013D7F7412328F100232AE1004D
:1032C4006FF05FFB8327C100138747002326E100CB
:1032D40083A7070013D7F7412328F100232AE1002D
:1032E4006FF05FF98327C1009387770093F787FF17
:1032F400138787002326E10003A7070083A747005D
:103304002328E100232AF1006FF0DFF6830701018F
:1033140013D7F7412328F100232AE1006FF09FE33C
:10332400130750006380E70C636EF7021307300045
:10333400638CE70813074000639CE7048327C100FC
:103344009387770093F787FF138787002326E1008D
:1033540003A7070083A747002328E100232AF100DD
:103364006F0080049387A70093F7F70013071000FA
:103374006360F7028327C100138747002326E10017
:1033840083A707002328F100232A01006F00C0014E
:103394008327C100138747002326E10083A7070082
:1033A4002328F100232A0100930710006380F60606
:1033B40093072000E390F6DA835701012328F100F4
:1033C400232A01006FF01FD98327C1001387470008
:1033D4002326E10083A707002328F100232A010004
:1033E4006FF09FFC8327C1009387770093F787FFD3
:1033F400138787002326E10003A7070083A747005C
:103404002328E100232AF1006FF01FFA834701010A
:103414002328F100232A01006FF0DFD393078000F3
:103424006386F6028327C1009387770093F787FFAB
:10343400138787002326E10003A7070083A747001B
:103444002328E100232AF1006FF0DFD08327C10095
:10345400138747002326E10083A7070003A607007C
:1034640083A6470003A7870083A7C7002328C100BA
:10347400232AD100232CE100232EF1006FF09FCDED
:103484008327C100138747002326E10083A7070091
:103494002328F1006FF01FCC9386090013860A00DD
:1034A4009385040013050900EFF0DFB0634C053485
:1034B4003304A400938A09006FF05FBC9385040071
:1034C40013055002E7000900634E0532130414008B
:1034D400930B0000130BE104930A00006F004017E4
:1034E400832A0101634E0B0093050B0013850A0028
:1034F400EF304055338BAA00930B00006F0040154A
:1035040013850A00EF3040446FF0DFFE832701018A
:10351400230CF102930B0000130B9103930A810314
:103524006F0000138357010213F78700631A070023
:1035340093F7070163940702930B00006F00800068
:10354400930BB002032701018327410163CC0700D9
:103554002328E100232AF1006F000003930B0002EB
:103564006FF05FFEB306E0403337E000B307F0408E
:10357400B387E7402328D100232AF100930BD0021C
:103584006F008000930B00001307E104930681038E
:10359400130601020325010183254101EFF05F8336
:1035A400930A050063460B129307E104B38757415E
:1035B400035701021377F7FB2310E10263FE67113F
:1035C400B307FB402322F102130BE1046F00400810
:1035D40003250101631E0500930B0000378B008057
:1035E400130B5B70B78A0080938A0A706F004006E1
:1035F4001307E104930681031306010293050000F7
:10360400EFF00FFD930A05008347210293E70701BA
:103614002301F10293078007A301F102930B000039
:103624006FF05FF8130604008325010113050102FE
:10363400EFF05F90930B0000130BE104930A00007A
:103644006F000001930B0000130BE104930A0000C8
:1036540063840A1AB3065B4163840B0093861600E5
:103664008347210213F70701630C0706938626009C
:10367400032741023307D70093F707046386070043
:10368400832781023307F700635E4009330AEA4067
:103694008327010293D7270093F717006394070841
:1036A4008357010293F707046384070463860B04BA
:1036B4009385040013850B00E70009006344051497
:1036C40013041400130C0003930B00006F00000399
:1036D400130BE1046FF0DFF7130BE1046FF05FF7F6
:1036E40013F78700E30607F8938616006FF05FF878
:1036F400130C00026F008000130C000393070A00F0
:10370400138AF7FF6350F0029385040013050C003D
:10371400E70009006348050E1304140093070A0028
:103724006FF01FFE638C0B009385040013850B0060
:10373400E70009006348050C130414008327010201
:1037440013D747011377170093D7370193F717005F
:10375400B367F700638C0700938504001305000327
:10376400E70009006340050A13041400834721029B
:1037740093F70701638C0700938504000345310226
:10378400E70009006340050813041400832741027D
:10379400938BF7FF6350F002938504001305000335
:1037A400E7000900634005061304140093870B0027
:1037B4006FF01FFE93060B0013860A009385040026
:1037C40013050900EFF00FFF634E05023304A40054
:1037D400635040039385040013050002E7000900C9
:1037E4006342050213041400130AFAFF6FF05FFE2C
:1037F400938A09006FF09F88938A09006FF01F88ED
:10380400130504008320C10703248107832441078F
:10381400032901078329C106032A8106832A410655
:10382400032B0106832BC105032C81051301010819
:103834006780000013803000678000001380300030
:10384400130101FF23261100EF00C0099307800034
:1038540073A00730730050108320C10013010101CD
:1038640067800000138030009357850013F7F70F2B
:10387400631A070093071000B397A700F3A7473014
:1038840067800000130101FF232611001385F7FF51
:10389400EF00804D8320C100130101016780000007
:1038A40013803000135585009377F50F6394070058
:1038B40067800000130101FF232611001305F5FFA3
:1038C400EF00004E8320C100130101016780000056
:1038D40013803000F3770430735040307350403419
:1038E4006780000013803000678000001380300080
:1038F400130500006780000013803000130101FFEE
:1039040023261100EF00505113803000130101FFF2
:10391400232611002324810013040500F3272034F7
:10392400F3273034EFF09FFC6304050013052000F7
:1039340093050400EFF05FFC13803000130101FFD6
:1039440023261100F32720349305000013051000EB
:10395400EFF09FFA13803000130101FF23261100BA
:10396400EF00106DEFF0DFF6EF104003732540F128
:10397400630A05009302100063425504730050105B
:103984006FF0DFFF975200009382826537130000C7
:1039940033035300B7B3AAAA9383A3AA23A0720044
:1039A40093824200E3CC62FE17510000130141638D
:1039B400B712000033015100EFF0DFF99752000015
:1039C4009382C21183A20200E31A55FE97520000AB
:1039D4009382821003A10200975200009382021086
:1039E40023A002006F00C00723AA150223AC85029E
:1039F40023AE950223A0250523A2350523A445055E
:103A040023A6550523A8650523AA750523AC8505BA
:103A140023AE950523A0A50723A2B50723A8250255
:103A240023AEB50603210503832045030324850340
:103A34008324C5030329050483294504032A850433
:103A4400832AC504032B0505832B4505032C850513
:103A5400832CC505032D0506832D450667800000CC
:103A640013803000130101FF232611002324810059
:103A740013040500EFF0DFE5B7970080131434005A
:103A8400938707AEB387870003A7070003A5470002
:103A9400E700070013803000130606FB137606FFC9
:103AA4002320D6022322E6022324F6022326060339
:103AB400B7270000938707882322F604B7270080DE
:103AC4009387876B2320F6042328C502B707008059
:103AD4009387C715232AF502232EA50667800000C5
:103AE400138030001305000067800000138030004D
:103AF4001305F0FF678000001380300023A0A1822B
:103B04006780000013803000130101FE232E110092
:103B1400232C8100232A910023282101232631010B
:103B24009309050013890500130400006F00400188
:103B340083A7018203C50400E7800700130414006F
:103B440063522403B384890003C704009307A000CD
:103B5400E310F7FE83A701821305D000E780070076
:103B64006FF01FFD130509008320C10103248101A7
:103B740083244101032901018329C10013010102A6
:103B84006780000013803000130101FF2326110019
:103B94001385050093050600EFF0DFF68320C100CE
:103BA400130101016780000013803000130101FF3D
:103BB4002326110013065000B79500809385858550
:103BC40013051000EFF01FFC6F000000138030009D
:103BD40013070500B797008083A687AE9387818477
:103BE4003385F6003307D700B70600C0B387F64025
:103BF4006378F700B797008023A4E7AE67800000DE
:103C04001305F0FF6780000013803000130101FFEB
:103C1400232611009305F0FF1306F0FFEF10400C6C
:103C24008320C1001301010167800000138030006C
:103C3400130101FF23261100EF1080228320C1000D
:103C4400130101016780000013803000130101FF9C
:103C5400232611001306D001B795008093850586AD
:103C640013052000EFF01FF213053000930200004B
:103C74007300000013803000130101FF232611009C
:103C8400930700003727000C6F0000012320070072
:103C9400130747009387170093061000E3D8F6FE36
:103CA400930700003707000C6F0000012320070072
:103CB400130747009387170093063003E3D8F6FEF3
:103CC400B707200C23A0070013060000930500008B
:103CD4001305B000EFF0DFBC1305B000EFF09FB8A0
:103CE400130500008320C100130101016780000057
:103CF40013803000130101FF2326110023248100C7
:103D0400B707200C03A44700B797008023A687AE0B
:103D14001307F4FF9307200363E2E7041304C400CA
:103D2400B7770080131434009387C778B38787006C
:103D340003A7470003A50700E7000700B797008023
:103D440003A7C7AEB707200C23A2E7008320C10056
:103D540003248100130101016780000013050000A2
:103D6400EFF09FBD6FF09FFB13803000737704303A
:103D74009356550093962600B727000CB387D700B7
:103D840083A60700130610003316A600B3E6C60088
:103D940023A0D7009377870073A0073067800000C3
:103DA400138030009307700063F4B700930570002C
:103DB40013152500B707000CB387A70023A0B7008D
:103DC4006780000013803000130101FF23261100D7
:103DD40023248100130405009307A000630AF5025D
:103DE4009375F40F377500809307457783A7870091
:103DF40083A7470013054577E780070013050400F0
:103E04008320C100032481001301010167800000A5
:103E1400377500809307457783A7870083A74700FA
:103E24009305D00013054577E78007006FF05FFB2B
:103E340013803000130101FF232611002324810085
:103E440037440080130584DCEFF01FCB130584DCBA
:103E5400EFE04FFE8320C100032481001301010120
:103E64006780000013803000130101FF2326110036
:103E74003775008013054577EF00C075630C0500A6
:103E8400EFF01FFB130500008320C10013010101A3
:103E9400678000001305D0FE6FF01FFF1380300011
:103EA4008327850083A7C700638E0700130101FFE2
:103EB40023261100E78007008320C10013010101BC
:103EC40067800000130580FA6780000013803000CB
:103ED40003270501638205086300060893974500DC
:103EE4003356F6028327450003A8070083C607015B
:103EF40093971600B387D700B387070183C60700DB
:103F040013F8F60F93E606082380D7009376F60F8E
:103F14008327450083A707002380D7001356860014
:103F24001376F60F8327450083A6070083C707018E
:103F3400B387D7002380C7008327450003A6070063
:103F440083C6070193971600B387D700B387C700CA
:103F5400238007012320B70067800000138030000E
:103F64008327050103A7070023A0E50003C7470033
:103F74002382E50003C75700A382E50003C7670057
:103F84002383E50083C77700A383F50013050000AE
:103F94006780000013803000737704308327450066
:103FA40003A6070083C6070193972600B387D700AB
:103FB400B387C70083C7070093F71700638E070012
:103FC400834706002380F5001305000093778700DC
:103FD40073A00730678000001305F0FF6FF01FFF28
:103FE40013803000737604308327450083A60700CE
:103FF40003C7070193172700B387E700B387D700E8
:1040040083C7070093F70702E38007FE2380B60007
:104014009377860073A00730678000001380300018
:10402400737704308327450003A6070083C607017E
:1040340093972600B387D700B387C70003C507004B
:104044001375E5019377870073A007301355154066
:104054006780000013803000130101FD2326110244
:10406400232481022322910223202103232E3101C0
:10407400232C41011304050093840500032A050140
:1040840083294500232601007379043083A749005E
:10409400638007042326F1000326C10083A50400DE
:1040A40013050400EFF09FE283C7640013072000A8
:1040B4006384E70A6362F704638E0704130710003E
:1040C4006398E702930710002305F1006F00C00412
:1040D40003A58900EF000050630A05181306C10008
:1040E40083A5C90003A58900EFF05FDB6FF0DFFA59
:1040F4001305A0F76F00C003130730006398E700AF
:10410400930730002305F1006F0000011305A0F7A9
:104114006F0000022305010083C754001307100039
:104124006382E70413073000638CE7041305A0F7E8
:1041340013798900732009308320C102032481028A
:1041440083244102032901028329C101032A810135
:104154001301010367800000930720002305F10089
:104164006FF09FFBA304010083C744006380070230
:10417400130720006380E70E1305A0F76FF05FFBC1
:1041840093074000A304F1006FF01FFE2304010015
:1041940083A704002320FA0083A744002322FA0003
:1041A4008347A1008346910003478100B3E7D7000A
:1041B4003367F7008327440003A6070083C607017B
:1041C40093971600B387D700B387C7002380E7000F
:1041D4008327440003A7070083C707019397270099
:1041E400B387E7001307B0002380E7008327440068
:1041F40003A7070083C7070193971700B387E70056
:10420400130770F82380E7008327440003A70700FF
:1042140083C7070193971700B387E70083C7070095
:1042240093F7070C1307000C638CE7029307100045
:104234002304FA00032744008347070103270700E8
:1042440083460700B387E7002380070013050000B7
:104254006FF01FEE930700012304F1006FF05FF38A
:10426400930700012304FA006FF0DFFC1305A0FE9E
:104274006FF01FEC13803000130101FF232611009F
:1042840083250501EFF01FDD8320C1001301010127
:104294006780000013803000B7970080938787FB06
:1042A40083C7470193973700374500023385A7003A
:1042B400930500006780000013803000130101FFA4
:1042C4002326110023248100232291009304050056
:1042D40013840500EFF01FFC9307F0FF2322F50081
:1042E40023209500232285008320C100032481001C
:1042F4008324410013010101678000001380300012
:10430400B7C7000283A5C7FF03A587FF83A7C7FF1D
:10431400E396B7FE6780000013803000130101FFAD
:1043240023261100130600009305000013057000F6
:10433400EFF00FD7EFF09FFC93070500379700804D
:10434400232CA7AA232EB7AA13050510B337F5000B
:10435400B385B700EFF05FF613057000EFF08FD070
:10436400130500008320C1001301010167800000D0
:1043740013803000130101FF232611002324810040
:1043840073740430EFF09FF79306050037960080AE
:10439400832786AB0327C6ABB307F5403335F50057
:1043A4003387E5403307A7401317870113D58700E8
:1043B4003365A700232CD6AA232EB6AA137484002F
:1043C40073200430EF10D0758320C10003248100D2
:1043D400130101016780000013803000639C050C09
:1043E400130101FF232611002324810023229100BD
:1043F4009307F0FF630AF5049307100063DCA70436
:10440400B70780009387E7FF63CAA7041304F5FF87
:10441400F3740430EFF09FEE93178400B796008096
:1044240003A786AB83A5C6AB3306E5401306F60F98
:10443400B706008093C6F6FFB386C64063E6F6026D
:10444400B387C7006F00C002370580001305E5FF7E
:104454006FF01FFB130400006FF09FFB3705800013
:104464001304E5FF6FF0DFFAB707008093C7F7FF87
:1044740093F707F0B306F700B386A6401306300699
:104484006344D600938707103385E700B337F500FC
:10449400B385B700EFF05FE293F4840073A00430B7
:1044A4008320C100032481008324410013010101FE
:1044B400678000006780000013803000130101FF53
:1044C400232611002324810073740430EFF01FE3CA
:1044D400B797008083A787AB3305F5401355850054
:1044E40013748400732004308320C10003248100EA
:1044F40013010101678000001380300037770080CA
:10450400130747776F00800013078701B777008090
:104514009387C778E36AF7FE678000001380300052
:10452400130101FF2326110023248100232291007B
:104534002320210113090500B797008013172500D4
:104544009387878BB387E70003A407006F0080027B
:104554003305A0406F00800583A7C4002380A70013
:1045640003A7C4008357070093E707102310F7003D
:104574001304840013071900B7970080131727004A
:104584009387878BB387E70083A707006378F402D8
:10459400832444008327040013850400E780070074
:1045A400E38804FCE30E05FAE34405FA9307F00FED
:1045B400E3D4A7FA1305F00F6FF01FFA8320C100AC
:1045C4000324810083244100032901001301010114
:1045D4006780000013803000630E05008327C50048
:1045E40003A507001375F51F130505F01335150012
:1045F400678000001305000067800000138030000E
:10460400F37704306F00000013803000130101FFC2
:1046140023261100EFF09FFE13803000130101FEEA
:10462400232E1100232C8100232A91002328210109
:10463400232631011309050093890500F37404301E
:10464400EF10407C1304050093850900130509004D
:10465400EFF09FFB93F4840073A00430130504006F
:10466400EF1010068320C10103248101832441013A
:10467400032901018329C10013010102678000009D
:1046840013803000130101FD23261102232481022B
:104694002322910223202103232E31011304050038
:1046A40013194500B309A90093993900B794008000
:1046B400938404C4B38999001315A50093161400B8
:1046C400B3868600939636002322010093071000D8
:1046D4002320F1009308F000130800009307000062
:1046E40037970080130787FB3307D700B75600803E
:1046F400938686C713060040B7A50080938505FE00
:10470400B385A50013850900EF00803983C7D9005C
:1047140093F7B7FFA386F9008320C1020324810223
:1047240083244102032901028329C10113010103E6
:104734006780000013803000130101FF232611005D
:10474400B7970080130710002384E7B013052000F7
:10475400EFF0DFDCEF10105213053000EFF01FDC38
:10476400EF008041EFD05FE3B7970080938787CC59
:1047740003C7C7001377E7FF2386E7008320C10040
:10478400130101016780000013803000130101FF51
:1047940023261100232481002322910023202101B8
:1047A400F3740430B7970080938787FB03A98700CD
:1047B400930750FF232CF906F3770430EF00D01849
:1047C4006302A90213040500B7970080938787FB4F
:1047D40023A4A700EF009002930509000325C40752
:1047E400EFF08FA093F4840073A004308320C10001
:1047F40003248100832441000329010013010101E2
:104804006780000013803000130101FF232611008C
:10481400EFF09FF713803000130101FF23261100EE
:10482400EFC08F9F8320C100130101016780000046
:1048340013803000130101FF2326110037950080F7
:10484400130685ABB79700809387C7FD3386C740AF
:1048540093050000130585ABEFF0DFFB8320C10057
:10486400130101016780000013803000130101FF70
:10487400232611002324810013040500EFF05FE0D8
:1048840093174400B38787009397370037970080C6
:10489400130707C4B387E70037970080130787FB24
:1048A4009316140033868600131636003306C700A9
:1048B4002326F600230A86009317C4003796008047
:1048C400130606FEB387C70037160000B387C70078
:1048D400B3868600939636003307D7002322F70069
:1048E4008320C100032481001301010167800000BB
:1048F40013803000130101FE232E1100232C8100AC
:10490400232A910023282101EF10C04CB79700807F
:10491400B7940080138984CC938787FB23AC270149
:10492400B79700809387C78C2322F1009307100068
:104934002320F100930800001308000093070000EF
:1049440013070000B746008093868673371600006D
:10495400B7A500809385053E138584CCEF004014F1
:10496400130405008347D90093F7B7FFA306F900A2
:10497400138584CCEF00505E13050000EFF0DFEEEA
:10498400130504008320C101032481018324410110
:104994000329010113010102678000001380300024
:1049A400130101F6232E110893071000A30AF10046
:1049B400230AF10023240108B7970080938787FB1B
:1049C4001307810023A4E700EFF01FB313050000D1
:1049D400EFF0DFB413051000EFF05FB4EFF05FF118
:1049E400EFF05FE213803000130101FF2326110072
:1049F40023248100138505001306F600137606FFB1
:104A04003384C5009305A00AEFC00F811305040089
:104A14008320C10003248100130101016780000089
:104A240013803000130101FF23261100EF00D0583A
:104A34008320C1001301010167800000138030004E
:104A4400130101FF2326110093060600B367B60085
:104A5400639A0700EFF0DFFC8320C100130101011A
:104A64006780000013860500B76500809385458143
:104A740013058501EF10405D6FF01FFE13803000B9
:104A8400232405002306D500A306C5002307B5008B
:104A9400A3070500232C0500232E050067800000D2
:104AA40013803000130101FE232E1100232C8100FA
:104AB400232A9100232821012326310123244101A3
:104AC40023225101232061011304050013890500E9
:104AD4009304060093890600130A0700938A0700CB
:104AE400130B0800938508009307C5062326F506D3
:104AF4002328F5068326010213064000EFF01FF871
:104B0400138604009305090013050400EFF09FEDDC
:104B14009304050013080B0093870A0013070A0087
:104B24009386090013060500930509001305040084
:104B3400EFE05FF623240406B7970080938787FB92
:104B440083A7870083A707082320F408138504009C
:104B54008320C1010324810183244101032901012C
:104B64008329C100032A8100832A4100032B010009
:104B7400130101026780000013803000130101FE5D
:104B8400232E1100232C8100232A910037840080D6
:104B94001304C4986F0040048327C4022322F10045
:104BA400832704022320F1008328C40103288401FD
:104BB40083274401032704018326C40003268400B9
:104BC4008325440003250400EFF09FED83270400B0
:104BD40023A4870613040403B78700809387C79828
:104BE400E36CF4FAEF008052378400801304C49815
:104BF4006F00400493D5F74113D79701939575003F
:104C0400B365B700939777001385773EB337F50004
:104C14001306803E93060000B385B700EFB04FDC67
:104C2400138605009305050013850400EFF01FE1CA
:104C340013040403B78700809387C7986370F40252
:104C4400832744021307F0FFE384E7FE8324040070
:104C5400E3D207FA930700006FF0DFF9EF00D07E8C
:104C64008320C10103248101832441011301010232
:104C74006780000013803000130101FF2326110018
:104C8400F3770430EFE09FBB6FF09FFF1380300099
:104C94006354B50093050500930710F863C6F50047
:104CA4001385050067800000130510F86780000075
:104CB40013803000032585008307E5006396B70061
:104CC4001305000067800000130101FF2326110073
:104CD400EF0090628320C10013010101678000008E
:104CE40013803000130101FE232E1100232C8100B8
:104CF400232A910023282101232631012324410161
:104D040013040500F37404308327C5006390070679
:104D14006390071037970080130787FB03278700EA
:104D24000307E7002328E400938717002326F400F1
:104D3400B7970080938787FB83A787002324F40019
:104D440093F4840073A00430130500008320C10190
:104D54000324810183244101032901018329C10022
:104D6400032A810013010102678000009389050072
:104D7400130906008326850037970080130787FBF5
:104D840003278700E386E6F8B367B600638607085F
:104D9400038AE60093050A000305E700EFF01FEF1E
:104DA40063444509130A00009386090013070900A8
:104DB4001306040093850400379500801305C5FD90
:104DC400EF00104EE30405F8F374043083278400E5
:104DD400638A0706832704006382870663800706C5
:104DE400832504010385E700EFF05FEA93050500DE
:104DF40013050400EFF0DFEB6318050463160A04DF
:104E040093F4840073A00430130550FF6FF01FF473
:104E1400032704016FF01FF193F4840073A004309E
:104E2400130500FF6FF09FF29305050013050400BE
:104E3400EFF01FE8130A05006FF01FF78325040144
:104E44006FF01FFBE30E0AFA938504003795008088
:104E54001305C5FDEF004046130550FF6FF01FEF2B
:104E640013803000032785006306070A130101FF3E
:104E7400232611002324810023229100130405001A
:104E8400B7970080938787FB83A787006318F70889
:104E94008327C500130710006372F7029387F7FF97
:104EA4002326F500130500008320C100032481009C
:104EB400832441001301010167800000F37404306E
:104EC40083250501EFF0DFDE13050400EF00D06752
:104ED4002324A400630605028307E5002328F400C5
:104EE400232C0506EF0050079385040037950080B6
:104EF4001305C5FDEF00403C130500006FF0DFFA19
:104F04002326040093F4840073A0043013050000E6
:104F14006FF09FF91305A0FE678000001305F0FFF2
:104F24006FF09FF8138030000357E5009307F007F4
:104F340063EAE7028347D50093F7F7016398070212
:104F44000307E500B797008083A707AF6344F70220
:104F5400B7970080938707C46302F5021305100016
:104F6400678000001305000067800000130500003F
:104F7400678000001305000067800000130500002F
:104F84006780000013803000130500006780000074
:104F940013803000032585006780000013803000F3
:104FA400930606009307F0FF6396B7006314F600B8
:104FB40067800000130101FF2326110013860500FA
:104FC400B76500809385458113058501EF10C007FF
:104FD4008320C100130101016780000013803000A9
:104FE4008307E5000385E5006386A7003305F540E4
:104FF4006780000013050000678000001380300004
:10500400130101FF2326110023248100B797008098
:1050140003A447AF631A04008320C1000324810062
:105024001301010167800000EFF00FC93304A400ED
:10503400B7970080938787FB23A887009305000018
:10504400B797008003A547AFEF10C0236FF0DFFCD4
:1050540013803000130101FF232611002324810053
:1050640023229100232021011304050093840500C9
:1050740093070000737904306F000003B797008032
:1050840023AAA7AEB797008023A897AEB79700804E
:10509400938787FB03A58700EFF05FF6937789007A
:1050A40073A007309307100063960704B797008036
:1050B400938787FB23A807009355940193177400E3
:1050C4001385773EB337F5001306803E9306000040
:1050D400B385B700EFB0CF90B797008023AAA7AEEF
:1050E400E35280FA93072000E35AF5F813052000F1
:1050F4006FF0DFF88320C100032481008324410082
:1051040003290100130101016780000013803000AE
:1051140093070000F37604306F008002B797008095
:10512400938787FB03A787008347F7009387F7FFDD
:10513400A307F70093F7860073A0073093071000C6
:10514400E38E07FC6780000013803000B79700806F
:10515400938787FB03A587016780000013803000D5
:10516400130101FF2326110023248100232291002F
:105174002320210113040500B7970080938787FB40
:1051840003A98700930750FF232CF906F377043013
:10519400EFF09FFB6302A90293040500B797008018
:1051A400938787FB23A4A700EFF05FE5930509002D
:1051B40003A5C407EFE05F831374840073200430F5
:1051C400B7970080938787FB83A7870003A587078A
:1051D4008320C100032481008324410003290100AA
:1051E400130101016780000013803000937785006C
:1051F4006384070237970080032787FB631E070039
:10520400130101FF23261100EFF05FF58320C10095
:10521400130101016780000073A00730678000005C
:1052240013803000130101FF232611002324810081
:10523400232291002320210113840500B7970080C5
:10524400938787FB03A98700930750FF232CF90654
:10525400B79700809387C7FD6384A700F377043072
:10526400EFF09FEE930405006300A902B797008056
:10527400938787FB23A4A700EFF05FD89305090069
:1052840003A5C407EFE04FF61374840073200430C1
:10529400B7970080938787FB83A7870003A58707B9
:1052A4008320C100032481008324410003290100D9
:1052B40013010101678000001380300093F785001B
:1052C400638E070237970080032787FB6318070262
:1052D40037970080130787FB8326870103278700FE
:1052E400638EE600130101FF23261100EFF05FF344
:1052F4008320C100130101016780000073A00730FF
:105304006780000013803000B7970080938787FB85
:1053140003A7870183A6870023AEA60623A4E7007C
:105324000325C707678000001380300003A74500EA
:1053340083A705002320F70023A2E70023A005008C
:1053440023A205006780000013803000130101FFD1
:10535400232611002324810013040500EFF05FC30A
:1053640093050400EFF05FFC8347D40093F7D7FF65
:10537400A306F400232404008320C1000324810035
:1053840013010101678000001380300093070500BA
:10539400032505006384A70067800000130500004F
:1053A4006FF09FFF13803000130101FF23261100CB
:1053B4002324810023229100930405003795008063
:1053C400130545FDEFF05FFC13040500630E0502B1
:1053D40063940404B7970080938787FB03A787002F
:1053E4008347D70093F7F701639807028356E700D2
:1053F4009307F00763F2D702B7970080938787FB80
:1054040023ACE7006F008003B7970080938787FB86
:1054140003A4C7006FF0DFFBB7970080938787FB77
:1054240083A787006386870013050400EFF01FBD80
:10543400B7970080938787FB23AC87008320C10044
:1054440003248100832441001301010167800000CB
:1054540013803000130101FF23261100232481004F
:1054640023229100930405008347D50013978701F5
:10547400135787416348070283C7D40093E707F8AB
:10548400A386F400B7970080938787FB03A4C70122
:10549400B7970080938747FD6312F4041304000058
:1054A4006F00C00393F7F707A306F5009305050003
:1054B40037950080130545FDEFF01FE76FF0DFFB24
:1054C4008327440023A2F40023A0840023A0970090
:1054D400232294006F00C005130400006308040233
:1054E4009305040013850400EFF05FAFE34AA0FCCA
:1054F400E30604FEB7970080938787FB83A7070220
:10550400E30CF4FC032404006FF05FFDB797008004
:10551400938787FB83A6070237970080130747FD0D
:1055240023A0E40023A2D40023A0960023A0970282
:10553400B7970080938787FB03A5870033059540C1
:1055440013351500EFF01FE68320C100032481000A
:10555400832441001301010167800000138030009F
:10556400130101FF2326110023248100232291002B
:1055740013040500B7970080938787FB83A48700F3
:1055840083C7D40093F7F7016382070213850400ED
:10559400EFF0DFA6130504008320C100032481007B
:1055A4008324410013010101678000001385040076
:1055B400EFF01FEA6FF09FFD13803000130101FF2D
:1055C400232611002324810023229100232021017A
:1055D40013090500F374043013840400B7970080A2
:1055E400938787FB03A58700B797008083A747AFFE
:1055F40063800704EFF01F93630C0502B7970080E4
:10560400938787FB83A70701635CF90037970080C2
:10561400B3872741130787FB2328F7006F00000295
:1056240013850400EFF09FF3130405006F000001DD
:10563400B7970080938787FB23A80700137484001F
:10564400732004308320C10003248100832441009B
:105654000329010013010101678000001380300059
:105664008347D50013978701135787416344070E77
:10567400130101FF2326110023248100232291001A
:10568400232021011304050013F7F7016316070013
:1056940003298501630E09008320C10003248100CE
:1056A40083244100032901001301010167800000E4
:1056B40093E707F8A306F500B7970080938787FB65
:1056C40083A4C701B7970080938747FD6394F402CE
:1056D400930409006F00000283A744002322F4000E
:1056E4002320940023A0870023A284006F00C00518
:1056F40093040900638804029385040013050400DD
:10570400EFF0DF8DE34AA0FCE38604FEB797008048
:10571400938787FB83A70702E38CF4FC83A404002C
:105724006FF05FFDB7970080938787FB83A607021E
:1057340037970080130747FD2320E4002322D40079
:1057440023A0860023A0870213050000EFF09FC565
:105754006FF09FF46780000013803000130101FF95
:105764002326110023248100232291001304050021
:1057740093070000F37404306F00000193F7840072
:1057840073A0073093071000639E070013050400FD
:10579400EFF04FFFE31405FE13050400EFF01FECD8
:1057A4006FF0DFFD8320C1000324810083244100C6
:1057B400130101016780000013803000130101FF11
:1057C4002326110023248100737404308347D500F9
:1057D40013F74700631E070013748400732004301A
:1057E4008320C100032481001301010167800000AC
:1057F40093F7B7FFA306F500EFF05FE69305040007
:10580400379500801305C5FDEFF01FAB6FF05FFD0A
:1058140013803000130101FF23261100232481008B
:10582400232291002320210113040500130985FE7E
:1058340093070000F37404306F00C002834754FFE1
:1058440013F7B7FFA30AE4FE93F7B7FEA30AF4FE27
:1058540013050900EFF09FE093F7840073A007306D
:105864009307100063920702834754FF93F787025C
:10587400E39407FE832704FFE38207FC1305090072
:10588400EFF09FAC6FF09FFB8320C10003248100E5
:1058940083244100032901001301010167800000F2
:1058A40013803000130101FF2326110023248100FB
:1058B400232291009304050003A40400638484025A
:1058C4006302040213050400EFF01FA8130584010A
:1058D400EF009014232C040613050400EFF01FD8E6
:1058E4006FF09FFD8320C1000324810083244100C5
:1058F400130101016780000013803000130101FFD0
:105904002326110023248100130405008347D500B6
:10591400139787011357874163460702B79700809F
:10592400938787FB03A5870033058540133515004E
:10593400EFF05FA78320C10003248100130101015C
:105944006780000093F7F707A306F50093050500A9
:1059540037950080130545FDEFF01F9D6FF01FFC88
:1059640013803000130101FF23261100232481003A
:1059740023229100232021019304050013890500AB
:10598400EFF09FF783C7D40093E72700A386F400C2
:105994006308090623A4240103240900631489026B
:1059A400130400006F0000028327440023A2F400C4
:1059B40023A0840023A09700232294006F004004B6
:1059C4001304000063040402930504001385040017
:1059D400EFF0CFE0E34AA0FCE30604FE032749000E
:1059E400E300E4FE032404006FF0DFFD8327490095
:1059F40023A0240123A2F40023A0970023229900CA
:105A04008320C10003248100832441000329010071
:105A1400130101016780000013803000130101FEAF
:105A2400232E1100232C8100232A910023282101F5
:105A34002326310123244101130405009384050026
:105A4400130A060093890600930700007379043053
:105A54006F00C0019385040013050400EFF05FF0AC
:105A64009377890073A0073093071000E38407FE3F
:105A740093050A001386090013050400EFF00FD202
:105A84008320C101032481018324410103290101ED
:105A94008329C100032A81001301010267800000E9
:105AA40013803000130101FF2326110023248100F9
:105AB4002322910013040500938405009305060036
:105AC4001386060093060700B7970080938787FB29
