:0200000480007A
:1000000097B100009381015C970200009382420146
:08001000739052306F004000B4
:04001800EF50801015
:10001C00130101FB232251002324610023267100CC
:10002C002328C101232AD101232CE101232EF10124
:10003C002320A1022322B1022324C1022326D102B0
:10004C002328E102232AF102232C0103232E11037E
:10005C002320110023248104178400001304446915
:10006C00F322103423205104F32300302322710493
:10007C00EF00C014631A0504F3222034B703008088
:10008C009383F3FFB3F272001303B000638A620030
:10009C0013050100970000009380C00B6F504001C6
:1000AC0083220104938242002320510483224100C5
:1000BC0063860200130530006F00800003250102E7
:1000CC00930501006F40D07D0323040093031300BC
:1000DC0023207400631A03009302010003214400DF
:1000EC00130101FF2320510073252034B702008037
:1000FC009382F2FF33755500EF00400B978200009E
:10010C00938282C913153500B382A20003A50200A5
:10011C0003A34200E7000300832304009383F3FF4F
:10012C0023207400639603020321010083258400BD
:10013C00130101FF2320B10013050000EF6010260E
:10014C00832501001301010163040500EF504004F5
:10015C00832201047390123483234104F3920330FD
:10016C000324810483224100032381008323C100E3
:10017C00032E0101832E4101032F8101832FC10125
:10018C000325010283254102032681028326C10235
:10019C000327010383274103032881038328C10319
:1001AC00832001001301010573002030130310009C
:1001BC00B312A30073B3423467800000F3222034DF
:1001CC0037030080B3F26200130500006384020061
:0801DC00130515006780000007
:1001E4009308050013830500130706001308050090
:1001F4009387050063920628B78500809385C5FA26
:100204006376C30EB70601006378D60C93360610E6
:1002140093C61600939636003355D600B385A500D1
:1002240083C5050013050002B386D500B305D54088
:10023400630CD500B317B300B3D6D8003317B60098
:10024400B3E7F6003398B8009355070133D3B702E8
:100254001316070113560601B3F7B702130503007B
:10026400B30866029396070193570801B3E7D700D2
:1002740063FE1701B307F7001305F3FF63E8E70014
:1002840063F617011305E3FFB387E700B38717414C
:10029400B3D8B7021318080113580801B3F7B7020B
:1002A400B3061603939707013368F8009387080091
:1002B400637CD800330807019387F8FF6366E8007E
:1002C4006374D8009387E8FF131505013365F500BF
:1002D40093050000678000003705000193060001C4
:1002E400E36CA6F2930680016FF01FF393060000FF
:1002F400630C0600B70701006370F60C9336061012
:1003040093C6160093963600B357D600B385F5000E
:1003140083C70500B387D70093060002B385F64070
:100324006396F60AB307C340930510009358070178
:1003340033DE1703131607011356060193560801FB
:10034400B3F7170313050E003303C603939707018E
:10035400B3E7F60063FE6700B307F7001305FEFF7B
:1003640063E8E70063F667001305EEFFB387E70071
:10037400B387674033D317031318080113580801D0
:10038400B3F71703B3066602939707013368F800BF
:1003940093070300637CD800330807019307F3FF36
:1003A4006366E8006374D8009307E3FF131505013F
:1003B4003365F50067800000B7070001930600016C
:1003C400E364F6F4930680016FF01FF43317B6006C
:1003D400B356F300135507013313B300B3D7F80032
:1003E400B3E7670033D3A6021316070113560601B9
:1003F4003398B800B3F6A602B308660293950601D3
:1004040093D60701B3E6B6009305030063FE160115
:10041400B306D7009305F3FF63E8E60063F616011D
:100424009305E3FFB386E600B3861641B3D8A6026C
:100434009397070193D70701B3F6A6023306160371
:1004440093960601B3E7D7009386080063FEC700BE
:10045400B307F7009386F8FF63E8E70063F6C70085
:100464009386E8FFB387E70093950501B387C740F8
:10047400B3E5D5006FF09FEB63E6D518B70701002D
:1004840063F4F60413B70610134717001317370065
:10049400B7870080B3D5E6009387C7FAB387B70060
:1004A40083C70700B387E70013070002B305F740CB
:1004B4006316F70213051000E3EE66E033B5C800D7
:1004C4001345150067800000B707000113070001FA
:1004D400E3E0F6FC130780016FF09FFB3357F6004F
:1004E400B396B600B366D7003357F3003313B300A3
:1004F400B3D7F800B3E7670013D30601B35E67020E
:1005040013980601135808013316B60033776702AF
:10051400330ED8031315070113D707013367A70058
:1005240013850E00637EC7013387E6001385FEFF43
:100534006368D7006376C7011385EEFF3307D700DE
:100544003307C741335E67029397070193D70701C7
:10055400337767023308C80313170701B3E7E700CB
:1005640013070E0063FE0701B387F6001307FEFFAF
:1005740063E8D70063F607011307EEFFB387D700DC
:1005840013150501370E01003365E5009306FEFFE0
:100594003377D500B3870741B376D60013580501E6
:1005A400135606013303D702B306D8023307C70232
:1005B4003308C8023306D700135703013307C700B3
:1005C4006374D7003308C80193560701B386060144
:1005D40063E6D702E39ED7CEB70701009387F7FF00
:1005E4003377F700131707013373F300B398B80098
:1005F4003307670093050000E3FEE8CC1305F5FF1D
:100604006FF01FCD93050000130500006780000004
:100614001308060093070500138705006396062058
:10062400B78800809388C8FA63FCC50CB70601003C
:10063400637ED60A9336061093C616009396360048
:100644003353D600B388680083C80800130300023C
:10065400B386D800B308D340630CD3003397150195
:10066400B356D5003318160133E7E600B317150166
:1006740013560801B356C702131508011355050193
:100684003377C702B386A6029315070113D7070170
:100694003367B700637AD7003307E800636607015E
:1006A4006374D700330707013307D740B356C70233
:1006B4003377C702B386A60293970701131707017E
:1006C40093D70701B3E7E70063FAD700B307F8004D
:1006D40063E6070163F4D700B3870701B387D74004
:1006E40033D517019305000067800000370300012C
:1006F40093060001E36666F4930680016FF05FF4ED
:1007040093060000630C060037070100637EE606CB
:100714009336061093C61600939636003357D600C8
:10072400B388E80003C708003307D7009306000224
:10073400B388E6406394E6063387C54093550801C1
:100744003356B702131508011355050193D6070153
:100754003377B7023306A6021317070133E7E6001F
:10076400637AC7003307E800636607016374C70050
:10077400330707013307C740B356B7023377B702CD
:10078400B386A6026FF05FF33707000193060001FA
:10079400E366E6F8930680016FF05FF833181601FC
:1007A400B3D6E500B3171501B39515013357E5002A
:1007B400135508013367B700B3D5A6021313080114
:1007C40013530301B3F6A602B3856502139606011B
:1007D40093560701B3E6C60063FAB600B306D80021
:1007E40063E6060163F4B600B3860601B386B64039
:1007F40033D6A6021317070113570701B3F6A6024F
:1008040033066602939606013367D700637AC700FE
:100814003307E800636607016374C7003307070101
:100824003307C7406FF09FF163E4D51C370801001C
:1008340063FE060513B80610134818001318380091
:10084400B788008033D306019388C8FAB388680058
:1008540083C8080013030002B38808013308134156
:100864006310130563E4B600636CC5003306C5402A
:10087400B386D5403337C500930706003387E64077
:10088400138507009305070067800000B70800017F
:1008940013080001E3E616FB130880016FF05FFA0A
:1008A400B3571601B3960601B3E6D70033D7150143
:1008B40013DE0601335FC7031393060113530301C9
:1008C400B3970501B3551501B3E5F50093D70501B9
:1008D40033160601331505013377C703B30EE3035B
:1008E40013170701B3E7E70013070F0063FED701EF
:1008F400B387F6001307FFFF63E8D70063F6D70159
:100904001307EFFFB387D700B387D741B3DEC7031D
:100914009395050193D50501B3F7C703138E0E0014
:100924003303D30393970701B3E5F50063FE650032
:10093400B385B600138EFEFF63E8D50063F6650049
:10094400138EEEFFB385D50093170701370F01000F
:10095400B3E7C701B38565401303FFFF33F76700AF
:10096400135E060193D7070133736600B30E670263
:10097400338367023307C703B387C703330E6700A4
:1009840013D70E013307C70163746700B387E70108
:1009940013530701B307F300370301001303F3FFF5
:1009A4003377670013170701B3FE6E003307D701CF
:1009B40063E6F500639EF500637CE5003306C740FB
:1009C4003333C700B306D30013070600B387D740F9
:1009D4003307E5403335E500B385F540B385A540DD
:1009E400B39815013357070133E5E800B3D5050182
:1009F40067800000138030009305050003A5418142
:100A04006F00406C138030009305050003A54181FD
:100A14006F00805413803000130101F923268106EE
:100A240013040107232EA4F8232CB4F8232AC4F8B2
:100A34008327C4F92326F4FE832784F92324F4FEB0
:100A44000327C4FE832744F9B307F700232EF4FCDD
:100A540093073000232CF4FC0327C4FE832784FE71
:100A64003347F700832784FDB377F700B337F000EB
:100A740093F7F70F639A0700832744F993B7470066
:100A840093F7F70F63880706130000006F008000D8
:100A9400130000000327C4FE8327C4FDB337F70007
:100AA40093F7F70F638407046F008003832784FEA2
:100AB40083C70700A303F4FA8327C4FE93871700B0
:100AC4002326F4FE832784FE938717002324F4FE51
:100AD4008327C4FE9387F7FF034774FA2380E70054
:100AE4000327C4FE8327C4FDE362F7FC8327C4F90C
:100AF4006F0080280327C4FE832784FDB377F700A3
:100B0400B337F00093F7F70F638607046F00800391
:100B1400832784FE83C70700A30BF4FC8327C4FE4A
:100B2400938717002326F4FE832784FE93871700F8
:100B34002324F4FE8327C4FE9387F7FF034774FD41
:100B44002380E7000327C4FE832784FDB377F700DF
:100B5400E39007FC8327C4FE2322F4FE832784FE4C
:100B64002320F4FE832784FD13C7F7FF8327C4FDE6
:100B7400B377F7002328F4FC832704FD938707FE4B
:100B8400032744FEB337F70093F7F70F638C071A74
:100B94006F00C016832704FE138747002320E4FE5A
:100BA40083A707002326F4FC832704FE138747004A
:100BB4002320E4FE83A707002324F4FC832704FEF8
:100BC400138747002320E4FE83A707002322F4FCB5
:100BD400832704FE138747002320E4FE83A707002E
:100BE4002320F4FC832704FE138747002320E4FE1C
:100BF40083A70700232EF4FA832704FE13874700F4
:100C04002320E4FE83A70700232CF4FA832704FEA1
:100C1400138747002320E4FE83A70700232AF4FA5E
:100C2400832704FE138747002320E4FE83A70700DD
:100C34002328F4FA832704FE138747002320E4FEC5
:100C440083A707002326F4FA832744FE138747006B
:100C54002322E4FE0327C4FC23A0E700832744FEE9
:100C6400138747002322E4FE032784FC23A0E70024
:100C7400832744FE138747002322E4FE032744FC12
:100C840023A0E700832744FE138747002322E4FEC2
:100C9400032704FC23A0E700832744FE13874700AF
:100CA4002322E4FE0327C4FB23A0E700832744FE9A
:100CB400138747002322E4FE032784FB23A0E700D5
:100CC400832744FE138747002322E4FE032744FBC3
:100CD40023A0E700832744FE138747002322E4FE72
:100CE400032704FB23A0E700832744FE1387470060
:100CF4002322E4FE0327C4FA23A0E700832704FD8C
:100D0400938707FE032744FEE366F7E86F0080033A
:100D1400832704FE83A707002324F4FA832744FED1
:100D2400938747002322F4FE832704FE938747001A
:100D34002320F4FE832744FE9387C7FF032784FA06
:100D440023A0E700032744FE832704FDE362F7FCA6
:100D5400832744FE2326F4FE832704FE2324F4FE83
:100D64000327C4FE8327C4FDB337F70093F7F70FB7
:100D7400E39007D28327C4F9138507000324C1062F
:100D8400130101076780000013803000130101FC88
:100D9400232E8102130401042326A4FC2324B4FC7F
:100DA4002322C4FC8327C4FC2326F4FE832784FC6B
:100DB40093F7F70F232EF4FC6F008003832744FC82
:100DC4001387F7FF2322E4FC638007028327C4FE12
:100DD400138717002326E4FE032784FC1377F70FF9
:100DE4002380E7006F00C0008327C4FC6F00C01598
:100DF4008327C4FE93F73700E39207FC032744FCE0
:100E04009307300063F8E7128327C4FE2320F4FE1F
:100E14008327C4FD939787000327C4FDB367F700B6
:100E24002322F4FE832744FE93970701032744FEFD
:100E3400B367F7002322F4FE930700022324F4FE91
:100E44006F008002832784FE032744FEB317F70054
:100E5400032744FEB367F7002322F4FE832784FEAE
:100E6400939717002324F4FE032784FE9307F001CD
:100E7400E3FAE7FC6F000006832704FE13874700AC
:100E84002320E4FE032744FE23A0E700832704FE77
:100E9400138747002320E4FE032744FE23A0E70032
:100EA400832704FE138747002320E4FE032744FE20
:100EB40023A0E700832704FE138747002320E4FED2
:100EC400032744FE23A0E700832744FC938707FFFE
:100ED4002322F4FC032744FC9307F000E3EEE7F835
:100EE4006F004002832704FE138747002320E4FE9B
:100EF400032744FE23A0E700832744FC9387C7FF0E
:100F04002322F4FC032744FC93073000E3ECE7FCC2
:100F1400832704FE2326F4FE6F00C0018327C4FE4A
:100F2400138717002326E4FE032784FC1377F70FA7
:100F34002380E700832744FC1387F7FF2322E4FC84
:100F4400E39E07FC8327C4FC138507000324C10325
:100F540013010104678000001380300063820514CC
:100F640083A7C5FF130101FF2324810023229100DD
:100F740023261100930405001384C5FF63C40708E6
:100F840013850400EF00006C378700808327475ADD
:100F9400638A0710637AF402832604003306D400BC
:100FA400638EC70A2322F400138504002322875A80
:100FB400032481008320C100832441001301010123
:100FC4006F0040696364F4041387070083A7470034
:100FD400E39A07FE03260700B306C7006306D40698
:100FE400636AD40C2322F4002322870013850400AF
:100FF400032481008320C1008324410013010101E3
:101004006F0040653304F4006FF09FF783260700F8
:101014003306D700630E8604636EC4088326040077
:101024003306D400E390C7FC03A6070083A547005A
:1010340013850400B307D6002320F4002322B40050
:10104400232287006FF0DFFA83270400138504004E
:10105400B387C7002320F7006FF09FF903A60700AA
:1010640083A74700B306D6002320D4006FF09FF374
:1010740003260400B386C6002320D7003306D70016
:10108400E396C7F603A6070083A54700138504006B
:10109400B307D6002320F7002322B7006FF05FF5D3
:1010A4006780000023220400138504002322875A4A
:1010B4006FF01FF09307C00023A0F4001385040011
:1010C4006FF01FF313803000130101FE232A9100F7
:1010D4009384350093F4C4FF23282101232E1100A7
:1010E400232C810023263101938484009307C000BC
:1010F4001309050063FEF4049304C00063ECB40414
:1011040013050900EF000054B786008003A7465A70
:10111400630A0704130407006F0040018327440097
:101124001307040063800704138407008327040063
:10113400B3879740E3C407FE1306B0006366F60A5C
:10114400832744006300E40E2322F7006F00800528
:10115400E3D604FA9307C0002320F9001305000026
:101164006F00C006378400808327045A6382070A0D
:101174009385040013050900EF0080149309F0FF20
:10118400630C3507130435001374C4FF630A850028
:10119400B305A44013050900EF008012630E350562
:1011A4002320940013050900EF00C04A1305B4007E
:1011B40093074400137585FF3307F5406308F50072
:1011C4003304E400B387A7402320F4008320C10143
:1011D4000324810183244101032901018329C100DE
:1011E40013010102678000002320F4003304F4009B
:1011F400232094006FF01FFB9307C0001305090020
:101204002320F900EF000045130500006FF01FFCD8
:101214009305000013050900EF00800A2320A45A57
:101224006FF01FF523A2F65A6FF0DFF7138030003A
:10123400130101FC2324C1022326D1022328E10245
:10124400232AF102232C0103232E11031386050004
:101254008325850093068102232E11002326D100C5
:10126400EF0080538320C101130101046780000053
:101274001380300003A34181130101FC2324C10224
:101284002326D1022322B1022328E102232AF102D8
:10129400232C0103232E110383258300930641028B
:1012A4001306050013050300232E11002326D10085
:1012B400EF00804E8320C101130101046780000008
:1012C40013803000130101FF2324810023229100A5
:1012D40013040500B784008013850500232611003C
:1012E40023A4045AEF4040169307F0FF630CF50063
:1012F4008320C100032481008324410013010101E0
:101304006780000083A7845AE38407FE8320C1001A
:101314002320F400032481008324410013010101EC
:101324006780000013803000130101FD2326810231
:1013340013040103232EA4FCB7877F7F9387F7F759
:101344002326F4FE0327C4FD8327C4FE3377F70066
:101354008327C4FE3307F7008327C4FD3367F700F0
:101364008327C4FEB367F70093C7F7FF138507000D
:101374000324C102130101036780000013803000BD
:10138400130101FC232E1102232C810213040104F6
:101394002326A4FC8327C4FC2324F4FE8327C4FC53
:1013A40093F73700638207048327C4FC83C70700CD
:1013B400A303F4FE8327C4FC938717002326F4FCBD
:1013C400834774FE639C07000327C4FC832784FEC1
:1013D400B307F7409387F7FF6F00C0218327C4FC4E
:1013E40093F73700E39207FC8327C4FC2326F4FE1B
:1013F400130000008327C4FE138747002326E4FE5E
:1014040083A7070013850700EFF0DFF193070500BA
:10141400E38207FE8327C4FE2326F4FE8327C4FE4B
:101424002326F4FC0327C4FC832784FEB307F74078
:101434002320F4FE93074000232EF4FC8327C4FDED
:10144400B307F0400327C4FCB307F70083C70700C2
:10145400A30DF4FC130710008327C4FDB307F74062
:101464000327C4FCB307F70083C70700230DF4FC6C
:10147400130720008327C4FDB307F7400327C4FCE8
:10148400B307F70083C70700A30CF4FC130730006D
:101494008327C4FDB307F7400327C4FCB307F70051
:1014A40083C70700230CF4FC8347B4FD639A070049
:1014B400032704FE8327C4FDB307F7406F0080139E
:1014C4008347A4FD639C0700032704FE8327C4FD10
:1014D400B307F740938717006F00C011834794FD4B
:1014E400639C0700032704FE8327C4FDB307F7406A
:1014F400938727006F0000100327C4FD9307400063
:101504006306F700834784FD639C0700032704FEFA
:101514008327C4FDB307F740938737006F00800D1E
:10152400130740008327C4FDB307F7400327C4FC17
:10153400B307F70083C70700A30DF4FC130750009B
:101544008327C4FDB307F7400327C4FCB307F700A0
:1015540083C70700230DF4FC130760008327C4FD31
:10156400B307F7400327C4FCB307F70083C707009A
:10157400A30CF4FC130770008327C4FDB307F740E2
:101584000327C4FCB307F70083C70700230CF4FC4C
:101594008347B4FD639C0700032704FE8327C4FD2F
:1015A400B307F740938747006F00C0048347A4FD47
:1015B400639C0700032704FE8327C4FDB307F74099
:1015C400938757006F000003834794FD639C0700D3
:1015D400032704FE8327C4FDB307F74093876700FE
:1015E4006F004001032704FE8327C4FDB307F740BF
:1015F40093877700138507008320C10303248103A5
:10160400130101046780000013803000B306B500A5
:1016140093070500639805006F0040029387170045
:10162400638AF60003C70700E31A07FE3385A74061
:10163400678000003385A640678000001305000022
:10164400678000001380300037B500801305C5DDC6
:101654006F3090661380300037B500801305C5DD08
:101664006F30D06713803000832786009387F7FF9D
:101674002324F60063DA07000327860163C2E70226
:101684009307A000638EF5008327060013850500E9
:10169400138717002320E6002380B700678000002B
:1016A4006F00805713803000638C0608130101FE1D
:1016B400232C8100232A9100232821012326310190
:1016C40023244101232E11001309050093890500E9
:1016D40013040600B304D600130AF0FF6F00800061
:1016E400630E940283450400138609001305090060
:1016F400EFF05FF713041400E31445FF8320C101E6
:101704000324810183244101032901018329C100A8
:10171400032A810013010102678000008320C101B4
:101724000324810183244101032901018329C10088
:10173400032A8100130500001301010267800000E1
:1017440013050000678000001380300083278600A3
:10175400130101FF23248100232611001304060032
:10176400639E07008320C100232204000324810018
:10177400130500001301010167800000EF00107CD5
:101784008320C100232404002322040003248100B5
:10179400130101016780000013803000130101F47C
:1017A400232C810A2326310B2324410B232A91095C
:1017B400232E110A232A910A2328210B2322510BB9
:1017C4002320610B232E7109232C81092328A109CD
:1017D4002326B109130A050093890500930C06001A
:1017E400138406006306050083278503638C073E84
:1017F40003A749068397C9001377170063160700E8
:1018040013F707206304073E93F787006388070EE6
:1018140083A709016384070E93070002A30CF10256
:1018240093070003230DF10293070000232A01020A
:10183400232E8100B784008013091000378B0080A9
:10184400B78B00802326F10083C70C00638807044C
:1018540013840C0013075002638EE70C83471400B3
:1018640013041400E39A07FEB30D94416308940330
:10187400130C0000130DF0FF6F008000637ABC2B83
:1018840033878C01834507001386090013050A007A
:10189400EFF05FDD130C1C00E312A5FF83A74906DC
:1018A40093F71700639C073283D7C90013F7072007
:1018B4006302073293F70704639A0706032541037B
:1018C4008320C10B0324810B8324410B0329010BC7
:1018D4008329C10A032A810A832A410A032B010AA4
:1018E400832BC109032C8109832C4109032D010990
:1018F400832DC1081301010C678000009385090042
:1019040013050A00EF000047E30805F083A7490622
:1019140093F71700639C070083D7C90093F7072048
:101924006396070003A58905EF30503B1305F0FFCC
:101934006FF01FF9B30D9441E31C94F38347040043
:10194400E38E07F49307F0FF13041400232001022D
:10195400232601022322F10223240102A30101060A
:10196400232C01066F004001130407000327010222
:10197400B367F7002320F1028345040013065000E7
:1019840013850456EF10C0589387045613071400A8
:10199400B307F540B317F900930C0700E31605FCF1
:1019A4008327010293F6070163860600930600026B
:1019B400A301D10693F68700638606009306B0025E
:1019C400A301D106834504009306A002639CD50AB3
:1019D4000327C1018326070013074700232EE100D4
:1019E40063C206162326D102834514009307E0023E
:1019F4006380F50E1306300013058B56EF1040512B
:101A04006302050293078B563305F54083270102D1
:101A1400130700043317A700B3E7E700938C1C00F7
:101A24002320F10283C50C00130660001385CB56F6
:101A3400230CB102EF10C04D938C1C0063080512F7
:101A44008327C1006380070CB71700801307C10107
:101A54009386876A138609009305010213050A0019
:101A640097000000E7000000930A05009307F0FFC9
:101A7400E386FAE283274103B3875701232AF1025D
:101A84006FF09FDC938605FD93079000930C040090
:101A9400E3EED7F40326C102130590006F00800023
:101AA400130717009317260083450700B387C70061
:101AB400939717003386D700938605FDE372D5FE0E
:101AC4002326C1029307E002930C0700E394F5F286
:101AD40083C51C009307A002639CF50A8327C101F8
:101AE40083C52C0093862C0003A707009387470027
:101AF400232EF1002322E10263440702938C0600A3
:101B04006FF05FEF032701028327C10113770710EA
:101B14006304070493874700232EF1006FF09FF5B9
:101B24009307F0FF2322F102938C06006FF09FECE1
:101B340003274103834704003307B701232AE10243
:101B44006FF01FE0B306D04093E727002326D102AD
:101B54002320F1026FF05FE99387770093F787FF03
:101B640093878700232EF1006FF0DFF0B717008012
:101B74001307C1019386876A13860900930501023E
:101B840013050A00EF101016930A05006FF01FEEFC
:101B940023220102138705FD93079000938C1C00F8
:101BA400E3EAE7E4930600001306900083C51C00F3
:101BB40093972600B387D70093971700B386E7005F
:101BC400138705FD938C1C00E372E6FE2322D102E9
:101BD4006FF05FE203A58905EF30501083D7C90089
:101BE4006FF05FCDEF00007C6FF09FC003A5890507
:101BF400EF30900C8397C9006FF01FC11380300041
:101C04009307050003A5418193060600138605008A
:101C1400938507006FF05FB813803000130101FE55
:101C2400232C8100232A910023282101232E110033
:101C340023263101130905009384050013040600CB
:101C44006306050083278503638607100327840141
:101C54008357C4002324E40093F78700638E0706A8
:101C640083270401638A07060327040083264401AB
:101C740093F9F40FB307F74093F4F40F63D4D70840
:101C840083268400130617002320C4009386F6FFDE
:101C94002324D4002300370103274401938717002A
:101CA400630EF7088357C40093F717006386070091
:101CB4009307A0006384F4088320C10103248101F5
:101CC400032901018329C1001385040083244101F0
:101CD4001301010267800000930504001305090045
:101CE400EF00400963140506832704010327040059
:101CF4008326440193F9F40FB307F74093F4F40FE8
:101D0400E3C0D7F89305040013050900EF00803CF5
:101D1400631E050203270400832684009307100032
:101D2400130617009386F6FF2320C4002324D4004F
:101D34002300370103274401E316F7F69305040053
:101D440013050900EF000039E30805F69304F0FFDA
:101D54006FF09FF6EF0000656FF05FEF13803000C7
:101D64009307050003A541811386050093850700A9
:101D74006FF09FEA1380300083A74181130101FFB4
:101D840023248100232291002326110093040500BB
:101D9400138405006386070003A78703630007080D
:101DA4008317C40013F7870063040708032704019B
:101DB4006300070A93F6170063880602832644012A
:101DC4002324040013050000B306D040232CD400C0
:101DD400630A07028320C100032481008324410095
:101DE400130101016780000093F627001306000029
:101DF40063940600032644012324C4001305000051
:101E0400E31A07FC13F70708E30607FC93E7070444
:101E14002316F4001305F0FF6FF0DFFB13850700B2
:101E2400EF0040588317C40013F78700E31007F846
:101E340013F70701630A070613F74700631C070239
:101E44000327040193E787002316F400E31407F63D
:101E540093F6072813060020E38EC6F493050400C6
:101E640013850400EF00906D8317C4000327040159
:101E74006FF05FF483250403638E050013070404E5
:101E84006388E50013850400EFF00F8D8317C40009
:101E9400232804020327040193F7B7FD2322040037
:101EA4002320E4006FF01FFA1307900023A0E4003E
:101EB40093E707046FF0DFF5138030008397C500C4
:101EC400130101FE232C810023263101232E11004E
:101ED400232A91002328210113F787001384050086
:101EE400930905006312070E03A745006350E0162B
:101EF40003288402630A080A13D7C70083A40900CD
:101F04001377170023A009008325C401631807145D
:101F1400130600009306100013850900E70008006B
:101F24009307F0FF130605006304F5188317C40034
:101F3400032884028325C40193F74700638E0700B6
:101F440003274400832704033306E640638607001F
:101F54008327C4033306F640930600001385090063
:101F6400E70008009307F0FF630EF5100327040150
:101F74008357C400232204002320E4003717000001
:101F8400B3F7E700639C070E8325040323A099009D
:101F9400638C0500930704046386F5001385090028
:101FA400EFE09FFB23280402130500008320C101F6
:101FB4000324810183244101032901018329C100F0
:101FC400130101026780000003A90501E30E09FC67
:101FD40083A4050093F7370023A02501B38424418B
:101FE400130700006394070003A745012324E400BA
:101FF400634890006FF05FFB3309A900E35690FA41
:10200400832744028325C401938604001306090030
:1020140013850900E7800700B384A440E34EA0FCC5
:102024008317C40093E707048320C1012316F40037
:102034000324810183244101032901018329C1006F
:102044001305F0FF130101026780000003A7C50315
:10205400E340E0EA130500006FF05FF50326040592
:102064006FF09FED0327040193D7C70023220400D8
:102074002320E40093F71700E38807F02328A4043F
:102084006FF09FF003A709008317C400E30C07FC5B
:102094009306D0016306D70093066001E314D7F8D2
:1020A40083270401232204002320F4006FF0DFEDD2
:1020B40083A70900E38C07E61307D0016386E700D2
:1020C40013076001E39EE7F423A0990013050000C1
:1020D4006FF0DFED13803000130101FF2324810032
:1020E40023229100232611002320210193040500BB
:1020F40013840500630605008327850363840706AC
:102104008317C400130900006380070403274406EF
:10211400137717006316070093F7072063880704F3
:102124009305040013850400EFF01FD983274406A8
:102134001309050093F71700639807008357C40039
:1021440093F70720638807048320C10003248100D8
:10215400832441001305090003290100130101012F
:1021640067800000EF0000246FF09FF903258405C9
:10217400EF3080349305040013850400EFF0DFD3BF
:10218400832744061309050093F71700E39E07FA13
:102194006FF0DFFA03258405EF3040348320C1005B
:1021A400032481008324410013050900032901004D
:1021B400130101016780000013803000630A050ADF
:1021C400130101FF2320210103A94181232481005C
:1021D400232611002322910013040500630609003D
:1021E40083278903638407068317C40093040000CC
:1021F4006380070403274406137717006316070058
:1022040093F70720638A0704930504001305090064
:10221400EFF09FCA832744069304050093F7170041
:10222400639807008357C40093F70720638C070261
:102234008320C100032481000329010013850400C5
:102244008324410013010101678000001305090084
:10225400EF0040156FF05FF903258405EF30C025CA
:102264006FF09FFA03258405EF3040276FF05FFC81
:10227400B787008003A587FAB72500809385850D6D
:102284006F00502013803000B72500809385850DA2
:102294006F00501F138030008327450693F7170003
:1022A400639807008357C50093F7072063860700E8
:1022B400130500006780000003258505130101FF55
:1022C40023261100EF30401F8320C10013050000B6
:1022D4001301010167800000138030008327450645
:1022E40093F71700639807008357C50093F70720F7
:1022F4006386070013050000678000000325850539
:10230400130101FF23261100EF30401D8320C1007B
:1023140013050000130101016780000013803000E1
:10232400130101FF23229100930780069384F5FF94
:10233400B384F4022320210113890500232481009E
:102344002326110093854407EFE0DFD7130405002B
:10235400630005021305C500232004002322240181
:102364002324A4001386840693050000EFE0DFA174
:102374008320C10013050400032481008324410049
:10238400032901001301010167800000138030005C
:10239400B787008003A587FAB72500809385850D4C
:1023A4006F00500E13803000130101FE23225101EF
:1023B400232A91009304050013854184232E1100E0
:1023C400232C8100232821012326310123244101C8
:1023D40023206101EF30400E83A784036398071420
:1023E400B727008003A444009387872823AEF40210
:1023F400138784159307300023AAE41423A8F41444
:1024040023A60414930740002326F4001306800037
:102414009305000023200400232204002324040045
:102424002322040623280400232A0400232C040066
:102434001305C405374B0080374A0080B749008034
:1024440037490080EFE05F94130B8B8E130A4A9593
:102454009389099E1309C9A513058405232E8400B5
:102464002320640323224403232434032326240344
:10247400EF30400103A48400B7070100938797005D
:102484002326F40013068000930500002320040093
:102494002322040023240400232204062328040006
:1024A400232A0400232C04001305C405EFE0DF8D68
:1024B40013058405232E840023206403232244036C
:1024C4002324340323262403EF20D07B03A4C40055
:1024D400B7070200938727012326F4001306800020
:1024E4009305000023200400232204002324040075
:1024F4002322040623280400232A0400232C040096
:102504001305C405EFE05F8813058405232E8400BA
:102514002320640323224403232434032326240393
:10252400EF2050769307100023ACF40203248101BA
:102534008320C10183244101032901018329C100AE
:10254400032A8100032B010013854184832A41005F
:10255400130101026F20907813803000130101FEF3
:102564002326310123244101130A05001385018325
:1025740023282101232E1100232C8100232A9100DA
:10258400EF209073B787008003A987FA8327890314
:102594006380070C1309C9149304F0FF83274900CF
:1025A400032489009387F7FF63D807006F0040096D
:1025B40013048406638697080317C4009387F7FF00
:1025C400E31807FEB707FFFF938717002326F400DD
:1025D4001305840523220406EF20D06A13850183A2
:1025E400EF20D06F1306800023200400232404006E
:1025F4002322040023280400232A0400232C04009B
:10260400930500001305C405EFE00FF82328040226
:10261400232A040223220404232404048320C10162
:1026240013050400032481018324410103290101CA
:102634008329C100032A810013010102678000007D
:1026440003240900630C0400130904006FF01FF550
:1026540013050900EFF01FD56FF0DFF39305C01ADF
:1026640013050A00EFE01FA6130405006308050222
:102674001305C50093074000232004002322F4001F
:102684002324A4001306001A93050000EFE0CFEF03
:1026940023208900130904006FF05FF02320090050
:1026A40013850183EF2090639307C0002320FA0071
:1026B4006FF0DFF613803000138501836F20D05F45
:1026C40013803000138501836F2050611380300024
:1026D400138541846F20505E13803000138541843C
:1026E4006F20D05F13803000130101FF1385018335
:1026F40023261100EF20505C8320C10003A54181F3
:10270400B725008093858529130101016F00004DD1
:102714001380300003A54181B7250080130101FF18
:102724009385C52D23261100EF00404B8320C10063
:1027340013850183130101016F20505A1380300067
:1027440083278600638A07308396C500130101FD41
:1027540023248102232C4101232861012326110211
:102764002322910223202103232E3101232A510104
:1027740023267101232481012322910193F78600EA
:10278400130B0600130A050013840500638607086B
:1027940083A705016382070893F7260083240B00AF
:1027A400638C0708832744028325C401B70A008089
:1027B400930900001309000093CA0AC01386090094
:1027C40013050A00630209049306090063F42A014D
:1027D40093860A00E78007006356A02683278B00B0
:1027E400B389A9003309A940B387A7402324FB0078
:1027F40063860720832744028325C40113860900C6
:1028040013050A00E31209FC83A9040003A9440088
:10281400938484006FF09FFA9305040013050A0063
:10282400EFF04FD5631605228316C40083240B00F2
:1028340093F72600E39807F693F71600639C0712B4
:102844008327040003278400B70A0080930B000049
:102854009309000093CAFAFF13850700130C0700BD
:102864006382091013F60620630C0624930C0700F8
:1028740063E4E92E13F70648630A070803264401B4
:1028840083250401131716003307C7003389B740A3
:10289400135CF701330CEC0093071900135C1C4024
:1028A400B387370113060C006376FC00138C070012
:1028B4001386070093F60640638C062C93050600E6
:1028C40013050A00EFE01F80930C05006300053038
:1028D4008325040113060900EFE0CF938357C40056
:1028E40093F7F7B793E707082316F40033852C0111
:1028F400B3072C4123289401232A84012320A40014
:10290400138C09002324F400938C090013860C0013
:1029140093850B00EF00406C032784008327040099
:102924001389090033078741B38797012324E400FF
:102934002320F4009309000083278B00B38B2B0121
:10294400B38727412324FB00638A070A83270400F3
:10295400032784008316C40013850700130C0700A3
:10296400E39209F083AB040083A9440093848400B8
:102974006FF09FEE930A000013050000130C000093
:1029840093090000638E090C6306050E93870A0001
:10299400938B090063F43701938B0700032504002C
:1029A40083270401032984008326440163F6A700D6
:1029B4003309D9006340790F63C6DB1A83274402C5
:1029C4008325C40113060C0013050A00E7800700E1
:1029D400130905006358A006B38A2A4113051000A1
:1029E400638A0A0483278B00330C2C01B3892941A1
:1029F400B38727412324FB00E39607F8130500005F
:102A04008320C10203248102832441020329010299
:102A14008329C101032A8101832A4101032B010176
:102A2400832BC100032C8100832C4100130101037B
:102A3400678000009305040013050A00EFF08FE996
:102A4400E30205FA8317C40093E707042316F4008E
:102A54001305F0FF6FF0DFFA130500006780000034
:102A640083A944009387040093848400E38A09FEC5
:102A740003AC0700138609009305A00013050C009E
:102A8400EF000049630E051213051500B30A8541D2
:102A94006FF0DFEF93050C0013060900EF00C0533D
:102AA400832704009305040013050A00B387270154
:102AB4002320F400EFF00FE2E30005F26FF09FF83B
:102AC4008326040163E2F6040326440163EEC9028B
:102AD4009387090063F43A0193870A00B3E6C702B7
:102AE400032744028325C40113860B0013050A003F
:102AF400B386D740E700070013090500E354A0F4A8
:102B0400B38929416FF05FE31309070063F4E90017
:102B140013890900138507001306090093850B0028
:102B2400EF00804B032784008327040033072741E9
:102B3400B38727012324E4002320F400E31207FCD5
:102B44009305040013050A00EFF0CFD8E31C05EE4B
:102B5400B38929416FF05FDE138C0900938C09005F
:102B64006FF0DFDA13860B0093050C00EF00C0460C
:102B7400032784008327040013890B00330777415C
:102B8400B38777012324E4002320F4006FF0DFE40B
:102B940013050A00EF000065930C0500E31805D443
:102BA4008325040113050A00EFE00FBB8317C4005B
:102BB4001307C0002320EA0093F7F7F76FF0DFE86C
:102BC40093871900938A07006FF09FDC1307C000F6
:102BD4008317C4002320EA006FF01FE7138030003E
:102BE400130101FE2328210123263101232441015D
:102BF4002322510123206101232E1100232C810063
:102C0400232A9100138B0500930AC514130A0000AC
:102C1400930910001309F0FF83A44A0003A48A0057
:102C24009384F4FF63C604028357C4009384F4FFBF
:102C340063FCF9008317E40013050400638627018D
:102C4400E7000B00336AAA0013048406E39E24FD04
:102C540083AA0A00E3920AFC8320C10103248101B0
:102C640083244101032901018329C100832A4100EE
:102C7400032B010013050A00032A8100130101023A
:102C84006780000013803000130101FD232021031D
:102C9400232E3101232C4101232A510123286101D0
:102CA4002326710123261102232481022322910267
:102CB400930A0500938B0500130BC514130A000037
:102CC400930910001309F0FF83244B0003248B00A5
:102CD4009384F4FF63C804028357C4009384F4FF0D
:102CE40063FEF9008317E4009305040013850A00CA
:102CF40063862701E7800B00336AAA001304840665
:102D0400E39C24FD032B0B00E3100BFC8320C10286
:102D14000324810283244102032901028329C1017E
:102D2400832A4101032B0101832BC10013050A00EF
:102D3400032A81011301010367800000138030001E
:102D44008397C500130101F8232C8106232E110655
:102D5400232A9106232821072326310713F7270066
:102D640013840500630A07029387350423A0F50042
:102D740023A8F5009307100023AAF5008320C107B8
:102D84000324810783244107032901078329C106FA
:102D940013010108678000008395E5009304050092
:102DA40063C6050813068100EF001059634E05063B
:102DB4008327C10037F90000930900403379F900F3
:102DC400B7E7FFFF3309F9001339190093850900A8
:102DD40013850400EFE00FAF630C05068357C400AE
:102DE400372700801307872823AEE40293E70708F8
:102DF4002316F4002320A4002328A400232A34014A
:102E0400E30E09F68315E40013850400EF009059DE
:102E1400E30605F68357C40093F7C7FF93E717004B
:102E24002316F4006FF09FF58317C40093F7070887
:102E34001309000093090004E39A07F8930900407A
:102E44009385090013850400EFE0CFA7E31805F884
:102E54008317C40013F70720E31207F293F7C7FFA1
:102E640093E72700130734042316F4009307100094
:102E74002320E4002328E400232AF4006FF01FF049
:102E840013803000130101F9232481061384050003
:102E94008395E5002322910623202107232611068A
:102EA400930406001389060063C805041306810011
:102EB400EF009048634205040327C100B7F7000000
:102EC400B3F7E70037E7FFFFB387E70093B71700CF
:102ED400130700408320C106032481062320F90040
:102EE40023A0E400032901068324410613050000FE
:102EF40013010107678000008357C40093F7070894
:102F0400E38807FC93070000130700046FF09FFC9D
:102F1400138030009377350093F6F50F638E070224
:102F24009307F6FF630606021306F0FF6F008001A5
:102F34001305150013773500630207029387F7FF23
:102F44006388C70003470500E314D7FE67800000C9
:102F54001305000067800000930706001307300084
:102F6400637CF70493F5F50F13978500B305B70059
:102F740013970501B708FFFE37888080B385E50005
:102F84009388F8EF13080808130330006F0000015A
:102F94009387C7FF130545006370F30203270500F9
:102FA40033C7E500330617011347F7FF3377E6000D
:102FB40033770701E30E07FC3307F5006398070036
:102FC4006FF01FF913051500E304A7F88347050004
:102FD400E39AD7FE6780000013803000130101FDDF
:102FE4002326810213040103232EA4FC232CB4FC06
:102FF400232AC4FC8327C4FD2326F4FE832784FDEF
:103004002324F4FE032784FE8327C4FE637CF7068F
:10301400032784FE832744FDB307F7000327C4FE78
:103024006372F706032784FE832744FDB307F70082
:103034002324F4FE0327C4FE832744FDB307F700CB
:103044002326F4FE6F00C002832784FE9387F7FFD4
:103054002324F4FE8327C4FE9387F7FF2326F4FE7C
:10306400832784FE03C707008327C4FE2380E70069
:10307400832744FD1387F7FF232AE4FCE39607FC28
:103084006F000015032744FD9307F00063FAE7126D
:10309400032784FE8327C4FEB367F70093F7370042
:1030A400639007128327C4FE2322F4FE832784FE41
:1030B4002320F4FE6F000009032704FE9307470052
:1030C4002320F4FE832744FE938647002322D4FE64
:1030D4000327070023A0E700032704FE9307470004
:1030E4002320F4FE832744FE938647002322D4FE44
:1030F4000327070023A0E700032704FE93074700E4
:103104002320F4FE832744FE938647002322D4FE23
:103114000327070023A0E700032704FE93074700C3
:103124002320F4FE832744FE938647002322D4FE03
:103134000327070023A0E700832744FD938707FFA5
:10314400232AF4FC032744FD9307F000E3E6E7F6A3
:103154006F000003032704FE930747002320F4FEB7
:10316400832744FE938647002322D4FE03270700C7
:1031740023A0E700832744FD9387C7FF232AF4FC99
:10318400032744FD93073000E3E6E7FC832744FE6E
:103194002326F4FE832704FE2324F4FE6F0040025A
:1031A400032784FE930717002324F4FE8327C4FE19
:1031B400938617002326D4FE034707002380E700E5
:1031C400832744FD1387F7FF232AE4FCE39A07FCD3
:1031D4008327C4FD138507000324C10213010103DF
:1031E4006780000013803000130101FE232C81004E
:1031F400232E1100232A91002328210123263101A3
:10320400130406006388050A630206089384050014
:1032140013090500EF0050269389040063628502B8
:103224008320C10103248101832441010329010175
:10323400138509008329C10013010102678000007E
:103244009305040013050900EFD0DFE79309050097
:10325400630005041306040093850400EFD08FFB7C
:103264001305090093850400EFD01FCF8320C1010B
:1032740003248101832441010329010113850900E9
:103284008329C1001301010267800000EFD0DFCC65
:103294008320C10103248101930900008324410197
:1032A40003290101138509008329C10013010102C7
:1032B40067800000032481018320C101832441012C
:1032C400032901018329C1009305060013010102AA
:1032D4006FD05FDF13803000130101FD23248102CE
:1032E400138405008327040183A58500232021037B
:1032F400232E3101232C4101232A510123261102BB
:103304002322910223286101232671011309050058
:10331400930A060093890600130A070063D4B700D2
:103324009387050023A0FA008346340463860600CD
:103334009387170023A0FA008327040013F70702DA
:103344006300071403A70A001307270023A0EA0059
:103354008327040093F6670013860700639E060024
:103364008326C400930B940193040000130BF0FF15
:10337400138607006346D70E834634041376060289
:10338400B336D00063020602B307D4001307000368
:10339400A381E7040347540493871600B307F4009A
:1033A40093862600A381E704130634049385090059
:1033B40013050900E7000A009307F0FF6302F5060E
:1033C40083270400930540008326C40093F7670015
:1033D40003A50A0003278400032604016388B70CAD
:1033E4006352E60E930A00003307C740B38AEA002B
:1033F4001304A40193040000130BF0FF6F0080007A
:1034040063D2540D9306100013060400938509003B
:1034140013050900E7000A0093841400E31265FF12
:103424001305F0FF8320C102032481028324410297
:10343400032901028329C101032A8101832A41014D
:10344400032B0101832BC1001301010367800000DA
:103454008327C40003A70A00B387E74063D8F406B0
:103464009306100013860B009385090013050900C9
:10347400E7000A0093841400E31C65FD6FF05FFA13
:1034840013F76700B336D000E31007F203A70A006E
:103494008326C400930B940193040000130BF0FFE4
:1034A40013860700E34ED7FA6FF01FEDB386A640EC
:1034B40093CAF6FF93DAFA41B3FA5601E346E6F209
:1034C400E348D0F2130500006FF0DFF50326040093
:1034D4008346340413760602B336D000E31606EAB4
:1034E4006FF09FEC13803000130101FC232C810248
:1034F400232821032326310323244103232E1102ED
:10350400232A91022322510323206103232E7101D4
:1035140003C88501138405001309050093090600F7
:10352400138A06009385350463080804930788FA10
:1035340093F7F70F9306000263E6F610B786008050
:10354400939727009386061BB387D70083A70700AA
:1035540067800700832704008326070003254401AE
:1035640013F6070813884600630A062E2320070172
:1035740083A7060023A0A700232804009384050042
:1035840013070A00938609001306C100930504007B
:1035940013050900EFF01FD4930AF0FF63065507E3
:1035A400832604011386040093850900130509008A
:1035B400E7000A00630A5505832704000325C400B5
:1035C400832AC10093F727006388070663D6AA06F7
:1035D400930B940193040000130BF0FF6F00400160
:1035E4000325C40093841400B307554163D6F4043F
:1035F4009306100013860B00938509001305090038
:10360400E7000A00E31E65FD1305F0FF8320C103F4
:103614000324810383244103032901038329C10271
:10362400032A8102832A4102032B0102832BC10155
:103634001301010467800000E35A55FD13850A0055
:103644006FF0DFFC930424042301040593071000A6
:103654002328F400A30104046FF09FF283260400DE
:103664008327070013F60608138547006316060030
:1036740013F606046316062003A607002320A700FA
:103684009307060003274400634A06203786008018
:10369400130646571305A0006F00000F832704008C
:1036A4008326070013F607081385460063160600F1
:1036B40093F707046390071C83A706002320A70041
:1036C400378600801307F00613064657130580005B
:1036D4006308E80A1305A0006F00800A8326070028
:1036E400930424049307100003A60600938646005F
:1036F4002320D7002301C4046FF09FF5832707001C
:103704000326440093050000938647002320D70036
:1037140083A4070013850400EFF08FFF6300051CEA
:10372400B30795402322F4006FF09FF28326040030
:1037340093E606022320D40093078007A302F4042F
:10374400032507003786008093F70608130686587A
:1037540013084500639E070893F70604638A070865
:10376400835705002320070113F71600630607009B
:1037740093E606022320D4006382070413050001A4
:1037840003274400A30104042324E400634C070634
:103794008326040093F6B6FF2320D400639407061F
:1037A4009384050063140712930780006304F508EB
:1037B400B38595402328B4006FF09FDC03270400F1
:1037C4001377F7FD2320E4006FF05FFB9307800578
:1037D400A302F4048326040003250700378600802F
:1037E40093F706081306465713084500E38607F6C1
:1037F40083270500232007016FF01FF783260400A9
:103804006FF09FF3930805009384050033F81703C2
:103814009384F4FF138707003308060183460800E6
:10382400B3D717032380D400E37217FF93078000F4
:10383400E310F5F88327040093F71700E38A07F6EB
:103844000327440083270401E3C4E7F69307000336
:10385400A38FF4FE9384F4FF6FF09FF593F70704AE
:10386400232007016386070283A706002390A7008D
:103874006FF09FD083D706002320A7006FF05FE48A
:10388400839707002320A700138607006FF09FDFAC
:1038940083A7060023A0A7006FF01FCE1306D00253
:1038A400A301C4042324E4006346070093F6B6FF8F
:1038B4002320D40037860080B307F0409308A0008B
:1038C400130646571305A0006FF01FF48347060044
:1038D400930424042301F4046FF01FED83274400B0
:1038E4006FF01FD713803000130101FF23248100E0
:1038F400138405008395E50023261100EF00003AA8
:1039040063400502832704058320C100B387A70011
:103914002328F404032481001301010167800000BB
:103924008357C40037F7FFFF1307F7FFB3F7E70028
:103934008320C1002316F400032481001301010134
:1039440067800000138030001305000067800000CA
:10395400138030008397C500130101FE232C8100DE
:10396400232A91002328210123263101232E11002B
:1039740013F70710138405009304050013090600C8
:10398400938906006310070437F7FFFF1307F7FF57
:10399400B3F7E7008315E4002316F4000324810140
:1039A4008320C10193860900130609008329C100FD
:1039B4000329010113850400832441011301010239
:1039C4006F00400A8395E50093062000130600006B
:1039D400EF0080238317C4006FF01FFB13803000B7
:1039E400130101FF23248100138405008395E5005E
:1039F40023261100EF0040219307F0FF6308F5022E
:103A04008357C400371700008320C100B3E7E700E1
:103A14009397070193D707412328A4042316F4009E
:103A24000324810013010101678000008357C4004F
:103A340037F7FFFF1307F7FFB3F7E7009397070183
:103A440093D707418320C1002316F4000324810087
:103A54001301010167800000138030008395E500A5
:103A64006F00400713803000130101FF1387050026
:103A740023248100232291009305060013040500EA
:103A8400B78400801386060013050700232611005F
:103A940023A4045AEF1090159307F0FF630CF5006C
:103AA4008320C10003248100832441001301010108
:103AB4006780000083A7845AE38407FE8320C10043
:103AC4002320F40003248100832441001301010115
:103AD4006780000013803000130101FF232481005C
:103AE4002322910013040500B78400801385050088
:103AF4002326110023A4045AEF1090119307F0FF1A
:103B0400630CF5008320C100032481008324410059
:103B1400130101016780000083A7845AE38407FE30
:103B24008320C1002320F400032481008324410066
:103B3400130101016780000013803000130101FFAD
:103B44001387050023248100232291001304050018
:103B5400B78400809305060013050700232611008F
:103B640023A4045AEF10100D9307F0FF630CF50023
:103B74008320C10003248100832441001301010137
:103B84006780000083A7845AE38407FE8320C10072
:103B94002320F40003248100832441001301010144
:103BA4006780000013803000130101FF232481008B
:103BB4002322910013040500B784008013850500B7
:103BC4002326110023A4045AEF1010069307F0FFD4
:103BD400630CF5008320C100032481008324410089
:103BE400130101016780000083A7845AE38407FE60
:103BF4008320C1002320F400032481008324410096
:103C0400130101016780000013803000130101FFDC
:103C140013870500232481002322910093050600C5
:103C240013040500B78400801386060013050700FB
:103C34002326110023A4045AEF10407E9307F0FFBB
:103C4400630CF5008320C100032481008324410018
:103C5400130101016780000083A7845AE38407FEEF
:103C64008320C1002320F400032481008324410025
:103C740013010101678000001380300083A7C5FF92
:103C84001385C7FF63C4070067800000B385A500E0
:103C940083A705003305F50067800000138030001A
:103CA400130101FF138705002324810023229100BF
:103CB4009305060013040500B784008013860600EC
:103CC400130507002326110023A4045AEF10C06F24
:103CD4009307F0FF630CF5008320C10003248100E7
:103CE40083244100130101016780000083A7845AE3
:103CF400E38407FE8320C1002320F4000324810011
:103D04008324410013010101678000001380300007
:103D1400130101FEB7676161938717162326F1002B
:103D24002328F100232AF100232CF100232EF10093
:103D3400130101026780000013803000138020000B
:103D4400130101FD2326110213000000138010004B
:103D54001380200013807000EFF05FFB3785008034
:103D640013054523EFD0CFD013807000B76761618E
:103D7400938717162326F1002328F100232AF10044
:103D8400232CF100232EF100378500801305052430
:103D9400EF0040093785008013058524EFD04FCD0F
:103DA400EFF0DFF68320C1021301010367800000F6
:103DB400138030001305000067800000138030007A
:103DC400130101FF23261100B7B7008083A707DC86
:103DD400E78007008320C100130101016780000010
:103DE40013803000B7B7008023A0A7DC67800000F1
:103DF40013803000130101FF232611001306050070
:103E040093860500130700009305000037450080E2
:103E1400130505DCEF00501D8320C10013010101CF
:103E24006780000013803000130101FC232E110071
:103E34002322B1022324C1022326D1022328E10232
:103E4400232AF102232C0103232E1103930541029B
:103E54002326B100EFF0DFF98320C101130101042F
:103E64006780000013803000130101FF2326110036
:103E740093070500138505009305060013860600C5
:103E8400E7800700EF301002EF30900D1380300010
:103E94001306050003270500130500006F00C00189
:103EA40093172500B387A7009397170013071700EC
:103EB400B387D700138507FD83460700B7870080C3
:103EC4009387D70AB387F60083C7070093F74700A1
:103ED400E39807FC2320E60067800000138030008D
:103EE4001306050013850500930610006F004006B5
:103EF4008357060093E747002310F60063880604FF
:103F0400130515006F0080048357060093E78700AC
:103F14002310F6006FF09FFE8357060093E7070116
:103F24002310F6006FF09FFD8357060093E7070206
:103F34002310F6006FF09FFC8357060093E70704F5
:103F44002310F6006FF09FFB9306000063880602BF
:103F540083470500938707FE93F5F70F13070001C6
:103F6400E364B7FE93972500378700801307C724BF
:103F7400B387E70083A7070067800700832706004D
:103F840093F74704130740046384E7006780000045
:103F94008357060093F7F7FB2310F6006FF01FFF1B
:103FA40013803000130101FE232E1100232C810005
:103FB400232A9100130405002326B100835705002A
:103FC40093E707082310F5009384050003C7050051
:103FD4009307A0026304F7061305C100EFF01FEB7B
:103FE4008327C1006380F4048357040093E7070820
:103FF4002310F4002322A4008327040093D717007E
:1040040093F717006348050413070000B3E7E700BC
:1040140093971700035704001377D7FFB367F7008C
:104024002310F4000325C1008320C101032481016E
:1040340083244101130101026780000083570500B6
:1040440093E707102310F500138515002326A1001C
:104054006FF09FFD130710006FF05FFB13803000BB
:10406400130101FE232E1100232C81002326B1000D
:1040740003C70500130727FD933617009396960090
:104084008357050093F7F7DFB3E7D7002310F50054
:1040940063160706130405008327C100138717005E
:1040A4002326E10003C717009307A002630CF7045B
:1040B4001305C100EFF09FDD2324A400832704002F
:1040C40093D7170093F71700634C050413070000F8
:1040D400B3E7E70093971700035704001377D7FF5C
:1040E400B367F7002310F4000325C1008320C10146
:1040F4000324810113010102678000001385050078
:104104006FF0DFFE8357050093E707402310F500A7
:104114000325C100130515002326A1006FF01FFD20
:10412400130710006FF0DFFA138030001306050048
:1041340083C70500938747FB93F6F70F1307E00245
:10414400636AD716939726003787008013070729D9
:10415400B387E70083A7070067800700138515006E
:1041640003C71500930780066302F702835706000E
:104174003787FFFF1307F77FB3F7E7003717000010
:10418400B3E7E7002310F6006780000083570600BA
:104194003787FFFF1307F77FB3F7E70037170000F0
:1041A40013070780B3E7E7002310F6001385250003
:1041B400678000001385150003C715009307C00628
:1041C4006304F702835706003787FFFF1307F77F5F
:1041D400B3F7E7003727000013070780B3E7E700CA
:1041E4002310F60067800000835706003787FFFF1F
:1041F4001307F77FB3F7E70037270000B3E7E700BB
:104204002310F600138525006780000083570500FE
:104214003787FFFF1307F77FB3F7E700373700004F
:1042240013070780B3E7E7002310F5001385150093
:1042340067800000835705003787FFFF1307F77F68
:10424400B3F7E70037370000B3E7E7002310F500C2
:104254001385150067800000835705003787FFFF2B
:104264001307F77FB3F7E70037470000130707800A
:10427400B3E7E7002310F5001385150067800000FD
:10428400835705003787FFFF1307F77FB3F7E7006E
:1042940037470000B3E7E7002310F5001385150046
:1042A4009397070193D7070193E727002310F6009C
:1042B40067800000835706003787FFFF1307F77FE7
:1042C400B3F7E7002310F6001385050067800000AC
:1042D40013803000130705001385150083C70500FC
:1042E400A301F7009306800763EAF6049306E00649
:1042F40063FAD7089306900663E2F60493068005F2
:1043040063E8D704138687FA93061000B396C600B1
:1043140037E600001306062033F6C60063180604C9
:10432400371600001306168033F6C600631806100D
:1043340037160200B3F6C6006394060A83570700D3
:1043440093E717002310F700930700006F00800C19
:1043540093061004638CD700E3E2D7FE9387B7FB80
:1043640093F7F70F93062000E3EAF6FC8347270050
:1043740093F787FF93E747002301F70093071000A3
:104384006F004009138627F993061000B396C60000
:1043940013F62648B335C0006312060A13F6460224
:1043A400B337C000631A060C93F61600E38806F8C8
:1043B40003462700137686FF136636002301C700E1
:1043C40003560700B7850000938505803376B60051
:1043D400B74500006310B604938706006F0080039E
:1043E4008346270093F686FF93E616002301D70041
:1043F400835607003786000013060680B3F6C6000E
:10440400374600006386C60493063006638AD704E1
:10441400930700008326070093D6160093F6160030
:10442400B3E7D700939717008356070093F6D6FF98
:10443400B3E7F6002310F7006780000083462700E7
:1044440093F686FF93E626002301D7006FF05FFA08
:104454008356070093E616002310D7006FF0DFFAA7
:1044640083570700B786000093860680B3F7D7000A
:10447400B337F0006FF01FFA8346270093F686FFE8
:1044840093E636002301D7008356070037860000E1
:1044940013060680B3F6C600E39E06F6938705006E
:1044A4006FF05FF713803000130101FF2326110022
:1044B4002324810013040500232005002322050082
:1044C4002324050083C71500130750026388E704FB
:1044D4009385150013050400EFF05FA09305050014
:1044E40013050400EFF0DFAB93050500130504008A
:1044F400EFF0DFB69305050013050400EFF0DFC20B
:104504009305050013050400EFF09FDC8320C10030
:104514000324810013010101678000001385250035
:10452400A301F4006FF09FFE138030009307F006A0
:10453400630CF50263FEA70093070007630AF50204
:1045440093078007631AF5021305000167800000D2
:10455400930780056306F5001305A000678000003B
:1045640013050001678000001305800067800000C8
:1045740013050001678000001305A0006780000098
:1045840013803000130101FD23261102232481022C
:104594002322910223202103232E3101232C4101C4
:1045A400232A510123286101232671012324810137
:1045B4009309050013840500130C0600938A060072
:1045C4009304070003453600B78700809387D70A12
:1045D400B307F50083CB070093FB3B00EFF0DFF458
:1045E400130905006F00800493071000638AFB061B
:1045F4009377F50F9387770593F7F70F9384F4FF79
:104604002380F400130609009306000013850900B3
:1046140093050400EFB0DFBC636E4405630A8A04AB
:1046240063FA9A049309050013840500130B090027
:10463400130A0000130609009306000013850900FD
:1046440093050400EFB0DFFC93079000E3EEA7F8B6
:104654009377F50F9387070393F7F70F6FF01FFA1C
:104664009377F50F9387770393F7F70F6FF01FF99D
:10467400E3F869FB83570C0093F70702638A07008A
:10468400930780006300F904930700016304F904AD
:10469400138504008320C102032481028324410280
:1046A400032901028329C101032A8101832A4101CB
:1046B400032B0101832BC100032C8100130101038F
:1046C4006780000083472C0093E787002301FC00E8
:1046D4006FF01FFC83472C0093E707012301FC00C4
:1046E4006FF01FFB138030008327050093D7B700BA
:1046F40093F7F700130770006364F7069397270096
:10470400378700801307C734B387E70083A7070000
:104714006780070023A0C500678000002380C500D0
:10472400678000002390C5006780000023A0C500B7
:10473400678000009357F64123A0C50023A2F5002B
:10474400678000009357F64123A0C50023A2F5001B
:104754006780000023A0C5006780000023A0C50077
:104764006780000013803000130101FE232E110026
:10477400232C8100232A910023282101232631019F
:1047840023244101130A05009389050013890600B7
:10479400130400006F0000029304160093850900BF
:1047A40003450600E7000A006340050213041400F1
:1047B40013860400E36226FF63160900834706009C
:1047C400E39C07FC130504008320C1010324810139
:1047D40083244101032901018329C100032A8100A3
:1047E400130101026780000013803000130101F8F7
:1047F400232E1106232C8106232A91062328210720
:10480400232631072324410723225107232061074C
:10481400232E7105232C81051309050093840500BB
:10482400930A06002326D1001304000003C50A00DE
:104834006300057893075002630EF500938A1A000B
:1048440093850400E7000900634605761304140009
:104854006FF0DFFD23280100232A0100232C01002F
:10486400232E01002320010223220102232401021A
:104874002326010293850A0013050102EFF09FC26B
:10488400930905008357010213F707106302070C0D
:104894008327C100138747002326E10003AA0700EA
:1048A400634E0A088357010213F707406308070C95
:1048B4008327C100138747002326E10003AB0700C9
:1048C40063440B0A232201022324010283270102E9
:1048D40013D707011377770093D7B70093F7F7003F
:1048E40093860700130610006306C70A1306200008
:1048F4006300C71E93074000630AF72C9307300038
:104904006308F7328327010293F73700639E073267
:10491400834731029387B7FD93F6F70F13073005EA
:10492400636AD74C9397260037870080130747376D
:10493400B387E70083A70700678007008357010256
:1049440093E747002310F102330A40416FF09FF5CB
:1049540093F7070863860700032A41026FF09FF468
:10496400130AF0FF6FF01FF48357010293F7F7DF88
:104974002310F102130BF0FF6FF0DFF493F707201D
:1049840063860700032B81026FF0DFF3130BF0FF44
:104994006FF05FF313075000638EE70E636EF70248
:1049A400130730006382E70A13074000639EE7049D
:1049B4008327C1009387770093F787FF13878700C6
:1049C4002326E10003A7070083A747002328E1006B
:1049D400232AF1006F0000059387A70093F7F700DF
:1049E400130710006362F7028327C100138747008F
:1049F4002326E10083A7070013D7F7412328F100FA
:104A0400232AE1006F0000028327C10013874700B7
:104A14002326E10083A7070013D7F7412328F100D9
:104A2400232AE10093071000638AF6089307200005
:104A3400E39AF6EC8317010113D7F7412328F10019
:104A4400232AE1006FF01FEC03473102930730067D
:104A54006302F7028327C100138747002326E1007E
:104A640083A7070013D7F7412328F100232AE10085
:104A74006FF05FFB8327C100138747002326E10003
:104A840083A7070013D7F7412328F100232AE10065
:104A94006FF05FF98327C1009387770093F787FF4F
:104AA400138787002326E10003A7070083A7470095
:104AB4002328E100232AF1006FF0DFF683070101C8
:104AC40013D7F7412328F100232AE1006FF09FE375
:104AD400130750006380E70C636EF702130730007E
:104AE400638CE70813074000639CE7048327C10035
:104AF4009387770093F787FF138787002326E100C6
:104B040003A7070083A747002328E100232AF10015
:104B14006F0080049387A70093F7F7001307100032
:104B24006360F7028327C100138747002326E1004F
:104B340083A707002328F100232A01006F00C00186
:104B44008327C100138747002326E10083A70700BA
:104B54002328F100232A0100930710006380F6063E
:104B640093072000E390F6DA835701012328F1002C
:104B7400232A01006FF01FD98327C1001387470040
:104B84002326E10083A707002328F100232A01003C
:104B94006FF09FFC8327C1009387770093F787FF0B
:104BA400138787002326E10003A7070083A7470094
:104BB4002328E100232AF1006FF01FFA8347010143
:104BC4002328F100232A01006FF0DFD3930780002C
:104BD4006386F6028327C1009387770093F787FFE4
:104BE400138787002326E10003A7070083A7470054
:104BF4002328E100232AF1006FF0DFD08327C100CE
:104C0400138747002326E10083A7070003A60700B4
:104C140083A6470003A7870083A7C7002328C100F2
:104C2400232AD100232CE100232EF1006FF09FCD25
:104C34008327C100138747002326E10083A70700C9
:104C44002328F1006FF01FCC9386090013860A0015
:104C54009385040013050900EFF0DFB0634C0534BD
:104C64003304A400938A09006FF05FBC93850400A9
:104C740013055002E7000900634E053213041400C3
:104C8400930B0000130BE104930A00006F0040171C
:104C9400832A0101634E0B0093050B0013850A0060
:104CA400EFC09F96338BAA00930B00006F00401552
:104CB40013850A00EFC08FEC6FF0DFFE832701013C
:104CC400230CF102930B0000130B9103930A81034D
:104CD4006F0000138357010213F78700631A07005C
:104CE40093F7070163940702930B00006F008000A1
:104CF400930BB002032701018327410163CC070012
:104D04002328E100232AF1006F000003930B000223
:104D14006FF05FFEB306E0403337E000B307F040C6
:104D2400B387E7402328D100232AF100930BD00254
:104D34006F008000930B00001307E10493068103C6
:104D4400130601020325010183254101EFF05F836E
:104D5400930A050063460B129307E104B387574196
:104D6400035701021377F7FB2310E10263FE671177
:104D7400B307FB402322F102130BE1046F00400848
:104D840003250101631E0500930B0000378B00808F
:104D9400130B1B37B78A0080938ACA366F0040060C
:104DA4001307E1049306810313060102930500002F
:104DB400EFF00FFD930A05008347210293E70701F3
:104DC4002301F10293078007A301F102930B000072
:104DD4006FF05FF813060400832501011305010237
:104DE400EFF05F90930B0000130BE104930A0000B3
:104DF4006F000001930B0000130BE104930A000001
:104E040063840A1AB3065B4163840B00938616001D
:104E14008347210213F70701630C070693862600D4
:104E2400032741023307D70093F70704638607007B
:104E3400832781023307F700635E4009330AEA409F
:104E44008327010293D7270093F717006394070879
:104E54008357010293F707046384070463860B04F2
:104E64009385040013850B00E700090063440514CF
:104E740013041400130C0003930B00006F000003D1
:104E8400130BE1046FF0DFF7130BE1046FF05FF72E
:104E940013F78700E30607F8938616006FF05FF8B0
:104EA400130C00026F008000130C000393070A0028
:104EB400138AF7FF6350F0029385040013050C0076
:104EC400E70009006348050E1304140093070A0061
:104ED4006FF01FFE638C0B009385040013850B0099
:104EE400E70009006348050C13041400832701023A
:104EF40013D747011377170093D7370193F7170098
:104F0400B367F700638C070093850400130500035F
:104F1400E70009006340050A1304140083472102D3
:104F240093F70701638C070093850400034531025E
:104F3400E7000900634005081304140083274102B5
:104F4400938BF7FF6350F00293850400130500036D
:104F5400E7000900634005061304140093870B005F
:104F64006FF01FFE93060B0013860A00938504005E
:104F740013050900EFF00FFF634E05023304A4008C
:104F8400635040039385040013050002E700090001
:104F94006342050213041400130AFAFF6FF05FFE64
:104FA400938A09006FF09F88938A09006FF01F8825
:104FB400130504008320C1070324810783244107C8
:104FC400032901078329C106032A8106832A41068E
:104FD400032B0106832BC105032C81051301010852
:104FE4006780000013803000678000001380300069
:104FF400130101FF23261100EF00C009930780006D
:1050040073A00730730050108320C1001301010105
:1050140067800000138030009357850013F7F70F63
:10502400631A070093071000B397A700F3A747304C
:1050340067800000130101FF232611001385F7FF89
:10504400EF00C05A8320C1001301010167800000F2
:1050540013803000135585009377F50F6394070090
:1050640067800000130101FF232611001305F5FFDB
:10507400EF00405B8320C100130101016780000041
:1050840013803000F3770430735040307350403451
:1050940067800000138030006780000013803000B8
:1050A400130500006780000013803000130101FF26
:1050B40023261100EF00905E13803000130101FFDE
:1050C400232611002324810013040500F327203430
:1050D400F3273034EFF09FFC630405001305200030
:1050E40093050400EFF05FFC13803000130101FF0F
:1050F40023261100F3272034930500001305100024
:10510400EFF09FFA13803000130101FF23261100F2
:10511400EF00507AEFF0DFF6EF108010732540F1C6
:10512400630A050093021000634255047300501093
:105134006FF0DFFF973200009382825E3713000026
:1051440033035300B7B3AAAA9383A3AA23A072007C
:1051540093824200E3CC62FE173100001301415CEC
:10516400B712000033015100EFF0DFF9973200006D
:105174009382424583A20200E31A55FE973200004F
:105184009382024403A10200973200009382824377
:1051940023A002006F00C00723AA150223AC8502D6
:1051A40023AE950223A0250523A2350523A4450596
:1051B40023A6550523A8650523AA750523AC8505F3
:1051C40023AE950523A0A50723A2B50723A825028E
:1051D40023AEB50603210503832045030324850379
:1051E4008324C5030329050483294504032A85046C
:1051F400832AC504032B0505832B4505032C85054C
:10520400832CC505032D0506832D45066780000004
:1052140013803000130101FF232611002324810091
:1052240013040500EFF0DFE5B787008013143400A2
:105234009387875CB387870003A7070003A547000C
:10524400E700070013803000130606FB137606FF01
:105254002320D6022322E6022324F6022326060371
:10526400B7270000938707882322F604B7470080F6
:10527400938787E62320F6042328C502B707008016
:105284009387C715232AF502232EA50667800000FD
:105294001380300013050000678000001380300085
:1052A4001305F0FF67800000138030001305000031
:1052B4006780000013803000B7B7008023A4A7DC08
:1052C4006780000013803000130101FE232E1100BB
:1052D400232C8100232A9100232821012326310134
:1052E4009309050013890500130400006F00800072
:1052F4001304140063562403B3848900B7B70080F1
:1053040083A747DCE78007002380A4009307A0005D
:105314006306F5009307D000E31CF5FC13041400A6
:10532400130504008320C101032481018324410166
:10533400032901018329C1001301010267800000D0
:1053440013803000130101FE232E1100232C810051
:10535400232A9100232821012326310193090500E2
:1053640013890500130400006F008001B7B70080A3
:1053740083A787DC03C50400E78007001304140037
:1053840063542403B384890003C704009307A00073
:10539400E31EF7FCB7B7008083A787DC1305D000B2
:1053A400E78007006FF09FFC130509008320C1010B
:1053B4000324810183244101032901018329C100BC
:1053C400130101026780000013803000130101FF04
:1053D400232611001385050093050600EFF09FEEC8
:1053E4008320C10013010101678000001380300095
:1053F400130101FF23261100138505009305060000
:10540400EFF01FF48320C100130101016780000045
:10541400138030001305F0FF678000001380300014
:105424001305000067800000138030001325350049
:105434006780000013803000B727000023A2F50026
:105444001305000067800000138030001307050077
:10545400B787008083A6075D938781853385F6002F
:105464003307D700B70600C0B387F6406378F70068
:10547400B787008023A8E75C678000001305F0FF6E
:105484006780000013803000130101FF2326110000
:10549400232481001304050013054001EFB08FD5C8
:1054A4002320A400EF10000C8320C10003248100FA
:1054B400130101016780000013803000130101FF14
:1054C400232611009305F0FF1306F0FFEF10400BA5
:1054D4008320C100130101016780000013803000A4
:1054E400130101FF23261100EF1080218320C10046
:1054F400130101016780000013803000130101FFD4
:1055040023261100930700003727000C6F000001C9
:105514002320070013074700938717009306100002
:10552400E3D8F6FE930700003707000C6F00000174
:1055340023200700130747009387170093063003BF
:10554400E3D8F6FEB707200C23A0070013060000DB
:10555400930500001305B000EFF09FAF1305B000F2
:10556400EFF05FAB130500008320C10013010101BC
:105574006780000013803000130101FF232611000F
:1055840023248100B707200C03A44700B7870080B9
:1055940023AA875C1307F4FF9307200363E2E7045D
:1055A4001304C400B787008013143400938707DA08
:1055B400B387870003A7470003A50700E700070098
:1055C400B787008003A7475DB707200C23A2E70035
:1055D4008320C100032481001301010167800000BE
:1055E40013050000EFF05FB06FF09FFB13803000F5
:1055F400737704309356550093962600B727000C12
:10560400B387D70083A60700130610003316A6003D
:10561400B3E6C60023A0D7009377870073A00730B2
:1056240067800000138030009307700063F4B700B4
:105634009305700013152500B707000CB387A70066
:1056440023A0B7006780000013803000130101FF1E
:105654002326110023248100130405009307A000CE
:10566400630AF5029375F40F37850080930785D894
:1056740083A7870083A74700130585D8E780070021
:10568400130504008320C1000324810013010101D8
:105694006780000037850080930785D883A787003B
:1056A40083A747009305D000130585D8E78007003A
:1056B4006FF05FFB13803000130101FF23261100FC
:1056C40023248100375400801305C464EFF09FBE87
:1056D4001305C464EFE0CFF08320C10003248100EC
:1056E400130101016780000013803000130101FFE2
:1056F4002326110037850080130585D8EF00C07577
:10570400630C0500EFF01FFB130500008320C100AC
:1057140013010101678000001305D0FE6FF01FFF25
:10572400138030008327850083A7C700638E07009A
:10573400130101FF23261100E78007008320C10025
:105744001301010167800000130580FA67800000DF
:1057540013803000032705016382050863000608EF
:10576400939745003356F6028327450003A80700A4
:1057740083C6070193971600B387D700B387070141
:1057840083C6070013F8F60F93E606082380D700B4
:105794009376F60F8327450083A707002380D7005D
:1057A400135686001376F60F8327450083A6070059
:1057B40083C70701B387D7002380C7008327450029
:1057C40003A6070083C6070193971600B387D70083
:1057D400B387C700238007012320B7006780000038
:1057E400138030008327050103A7070023A0E500E9
:1057F40003C747002382E50003C75700A382E500DF
:1058040003C767002383E50083C77700A383F500FC
:1058140013050000678000001380300073770430A4
:105824008327450003A6070083C607019397260034
:10583400B387D700B387C70083C7070093F7170060
:10584400638E0700834706002380F50013050000DC
:105854009377870073A00730678000001305F0FF7B
:105864006FF01FFF138030007376043083274500E8
:1058740083A6070003C7070193172700B387E70030
:10588400B387D70083C7070093F70702E38007FEB7
:105894002380B6009377860073A0073067800000EA
:1058A40013803000737704308327450003A6070074
:1058B40083C6070193972600B387D700B387C70031
:1058C40003C507001375E5019377870073A00730BC
:1058D400135515406780000013803000130101FD4B
:1058E400232611022324810223229102232021034F
:1058F400232E3101232C4101130405009384050058
:10590400032A050183294500232601007379043005
:1059140083A74900638007042326F1000326C100FE
:1059240083A5040013050400EFF09FE283C764001D
:10593400130720006384E70A6362F704638E070495
:10594400130710006398E702930710002305F10082
:105954006F00C00403A58900EF000050630A051816
:105964001306C10083A5C90003A58900EFF05FDB1E
:105974006FF0DFFA1305A0F76F00C00313073000C0
:105984006398E700930730002305F1006F000001DE
:105994001305A0F76F0000022305010083C754001C
:1059A400130710006382E70413073000638CE704D5
:1059B4001305A0F713798900732009308320C102ED
:1059C4000324810283244102032901028329C101A2
:1059D400032A81011301010367800000930720005B
:1059E4002305F1006FF09FFBA304010083C744006B
:1059F40063800702130720006380E70E1305A0F7F6
:105A04006FF05FFB93074000A304F1006FF01FFEEB
:105A14002304010083A704002320FA0083A7440081
:105A24002322FA008347A1008346910003478100A3
:105A3400B3E7D7003367F7008327440003A60700C2
:105A440083C6070193971600B387D700B387C700AF
:105A54002380E7008327440003A7070083C70701C7
:105A640093972700B387E7001307B0002380E7006C
:105A74008327440003A7070083C7070193971700F0
:105A8400B387E700130770F82380E70083274400F7
:105A940003A7070083C7070193971700B387E7009D
:105AA40083C7070093F7070C1307000C638CE70206
:105AB400930710002304FA000327440083470701D7
:105AC4000327070083460700B387E7002380070006
