:0200000480007A
:1000000097E100009381810E9702000093824201E4
:08001000739052306F004000B4
:04001800EF40001C99
:10001C00130101FB232251002324610023267100CC
:10002C002328C101232AD101232CE101232EF10124
:10003C002320A1022322B1022324C1022326D102B0
:10004C002328E102232AF102232C0103232E11037E
:10005C00232011002324810417B400001304C4DBF3
:10006C00F322103423205104F32300302322710493
:10007C00EF00C014631A0504F3222034B703008088
:10008C009383F3FFB3F272001303B000638A620030
:10009C0013050100970000009380C00B6F40C0094E
:1000AC0083220104938242002320510483224100C5
:1000BC0063860200130530006F00800003250102E7
:1000CC00930501006F4040050323040093031300C4
:1000DC0023207400631A03009302010003214400DF
:1000EC00130101FF2320510073252034B702008037
:1000FC009382F2FF33755500EF00400B979200008E
:10010C009382C24E13153500B382A20003A50200E0
:10011C0003A34200E7000300832304009383F3FF4F
:10012C0023207400639603020321010083258400BD
:10013C00130101FF2320B10013050000EF60101321
:10014C00832501001301010163040500EF40C00F7A
:10015C00832201047390123483234104F3920330FD
:10016C000324810483224100032381008323C100E3
:10017C00032E0101832E4101032F8101832FC10125
:10018C000325010283254102032681028326C10235
:10019C000327010383274103032881038328C10319
:1001AC00832001001301010573002030130310009C
:1001BC00B312A30073B3423467800000F3222034DF
:1001CC0037030080B3F26200130500006384020061
:0801DC00130515006780000007
:1001E4009308050013830500130706001308050090
:1001F4009387050063920628B7A500809385058040
:100204006376C30EB70601006378D60C93360610E6
:1002140093C61600939636003355D600B385A500D1
:1002240083C5050013050002B386D500B305D54088
:10023400630CD500B317B300B3D6D8003317B60098
:10024400B3E7F6003398B8009355070133D3B702E8
:100254001316070113560601B3F7B702130503007B
:10026400B30866029396070193570801B3E7D700D2
:1002740063FE1701B307F7001305F3FF63E8E70014
:1002840063F617011305E3FFB387E700B38717414C
:10029400B3D8B7021318080113580801B3F7B7020B
:1002A400B3061603939707013368F8009387080091
:1002B400637CD800330807019387F8FF6366E8007E
:1002C4006374D8009387E8FF131505013365F500BF
:1002D40093050000678000003705000193060001C4
:1002E400E36CA6F2930680016FF01FF393060000FF
:1002F400630C0600B70701006370F60C9336061012
:1003040093C6160093963600B357D600B385F5000E
:1003140083C70500B387D70093060002B385F64070
:100324006396F60AB307C340930510009358070178
:1003340033DE1703131607011356060193560801FB
:10034400B3F7170313050E003303C603939707018E
:10035400B3E7F60063FE6700B307F7001305FEFF7B
:1003640063E8E70063F667001305EEFFB387E70071
:10037400B387674033D317031318080113580801D0
:10038400B3F71703B3066602939707013368F800BF
:1003940093070300637CD800330807019307F3FF36
:1003A4006366E8006374D8009307E3FF131505013F
:1003B4003365F50067800000B7070001930600016C
:1003C400E364F6F4930680016FF01FF43317B6006C
:1003D400B356F300135507013313B300B3D7F80032
:1003E400B3E7670033D3A6021316070113560601B9
:1003F4003398B800B3F6A602B308660293950601D3
:1004040093D60701B3E6B6009305030063FE160115
:10041400B306D7009305F3FF63E8E60063F616011D
:100424009305E3FFB386E600B3861641B3D8A6026C
:100434009397070193D70701B3F6A6023306160371
:1004440093960601B3E7D7009386080063FEC700BE
:10045400B307F7009386F8FF63E8E70063F6C70085
:100464009386E8FFB387E70093950501B387C740F8
:10047400B3E5D5006FF09FEB63E6D518B70701002D
:1004840063F4F60413B70610134717001317370065
:10049400B7A70080B3D5E60093870780B387B7007A
:1004A40083C70700B387E70013070002B305F740CB
:1004B4006316F70213051000E3EE66E033B5C800D7
:1004C4001345150067800000B707000113070001FA
:1004D400E3E0F6FC130780016FF09FFB3357F6004F
:1004E400B396B600B366D7003357F3003313B300A3
:1004F400B3D7F800B3E7670013D30601B35E67020E
:1005040013980601135808013316B60033776702AF
:10051400330ED8031315070113D707013367A70058
:1005240013850E00637EC7013387E6001385FEFF43
:100534006368D7006376C7011385EEFF3307D700DE
:100544003307C741335E67029397070193D70701C7
:10055400337767023308C80313170701B3E7E700CB
:1005640013070E0063FE0701B387F6001307FEFFAF
:1005740063E8D70063F607011307EEFFB387D700DC
:1005840013150501370E01003365E5009306FEFFE0
:100594003377D500B3870741B376D60013580501E6
:1005A400135606013303D702B306D8023307C70232
:1005B4003308C8023306D700135703013307C700B3
:1005C4006374D7003308C80193560701B386060144
:1005D40063E6D702E39ED7CEB70701009387F7FF00
:1005E4003377F700131707013373F300B398B80098
:1005F4003307670093050000E3FEE8CC1305F5FF1D
:100604006FF01FCD93050000130500006780000004
:100614001308060093070500138705006396062058
:10062400B7A800809388088063FCC50CB706010056
:10063400637ED60A9336061093C616009396360048
:100644003353D600B388680083C80800130300023C
:10065400B386D800B308D340630CD3003397150195
:10066400B356D5003318160133E7E600B317150166
:1006740013560801B356C702131508011355050193
:100684003377C702B386A6029315070113D7070170
:100694003367B700637AD7003307E800636607015E
:1006A4006374D700330707013307D740B356C70233
:1006B4003377C702B386A60293970701131707017E
:1006C40093D70701B3E7E70063FAD700B307F8004D
:1006D40063E6070163F4D700B3870701B387D74004
:1006E40033D517019305000067800000370300012C
:1006F40093060001E36666F4930680016FF05FF4ED
:1007040093060000630C060037070100637EE606CB
:100714009336061093C61600939636003357D600C8
:10072400B388E80003C708003307D7009306000224
:10073400B388E6406394E6063387C54093550801C1
:100744003356B702131508011355050193D6070153
:100754003377B7023306A6021317070133E7E6001F
:10076400637AC7003307E800636607016374C70050
:10077400330707013307C740B356B7023377B702CD
:10078400B386A6026FF05FF33707000193060001FA
:10079400E366E6F8930680016FF05FF833181601FC
:1007A400B3D6E500B3171501B39515013357E5002A
:1007B400135508013367B700B3D5A6021313080114
:1007C40013530301B3F6A602B3856502139606011B
:1007D40093560701B3E6C60063FAB600B306D80021
:1007E40063E6060163F4B600B3860601B386B64039
:1007F40033D6A6021317070113570701B3F6A6024F
:1008040033066602939606013367D700637AC700FE
:100814003307E800636607016374C7003307070101
:100824003307C7406FF09FF163E4D51C370801001C
:1008340063FE060513B80610134818001318380091
:10084400B7A8008033D3060193880880B388680072
:1008540083C8080013030002B38808013308134156
:100864006310130563E4B600636CC5003306C5402A
:10087400B386D5403337C500930706003387E64077
:10088400138507009305070067800000B70800017F
:1008940013080001E3E616FB130880016FF05FFA0A
:1008A400B3571601B3960601B3E6D70033D7150143
:1008B40013DE0601335FC7031393060113530301C9
:1008C400B3970501B3551501B3E5F50093D70501B9
:1008D40033160601331505013377C703B30EE3035B
:1008E40013170701B3E7E70013070F0063FED701EF
:1008F400B387F6001307FFFF63E8D70063F6D70159
:100904001307EFFFB387D700B387D741B3DEC7031D
:100914009395050193D50501B3F7C703138E0E0014
:100924003303D30393970701B3E5F50063FE650032
:10093400B385B600138EFEFF63E8D50063F6650049
:10094400138EEEFFB385D50093170701370F01000F
:10095400B3E7C701B38565401303FFFF33F76700AF
:10096400135E060193D7070133736600B30E670263
:10097400338367023307C703B387C703330E6700A4
:1009840013D70E013307C70163746700B387E70108
:1009940013530701B307F300370301001303F3FFF5
:1009A4003377670013170701B3FE6E003307D701CF
:1009B40063E6F500639EF500637CE5003306C740FB
:1009C4003333C700B306D30013070600B387D740F9
:1009D4003307E5403335E500B385F540B385A540DD
:1009E400B39815013357070133E5E800B3D5050182
:1009F4006780000013030500630E0600838305006F
:100A0400230073001306F6FF1303130093851500E8
:100A1400E31606FE6780000013030500630A060060
:100A24002300B3001306F6FF13031300E31A06FEB4
:100A340067800000232015002322850023249500CD
:100A44002326250123283501232A4501232C55017A
:100A5400232E650123207503232285032324950374
:100A64002326A5032328B503232A25021305000002
:100A7400678000008320050003244500832485004B
:100A84000329C50083290501032A4501832A850119
:100A9400032BC501832B0502032C4502832C8502FD
:100AA400032DC502832D05030321450313B515004A
:100AB4003305B50067800000630C060213030500CC
:100AC40093061000636AB5009306F0FF1307F6FF60
:100AD4003303E300B385E50083830500230073003B
:100AE4001306F6FF3303D300B385D500E31606FEE1
:100AF4006780000013803000130101FE232E1100D3
:100B0400232C810037D40080832704252326F10079
:100B14009307000037A5008013050590EF10907629
:100B24000327C10083270425B347F70013070000F8
:100B3400639C0700130500008320C1010324810185
:100B44001301010267800000EF60507C13803000C5
:100B5400130101FE232E1100B7D7008003A7072538
:100B64002326E1001307000037A500801305059133
:100B7400EF10507113050000EF70007A13803000FD
:100B8400130101FE232E1100B7D7008003A7072508
:100B94002326E1001307000037A500801305C59341
:100BA400EF10506E13050000EF70007713803000D3
:100BB400130101FE232E1100B7D7008003A70725D8
:100BC4002326E1001307000037A50080130545968E
:100BD400EF10506B13050000EF70007413803000A9
:100BE400130101FE232E1100B7D7008003A70725A8
:100BF4002326E10013070000930705FD93F7F70F81
:100C0400130790006378F7049307F5F993F7F70F48
:100C140013075000636EF704130595FAB7D70080E5
:100C2400131525009387C77AB387A70003A5070088
:100C3400B7D700800327C10083A70725B347F70070
:100C440013070000639A07028320C1011301010204
:100C540067800000130505FDB7D700801315250034
:100C64009387C77AB387A70003A507006FF05FFCDB
:100C7400130500006FF0DFFBEF6050691380300054
:100C8400130101FE232E1100232C810037D4008090
:100C9400832704252326F1009307000037A500804D
:100CA40013054598EF10105EB7B700809387C7DD32
:100CB40003A507001305C5F983A54700938585F3AC
:100CC40003A68700130646ED83A6C700938606E7AE
:100CD40003A707011307C7E0B7D70080131727003E
:100CE4009387C77EB387E70037E700809396260093
:100CF400130707813307D700B7E6008013162600D1
:100D040093860682B386C60037E600809395250055
:100D1400130686863306B600131525009385418194
:100D2400B385A50083A707000327070083A6060051
:100D34000326060083A5050037A5008013058599C1
:100D4400EF1050540327C10083270425B347F7004D
:100D540013070000639A07008320C1010324810163
:100D64001301010267800000EF60505A13803000C5
:100D7400130101FE232E1100232C8100232A91004C
:100D84002328210113040500B7D7008003A70725F2
:100D94002326E10013070000B7B700809387C7DD5F
:100DA40083A747001307A00C6368F7021307900C8E
:100DB40063F6E7041307800C639EE70403274500EA
:100DC4009307F00063F6E71AB7B40080938404DF56
:100DD4001309C0006F0000041307B00C639CE70202
:100DE400B7B700809387C7DD83A787001307C013B5
:100DF400638CE7101307D013638EE71003274400B6
:100E04009307300063FAE716B7A400809384049E26
:100E14001309000003254400EF7000542326A400A6
:100E2400630E05121306090093850400EFF09FBCBE
:100E340083244400B38424419384B4FF0325C40071
:100E4400138604009305100433052501EFF0DFBC7D
:100E54009385040037A500801305C5A0EF109042C8
:100E64008325840037A50080130505A2EF10904167
:100E7400B7B700809387C7DD03A787009307C01324
:100E84006308F7028327C40033099900B387270155
:100E940083458400034694008346A4000347B400BA
:100EA4002380B700A380C7002381D700A381E70074
:100EB4008327C400032744001307F7FFB387E70021
:100EC400238007008325C40037A50080130545A3AC
:100ED400EF10503B13051000B7D700800327C10063
:100EE40083A70725B347F70013070000639A070891
:100EF4008320C101032481018324410103290101C9
:100F04001301010267800000130750102322E5003B
:100F14006FF05FEE832744009387C7012322F40018
:100F24000327C4002300F7008327440093D78700D6
:100F34000327C400A300F7008327C4001307100489
:100F44002381E7008327C400A3810700930740009F
:100F54002322F400130510006FF01FF837A500805A
:100F64001305859EEF101032130500006FF0DFF6B5
:100F7400130500006FF05FF6130500006FF0DFF556
:100F8400EF60D03813803000130101FE232E1100CE
:100F9400B7D7008003A707252326E1001307000025
:100FA40093057045EFF01FAD13803000130101FE6F
:100FB400232E1100B7D7008003A707252326E100BD
:100FC400130700006F00800103C705002300E5003C
:100FD4009385150013051500138607009307F6FF84
:100FE400E31406FEB7D700800327C10083A70725B3
:100FF400B347F70013070000639807008320C1017B
:101004001301010267800000EF605030138030004C
:10101400130101BE232E1140232C8140232A914029
:1010240013040500B7D4008083A704252326F140C8
:101034009307000037A50080130545A4EF10902402
:101044009307C1002320F4000327C14083A704258C
:10105400B347F70013070000639C07008320C141D6
:10106400032481418324414113010142678000002C
:10107400EF60D02913803000130101FE232E1100EC
:10108400232C8100232A9100232821019384050025
:1010940037D90080832709252326F1009307000010
:1010A400EF7000711374F50F13050400EF70C02A7C
:1010B400B384A4401304F4FF33749400330585000F
:1010C400930710FA2300F5000327C100832709259D
:1010D400B347F70013070000639E07008320C10194
:1010E4000324810183244101032901011301010225
:1010F40067800000EF60902113803000130101FE2F
:10110400232E1100B7D7008003A707252326E1006B
:10111400130700002324B100B7B700809387C7DD0D
:1011240003A787009307C013630EF7028327810088
:101134006390070437A500801305C5A5EF1090142C
:10114400B7D700800327C10083A70725B347F7005B
:1011540013070000639807028320C10113010102F1
:101164006780000093058100EFF0DFF06FF01FFC53
:1011740037A50080130505A7EF10D0101305000054
:10118400EF708019EF60901813803000130101FE96
:10119400232E1100232C8100232A910023282101CE
:1011A40013040500B7D7008003A707252326E10011
:1011B40013070000834405008347150093978700B5
:1011C400B384F4009394040193D4040113850400BC
:1011D400EF7080181309050013860400930524009A
:1011E400EFF05F81130400006F000001130414008A
:1011F400131404011354040163729402B3078900A5
:1012040083C507009307F001E3F2B7FE37A500801A
:101214001305C5A9EF1010076FF05FFD37A5008017
:10122400130585A5EF101006B7D700800327C1006A
:1012340083A70725B347F70013070000639E070041
:101244008320C10103248101832441010329010175
:101254001301010267800000EF60500B138030001F
:10126400130101FE232E1100232C81001304050019
:1012740093860500B7D7008003A707252326E1003E
:101284001307000037A60080130606AA93059000F2
:10129400EF70C036930700006F008000938717003B
:1012A400130780006340F7023307F4000346070086
:1012B40093060002E314D6FE930600032300D7002E
:1012C4006FF0DFFDB7D700800327C10083A7072590
:1012D400B347F70013070000639A07008320C10196
:1012E400032481011301010267800000EF601002F2
:1012F40013803000130101FE232E1100B7D70080A4
:1013040003A707252326E1001307000093D78501CF
:101314002304F10093D70501A304F10093D78500BA
:101324002305F100A305B100130730006F0040024C
:1013340093073000B387E740B307F500930607012E
:10134400B386260083C686FF2380D7001307F7FFE2
:10135400E35007FEB7D700800327C10083A7072502
:10136400B347F70013070000639807008320C10107
:101374001301010267800000EF60407913803000A0
:10138400130101F6232E1108232C8108232A910826
:10139400232821092326310993040500B7D70080A7
:1013A40003A70725232EE1061307000023280100C5
:1013B400232A0100230C010023220100232401001D
:1013C40023160100232A0102232C0102232E0102E9
:1013D40023200104232201042324010423260104DD
:1013E40023280104230A0104232C0104232E0104CD
:1013F40023200106232201062324010623260106B5
:1014040023280106232A0106230C0106232E0100AA
:1014140023200102230201022324010223260102C4
:1014240023080102B7150080938505B5B71700009E
:1014340093870780B3F7F500638A0704B725008014
:10144400938505B513050101EFF05FE11306300044
:101454009305510113054100EF70C041130650007C
:101464009305010113058100EF70C04013060001CC
:101474009305000037A50080130545AAEF70405B73
:1014840013090500130400006F0080031305010114
:10149400EFF0DFDC6FF09FFB93070408B3872700AE
:1014A40003C587F8EFF08FF3930505009306100248
:1014B4001306400013054103EF70C03513041400F4
:1014C40093074000E3DA87FC13061002B7A50080F7
:1014D400938505AB13054103EF70402013062000EC
:1014E4009305000013054103EF7080549309050030
:1014F400930505001305C101EFF05FD61304000046
:101504006F00C00293070408B387270003C547F898
:10151400EFF0CFEC9305050093061002130640008C
:1015240013058105EF70002F1304140093072000A6
:10153400E3DA87FC13061002B7A50080938505AC97
:1015440013058105EF708019130620009305000030
:1015540013058105EF70C04D1304050093050500C4
:1015640013058102EFF09FCF9385090013850400D2
:10157400EFF01FD89305040013854400EFF05FD704
:101584009305090013858400EFF09FD69385090025
:101594001305C101EFF09FCC9305040013058102EC
:1015A400EFF0DFCB37A50080130585ADEF10804D3C
:1015B4009306C10113068100B7A50080938545B049
:1015C40037A50080130505B1EF10C04B93068102C7
:1015D40013064100B7A50080938505B237A50080A6
:1015E400130505B3EF10004A37A60080130646AA78
:1015F400B7A50080938505B437A50080130585B48D
:10160400EF104048B7D700800327C10783A70725F9
:10161400B347F70013070000639007028320C10952
:101624000324810983244109032901098329C10869
:101634001301010A67800000EF60404D1380300001
:1016440013010190232E116E232C816E232A916E97
:101654002328216F2326316F2324416F1304017043
:101664002326A4922324B492B7D7008003A7072586
:10167400232EE4FC1307000013060002B7D50080F4
:10168400938585581305C4BBEF70400CB7140080D4
:10169400938484AF232A94A613054010EF60D04BA3
:1016A400232EA4902320951013054010EF60D04AF8
:1016B4009304050013054010EF60104A1309050058
:1016C40013054010EF605049130A0500130540004C
:1016D400EF6090482322049263880408930905006C
:1016E40063040908B7B7008013071006238EE7CCFC
:1016F40013060002B7D500809385855837B500805E
:101704001305C5CBEF70800437B50080130505DFE2
:10171400EFF0DFC6B7B700809387C7DD83A7C700A4
:10172400130720196386E726636AF7041307001971
:101734006382E70A13071019639EE70CB7B70080AA
:101744009387C7DD83A78700130780136388E71691
:1017540063E4241937A50080130545B8EF108032DF
:1017640013051000EF60503B37A50080130545B604
:10177400EF10403113051000EF60103A13073019D1
:10178400639AE708B7B700809387C7DD83A787000C
:10179400130790136386E71A13071013638AE71A73
:1017A4001307B0136386E71AB7D700809387875A65
:1017B4002324F494B7B700809387C7DD03A74700B9
:1017C4009307B00C6306F71A232C94902322949267
:1017D4006F004004B7B700809387C7DD83A78700F5
:1017E400130770136386E7081307E0126380E70AA0
:1017F4009307C4BD2324F494B7B700809387C7DD4F
:1018040003A747009307B00C6300F70A232C9490B6
:10181400232294920327449263080700B717008099
:10182400938787AF2320F700B7B7008083A7C7DD6E
:10183400130740066388E71E130750066384E736E0
:10184400B7B700809387C7DD83A787009387E7EC4A
:1018540013074000636AF7449397270037A7008073
:10186400130787D3B387E70083A7070067800700C0
:1018740037B700808326C7DD13074006E396E6F6F4
:10188400930744972324F4946FF01FF7B7B70080AD
:1018940003A7C7DD93074006E31CF7F413058494FC
:1018A400EFF0CFF66FF05FF593074494232EF49294
:1018B400232C9490232294926FF0DFF537B70080A5
:1018C4008326C7DD13074006E394E6E88327C49123
:1018D4002324F4946FF01FF4E37E49E723249494C3
:1018E40023282491232644911307D013638EE702FF
:1018F4001309000013054000EF6010262322A49270
:1019040013050013EF60502537B700801307C7DDB8
:10191400832647001307B00C638EE60E232CA49095
:10192400232024936FF01FEF13064010B7D50080D7
:101934009385855813050900EF6050616FF09FFB94
:10194400B7D700809387876A2324F4946FF09FECC1
:10195400B7B7008003A7C7DD93074006E316F7E493
:10196400B7E700809387078F2324F4946FF09FE4F4
:10197400B7E7008023A6078E9387C78E37D70080EA
:101984002324F738232C9490232294926FF09FE819
:10199400B7B700809387C7DD03A787009307A01319
:1019A4006306F704B7B700809387C7CD2324F49464
:1019B400B7B7008023AE0792B7170080938787AF2D
:1019C40037B70080232CF79237B70080232AF79289
:1019D400B7B700809387C7DD03A747009307B00C10
:1019E400630EF700232294926FF0DFE2B7B7008012
:1019F400938787BB2324F4946FF0DFE137B700802B
:101A0400B7B700809387C793232AF792232294922F
:101A14006FF05FE0232CA490232024932326349199
:101A24006FF05FDFB7B700809387C7DD83A78700B8
:101A3400938747ED13071001E364F7E093972700BA
:101A440037A700801307C7D4B387E70083A707002D
:101A5400678007009307C4FF2320F4926FF05FDED2
:101A64009307C4922320F4926FF09FDD832744925E
:101A74002320F4926FF0DFDCB7B7008093870793DD
:101A84002320F4926FF0DFDBB7E700809387878E23
:101A94002320F4926FF0DFDA930784A72320F492D3
:101AA4006FF01FDA832784922320F4926FF05FD9BA
:101AB400832784912320F4926FF09FD8B7D70080B6
:101AC400938787252320F4926FF09FD7B7B70080C0
:101AD400938787972320F4926FF09FD6930744A7A8
:101AE4002320F4926FF0DFD58327C49193870710E6
:101AF4002320F4926FF0DFD4B7D700809387877ADE
:101B04002320F4926FF0DFD3B7B70080938787CB9D
:101B14002320F4926FF0DFD2B7B700809387C7DD3C
:101B240083A7C700130720196384E70E636EF700C9
:101B3400130700196386E70E13071019E392E7D021
:101B4400232034936FF0DFCF13073019E39AE7CEE5
:101B5400B7E700809387C78E2320F4926FF05FCE9F
:101B6400B7B700809387C7DD83A7C7001307201981
:101B7400638EE70A636CF70013070019E392E7CC5E
:101B84009307C4BB2320F4926FF09FCB1307301943
:101B9400E398E7CAB7D70080938787582320F49245
:101BA4006FF01FCAB7B700809387C7DD83A7C7004C
:101BB400130720196384E7086364F7021307001905
:101BC400638CE70813071019E39CE7C68327049185
:101BD400232AF4908327C4902320F4926FF05FC6E5
:101BE40013073019E39EE7C4B7D70080938787486B
:101BF400232AF490B7D70080938787382320F49260
:101C04006FF01FC4930784932320F4926FF05FC393
:101C1400B7B700809387C7932320F4926FF05FC215
:101C2400930744942320F4926FF09FC1B7B70080C8
:101C34009387C7CB2320F4926FF09FC0B7B700807F
:101C440093878793232AF490B7B7008093874793A9
:101C54002320F4926FF0DFBE93070494232AF490B8
:101C64009307C4932320F4926FF09FBD130584A7B8
:101C7400EFE05FDC63180500930784A7232EF49438
:101C84006F00800237A50080130585BBEF00905FCD
:101C94006F00C05B03258492EFE0DFD96310050C6D
:101CA40093078492232EF4949307C4FF2328F49675
:101CB400B7B700809387C7DD03A747002326E494C2
:101CC40083A7070093064006638CD71213075006B8
:101CD4006382E71A832404929385040037A5008065
:101CE400130505C3EF00105A8325849437A500809B
:101CF400130545C4EF0010598325849463FC95288B
:101D0400B385B440938555002328B49437A5008047
:101D1400130545C5EF0010578327849423800700DB
:101D24001305C494EFF08F8463000528B7B70080CF
:101D34009387C7DD83A707019387C7E01307800054
:101D44006364F73C9397270037A70080130747D9AC
:101D5400B387E70083A707006780070037A50080E3
:101D6400130585BBEF0010526FF09FF30325849198
:101D7400EFE05FCC631A050083278491232EF4944B
:101D8400232004966FF05FF237A50080130585BB0E
:101D9400EF00504F6F00804B37D500801305852529
:101DA400EFE05FC9631C0500B7D7008093878725E0
:101DB400232EF494232004966FF01FEF37A50080A0
:101DC400130585BBEF00104C6F00404837B5008009
:101DD40013058597EFE01FC6631C0500B7B70080A5
:101DE40093878797232EF494232004966FF0DFEBD8
:101DF40037A50080130585BBEF00D0486F00004570
:101E04009307A00C6300F70463E2E7029307800CD6
:101E14006302F7049307900C6314F704B717008068
:101E2400938707B8232AF4946FF0DFEA9307B00C82
:101E34006318F702B7C7ADDE9387F7EE232AF4944D
:101E44006FF05FE9B7170080938707BB232AF494E8
:101E54006FF05FE883278494232AF4946FF09FE75C
:101E640037A50080130585BEEF00D041130510008F
:101E7400EF60804AB7B700809387C7DD83A78700E8
:101E8400938747ED13071001636CF70E93972700B0
:101E940037A70080130787DBB387E70083A7070012
:101EA400678007009307C4FF232AF4946FF09FE22E
:101EB40093078493232AF4946FF0DFE19307C49289
:101EC400232AF4946FF01FE183274492232AF49485
:101ED4006FF05FE0B7B7008093870793232AF494E9
:101EE4006FF05FDFB7E700809387878E232AF4942F
:101EF4006FF05FDE930744A7232AF4946FF09FDD0D
:101F04008327C49193870710232AF4946FF09FDCEE
:101F1400B7D700809387877A232AF4946FF09FDBE6
:101F2400B7B70080938787CB232AF4946FF09FDAA6
:101F3400930784A7232AF4946FF0DFD9832784922C
:101F4400232AF4946FF01FD983278491232AF494CD
:101F54006FF05FD8B7D7008093878725232AF4943E
:101F64006FF05FD7B7B7008093878797232AF494DD
:101F74006FF05FD693870181232AF4946FF09FD585
:101F840037A50080130585C0EF00D02F130510007E
:101F9400EF60803837A50080130585C6EF00902ECA
:101FA40013051000EF60403737A500801305C5C83E
:101FB400EF00502D13051000EF6000360326049542
:101FC4001306F6FF8325849503258494EFE09FA2EE
:101FD400B7B7008083A7C7DD13074006638EE70207
:101FE400130750066394E724B7B700809387C7DDCF
:101FF40003A707019307B01F6302F712B7B7008066
:102004009387C7DD83A747001307900C638AE71201
:102014001307800C6382E72037A50080130505B6FB
:10202400EF00502637A50080130505D2EF00902558
:10203400B7B700809387C7DD83A78700938737ED01
:10204400130700016364F7209397270037A70080E4
:10205400130707E0B387E70083A70700678007003B
:102064008325849503258494EF60806C6FF05FF67C
:10207400032604958325849503258494EF60807F4B
:102084006FF01FF58325849503258494EF60406ADF
:102094006FF01FF48326849537A600801306C6CA02
:1020A4008325049503258494EF6040556FF05FF217
:1020B4008325849503258494EF60805F6FF05FF13E
:1020C400032604958325849503258494EF6000708A
:1020D4006FF01FF08326049537A60080130606CB05
:1020E4009305F0001305C4BAEF6040516FF05FEE42
:1020F400032604951306F6FF83258495032584940B
:10210400EFE09FEA6FF0DFEC37A50080130585CB85
:10211400EF00501713051000EF600020832604928F
:1021240083A706001397870023A0E6003707000162
:102134001307F7FFB3F7E70023A0F6006FF01FECD7
:10214400B7170080938707B8232AF49483278494CD
:1021540083244491B387F440938757002328F4944D
:102164001305C494EFE09FC0032604951306F6FFFD
:102174008325849503258494EFE0DF879385040009
:1021840037A500801305C5CDEF00D00FB7B7008089
:102194009387C7DD83A7C700130720196382E70667
:1021A4006366F702130700196382E7041307101923
:1021B400E394E7E68327049103A7070083270492A7
:1021C40083A7070023A0E7006FF01FE5130730196A
:1021D400E394E7E4B7D7008003A7874883270492F2
:1021E40083A7070023A0E7006FF01FE3832704926F
:1021F40083A707000327049423A0E7006FF0DFE11F
:102204008327049283A7070037B7008003278793A7
:1022140023A0E7006FF05FE08327049283A7070001
:102224000327849423A0E7006FF01FDF37A5008005
:10223400130545CFEF00100513051000EF60C00D26
:102244001305000083278493E7800700B7D7008035
:102254000327C4FD83A70725B347F700130700002E
:102264006394071A8320C16F0324816F8324416F11
:102274000329016F8329C16E032A816E1301017042
:102284006780000093050000130500008327C492B3
:10229400E78007006FF09FFB8327449283A7070022
:1022A4009305000013050000E78007006FF01FFA94
:1022B400B7B7008083A707939305000013050000B8
:1022C400E78007006FF09FF8B7E7008083A7878E49
:1022D4009305000013050000E78007006FF01FF767
:1022E400130584A7EFE01FCA03258492EFE09FC97A
:1022F40003258491EFE01FC937D500801305852598
:10230400EFE05FC837B5008013058597EFE09FC7FE
:102314009305000013050000832744A7E780070006
:102324006FF0DFF28327C49183A7071093050000A1
:1023340013050000E78007006FF05FF1B7D7008056
:102344009387876A83A7071093050000130500008D
:10235400E78007006FF09FEFB7B70080938787BBD4
:1023640083A707109305000013050000E78007000A
:102374006FF0DFEDB7B700809387C7DD83A7C70091
:10238400130720196380E7066364F7021307001933
:102394006380E70413071019E39AE7EA8327C490DC
:1023A40083A5070003258494EFE01FD56FF01FEA8F
:1023B40013073019E39CE7E8B7D7008083A7873871
:1023C40083A5070003258494EFE01FD36FF01FE873
:1023D4008327C49383A5070003258494EFE0DFD10A
:1023E4006FF0DFE6B7B7008083A7479383A50700A4
:1023F40003258494EFE05FD06FF05FE503258494B8
:10240400EFE09FD86FF09FE4EF50407013803000EE
:10241400130101FE232E1100B7D7008003A707255F
:102424002326E10013070000B7B700809387C7DDB8
:1024340083A747001307800C6386E7061307A00CE5
:10244400638AE7081307B00C6388E70AB7B700800C
:102454009387C7DD83A78700938757EC1307200072
:102464006376F712B7B700809387C7DD83A7C700E9
:1024740013072019638CE72C6368F71213070019FC
:102484006388E71613071019639CE710B7B7008039
:1024940003A7C7DD930740066300F7221305100066
:1024A4006F00C01237B700801307C7DD0327070189
:1024B4009306401FE304D7F89306C01FE300D7F840
:1024C40037A50080130545E4EF00C05B1305000049
:1024D4006F00C00F37B700808326C7DD130740069F
:1024E400E382E6F637A500801305C5E8EF008059BE
:1024F400130500006F00800DB7B700809387C7DD18
:1025040083A78700938657EC130720006364D704DE
:10251400938747EC130710006378F704B7B700807C
:102524009387C7DD03A7C70093071019E31CF7F2CD
:10253400B7B7008003A7C7DD93075006E314F7F28B
:1025440037A500801305C5F3EF00C0531305000041
:102554006F00C00737A50080130505EDEF0080521A
:10256400130500006F008006B7B7008003A7C7DD1E
:1025740093075006E314F7FA37A50080130505F016
:10258400EF004050130500006F00400437A50080A1
:10259400130545F7EF00004F130500006F0000031B
:1025A400130510006F00800213073019639EE700C3
:1025B400B7B7008003A7C7DD930740066302F7148B
:1025C400130510006F00800013051000B7D70080BA
:1025D4000327C10083A70725B347F70013070000AB
:1025E400639007268320C101130101026780000064
:1025F400B7B7008003A7C7DD930740066306F7005B
:10260400130510006FF09FFCB7B700809387C7DDF8
:1026140083A78700938617ED130720006372D704FE
:1026240013074013638EE70213076013638AE702FC
:10263400130750136386E702130780136382E702CC
:1026440013079013638EE7001307A013638AE70050
:102654001307E0126380E702130510006FF01FF701
:1026640037A50080130585FBEF00C041130500006A
:102674006FF0DFF5B7B700809387C7DD83A7070145
:10268400938687E013071000637ED7001307B01FFB
:10269400638AE7001307C01F6386E7001305100071
:1026A4006FF0DFF237A5008013050501EF00803DD0
:1026B400130500006FF09FF1B7B700809387C7DD63
:1026C40083A78700938647ED130720006370D70222
:1026D400938707ED1307A000636CF7121307F06EDE
:1026E400B357F70093F717006388071237A50080E4
:1026F4001305C509EF000039130500006FF01FED45
:10270400B7B700809387C7DD83A78700938647ED1B
:10271400130720006372D702138717ED9307B000E5
:1027240063E0E710B71700009387B7B7B3D7E700A4
:1027340093F71700638A070E37A500801305450F2A
:10274400EF004034130500006FF05FE8B7B7008076
:1027540083A7C7DD13074006638AE7001307500603
:10276400638AE704130510006FF05FE637B7008053
:102774001307C7DD03278700130647ED93062000E0
:1027840063F0C602130717ED9306A000E3E8E6FC26
:102794009306D07B33D7E60013771700E30007FCDA
:1027A40037A5008013054515EF00C02D1305000063
:1027B4006FF0DFE1B7B700809387C7DD03A7870019
:1027C400930740136306F700130510006FF01FE032
:1027D400B7B700809387C7DD83A707011307401F9E
:1027E4006388E7041307601F6388E7041307C01FA7
:1027F4006396E700130510006FF05FDD37A50080D6
:102804001305C51AEF000028130500006FF01FDC44
:10281400130510006FF09FDB130510006FF01FDB32
:10282400130510006FF09FDA130510006FF01FDA24
:10283400130510006FF09FD9130510006FF01FD916
:10284400EF50C02C13803000130101EB2326111428
:10285400B7D7008003A70725232EE1121307000032
:10286400EFF0DFBA630C0502930581003715008091
:10287400130585AFEFE09FDCB7D700800327C113B2
:1028840083A70725B347F70013070000639C0700DD
:102894008320C11413010115678000001305C0C70C
:1028A400EF509027EF50802613803000130101FE73
:1028B400232E1100232C810037D400808327042584
:1028C4002326F10093070000B7B700809387C7DD84
:1028D4001307400623A0E7001307A00C23A2E70078
:1028E4001307801323A4E7001307101923A6E70096
:1028F4001307701F23A8E700B7A500809385C51FA1
:1029040037A5008013058520EF00C017EFE00FB74F
:10291400EFF05FF337A500801305C521EF008016A3
:102924000327C10083270425B347F70013070000DA
:10293400639A07008320C10103248101130101026A
:1029440067800000EF50801C13803000130101FEEB
:10295400232E1100B7D7008003A707252326E10003
:10296400130700000327C10083A70725B347F70017
:1029740013070000639A0700130500008320C101B8
:102984001301010267800000EF50401813803000EB
:10299400130101FE232E1100232C810037D4008063
:1029A400832704252326F1009307000083A7C18110
:1029B400E78007000327C10083270425B347F700F6
:1029C40013070000639A07008320C10103248101D7
:1029D4001301010267800000EF50401313803000A0
:1029E400130101FE232E1100B7D7008003A707258A
:1029F4002326E1001307000023AEA1800327C100B2
:102A040083A70725B347F70013070000639807005F
:102A14008320C1011301010267800000EF50000F01
:102A240013803000130101FE232E1100232C81009A
:102A3400130605009386050037D4008083270425F8
:102A44002326F100930700001307000093050000FC
:102A54003735008013050599EF0050470327C1005F
:102A640083270425B347F70013070000639A070080
:102A74008320C10103248101130101026780000046
:102A8400EF50C00813803000130101FC232E110005
:102A9400232C81002322B1022324C1022326D10244
:102AA4002328E102232AF102232C0103232E1103FC
:102AB40037D40080832704252326F10093070000E0
:102AC400930541022324B100EFF09FF50327C100D1
:102AD40083270425B347F70013070000639A070010
:102AE4008320C101032481011301010467800000D4
:102AF400EF50C00113803000130101FE232E11009A
:102B040093070500138505009305060037D7008059
:102B1400032607252326C10013060000138606009A
:102B2400E7800700EF40D067EF40907913803000D2
:102B3400130101FE232E110013060500B7D70080F0
:102B440003A707252326E100130700000327050038
:102B5400130500006F00C00193172500B387A70079
:102B64009397170013071700B387D700138507FD42
:102B740083460700B7A7008093875778B387F6008A
:102B840083C7070093F74700E39807FC2320E60078
:102B9400B7D700800327C10083A70725B347F700F1
:102BA40013070000639807008320C1011301010289
:102BB40067800000EF40907513803000130101FE20
:102BC400232E11001306050013850500B7D70080D6
:102BD40003A707252326E10013070000930610002E
:102BE4006F0040068357060093E747002310F60062
:102BF40063880604130515006F00800483570600DC
:102C040093E787002310F6006FF09FFE83570600BA
:102C140093E707012310F6006FF09FFD835706002A
:102C240093E707022310F6006FF09FFC835706001A
:102C340093E707042310F6006FF09FFB9306000050
:102C44006388060283470500938707FE93F5F70F11
:102C540013070001E364B7FE9397250037A70080AC
:102C640013078744B387E70083A70700678007003B
:102C74008327060093F74704130740046384E7029D
:102C8400B7D700800327C10083A70725B347F70000
:102C940013070000639007028320C101130101029E
:102CA400678000008357060093F7F7FB2310F600B4
:102CB4006FF01FFDEF40906513803000130101FD9C
:102CC40023261102232481022322910213040500E6
:102CD4002326B100B7D7008003A70725232EE100E0
:102CE400130700008357050093E707082310F50036
:102CF4009384050003C705009307A0026300F70847
:102D04001305C100EFF09FE28327C1006380F40440
:102D14008357040093E707082310F4002322A40038
:102D24008327040093D7170093F71700634405061D
:102D340013070000B3E7E700939717000357040055
:102D44001377D7FFB367F7002310F4000325C100FE
:102D5400B7D700800327C10183A70725B347F7002E
:102D640013070000639C07028320C102032481022D
:102D74008324410213010103678000008357050087
:102D840093E707102310F500138515002326A100EF
:102D94006FF01FFC130710006FF0DFF9EF401057BE
:102DA40013803000130101FD232611022324810224
:102DB4002326B100B7D7008003A70725232EE100FF
:102DC4001307000003C70500130727FD93361700F8
:102DD400939696008357050093F7F7DFB3E7D70080
:102DE4002310F50063120708130405008327C100AC
:102DF400138717002326E10003C717009307A002D7
:102E04006308F7061305C100EFF05FD22324A40082
:102E14008327040093D7170093F717006348050628
:102E240013070000B3E7E700939717000357040064
:102E34001377D7FFB367F7002310F4000325C1000D
:102E4400B7D700800327C10183A70725B347F7003D
:102E540013070000639007048320C1020324810246
:102E64001301010367800000138505006FF05FFD07
:102E74008357050093E707402310F5000325C1009D
:102E8400130515002326A1006FF09FFB1307100004
:102E94006FF05FF9EF40904713803000130101FE9B
:102EA400232E110013060500B7D7008003A70725BA
:102EB4002326E1001307000083C70500938747FB1F
:102EC40093F6F70F1307E002636AD7189397260067
:102ED40037A700801307C748B387E70083A7070015
:102EE400678007001385150003C715009307800644
:102EF4006302F702835706003787FFFF1307F77F44
:102F0400B3F7E70037170000B3E7E7002310F60034
:102F14006F00800A835706003787FFFF1307F77F88
:102F2400B3F7E7003717000013070780B3E7E7009C
:102F34002310F600138525006F0000081385150083
:102F440003C715009307C0066304F70283570600FE
:102F54003787FFFF1307F77FB3F7E7003727000032
:102F640013070780B3E7E7002310F6006F00C004DF
:102F7400835706003787FFFF1307F77FB3F7E70090
:102F840037270000B3E7E7002310F6001385250078
:102F94006F008002835705003787FFFF1307F77F11
:102FA400B3F7E7003737000013070780B3E7E700FC
:102FB4002310F50013851500B7D700800327C1003F
:102FC40083A70725B347F700130700006396070A92
:102FD4008320C101130101026780000083570500AB
:102FE4003787FFFF1307F77FB3F7E7003737000092
:102FF400B3E7E7002310F500138515006FF0DFFB3E
:10300400835705003787FFFF1307F77FB3F7E70000
:103014003747000013070780B3E7E7002310F500E4
:10302400138515006FF05FF9835705003787FFFF9D
:103034001307F77FB3F7E70037470000B3E7E7006C
:103044002310F500138515009397070193D7070103
:1030540093E727002310F6006FF01FF6835706004E
:103064003787FFFF1307F77FB3F7E7002310F60056
:10307400138505006FF05FF4EF4050291380300092
:10308400130101FE232E110013070500B7D700809A
:1030940083A607252326D100930600001385150077
:1030A40083C70500A301F7009306800763EAF604CB
:1030B4009306E00663FAD7089306900663E2F604E3
:1030C4009306800563E8D704138687FA93061000F5
:1030D400B396C60037E600001306062033F6C60092
:1030E40063180604371600001306168033F6C6006C
:1030F4006318061237160200B3F6C6006394060A74
:103104008357070093E717002310F7009307000085
:103114006F00800C93061004638CD700E3E2D7FEA3
:103124009387B7FB93F7F70F93062000E3EAF6FCC7
:103134008347270093F787FF93E747002301F700AE
:10314400930710006F004009138627F993061000B7
:10315400B396C60013F62648B335C0006312060CB6
:1031640013F64602B337C000631A060E93F6160030
:10317400E38806F803462700137686FF13663600B5
:103184002301C70003560700B78500009385058017
:103194003376B600B74500006310B6049387060083
:1031A4006F0080038346270093F686FF93E616009C
:1031B4002301D700835607003786000013060680D4
:1031C400B3F6C600374600006386C606930630068B
:1031D400638AD706930700008326070093D6160058
:1031E40093F61600B3E7D7009397170083560700AA
:1031F40093F6D6FFB3E7F6002310F700B7D70080A5
:103204000327C10083A70725B347F700130700006E
:10321400639C07068320C10113010102678000003B
:103224008346270093F686FF93E626002301D70002
:103234006FF05FF88356070093E616002310D7005B
:103244006FF0DFF883570700B78600009386068087
:10325400B3F7D700B337F0006FF01FF883462700A9
:1032640093F686FF93E636002301D70083560700C2
:103274003786000013060680B3F6C600E39E06F404
:10328400938705006FF05FF5EF405008138030001E
:10329400130101FE232E1100232C810013040500C9
:1032A400B7D7008003A707252326E10013070000F2
:1032B40023200500232205002324050083C71500CD
:1032C400130750026384E706938515001305040071
:1032D400EFF09F8E9305050013050400EFF0DF9DCA
:1032E4009305050013050400EFF09FAB930505005B
:1032F40013050400EFF05FBA9305050013050400FD
:10330400EFF0DFD7B7D700800327C10083A70725D5
:10331400B347F70013070000639007028320C1013D
:103324000324810113010102678000001385250035
:10333400A301F4006FF01FFDEF40407D13803000C7
:10334400130101FE232E1100B7D7008003A7072520
:103354002326E100130700009307F006630CF5042D
:1033640063FEA70293070007630AF5049307800727
:10337400631AF50413050001B7D700800327C100C1
:1033840083A70725B347F7001307000063900704DA
:103394008320C101130101026780000093078005A7
:1033A4006306F5001305A0006FF01FFD130500016F
:1033B4006FF09FFC130580006FF01FFC13050001E4
:1033C4006FF09FFB1305A0006FF01FFBEF4000742C
:1033D40013803000130101FC232E1102232C8102DF
:1033E400232A910223282103232631032324410382
:1033F4002322510323206103232E7101232C8101F5
:103404009309050013840500130C0600938A060033
:1034140093040700B7D7008003A707252326E100FC
:103424001307000003453600B7A700809387577839
:10343400B307F50083CB070093FB3B00EFF01FF0CD
:10344400130905006F00800493071000638AFB06CC
:103454009377F50F9387770593F7F70F9384F4FF2A
:103464002380F40013060900930600001385090065
:1034740093050400EFC0DFD6636E4405630A8A0433
:1034840063FA9A049309050013840500130B0900D9
:10349400130A0000130609009306000013850900AF
:1034A40093050400EFD0CF9693079000E3EEA7F8BE
:1034B4009377F50F9387070393F7F70F6FF01FFACE
:1034C4009377F50F9387770393F7F70F6FF01FF94F
:1034D400E3F869FB83570C0093F70702638A07003C
:1034E40093078000630CF904930700016300F90655
:1034F400B7D700800327C10083A70725B347F70088
:1035040013070000639C0704138504008320C10390
:103514000324810383244103032901038329C10272
:10352400032A8102832A4102032B0102832BC10156
:10353400032C8101130101046780000083472C00E0
:1035440093E787002301FC006FF09FFA83472C0068
:1035540093E707012301FC006FF09FF9EF40005B44
:1035640013803000130101FE232E1100B7D7008011
:1035740003A707252326E10013070000832705007E
:1035840093D7B70093F7F700130770006360F7024F
:103594009397270037A7008013078754B387E70062
:1035A40083A707006780070023A0C500B7D7008062
:1035B4000327C10083A70725B347F70013070000BB
:1035C400639C07048320C10113010102678000008A
:1035D4002380C5006FF09FFD2390C5006FF01FFD91
:1035E40023A0C5006FF09FFC9357F64123A0C500AC
:1035F40023A2F5006FF09FFB9357F64123A0C5006B
:1036040023A2F5006FF09FFA23A0C5006FF01FFA04
:1036140023A0C5006FF09FF9EF40404F13803000A6
:10362400130101FD23261102232481022322910286
:1036340023202103232E3101232C4101130A0500E9
:103644009389050013890600B7D7008003A70725CF
:103654002326E10013070000130400006F0000029A
:10366400930416009385090003450600E7000A0049
:10367400634005021304140013860400E36226FF6A
:103684006316090083470600E39C07FC1305040046
:10369400B7D700800327C10083A70725B347F700E6
:1036A40013070000639207028320C10203248102EE
:1036B40083244102032901028329C101032A8101D0
:1036C4001301010367800000EF4040441380300081
:1036D400130101F8232E1106232C8106232A9106B7
:1036E40023282107232631072324410723225107B6
:1036F40023206107232E7105232C8105130905005E
:1037040093840500930A06002326D100B7D70080CE
:1037140003A707252326E104130700001304000070
:1037240003C50A006300057893075002630EF50091
:10373400938A1A0093850400E7000900634605761E
:10374400130414006FF0DFFD23280100232A010075
:10375400232C0100232E0100232001022322010235
:10376400232401022326010293850A001305010282
:10377400EFF0DFB1930905008357010213F7071037
:103784006302070C8327C100138747002326E10047
:1037940003AA0700634E0A088357010213F7074080
:1037A4006308070C8327C100138747002326E10021
:1037B40003AB070063440B0A232201022324010202
:1037C4008327010213D707011377770093D7B70034
:1037D40093F7F70093860700130610006306C70AE1
:1037E400130620006300C71E93074000630AF72CEA
:1037F400930730006308F7328327010293F73700F9
:10380400639E0732834731029387B7FD93F6F70F20
:1038140013073005636AD74C9397260037A70080B7
:1038240013070757B387E70083A7070067800700DC
:103834008357010293E747002310F102330A404102
:103844006FF09FF593F7070863860700032A410288
:103854006FF09FF4130AF0FF6FF01FF48357010217
:1038640093F7F7DF2310F102130BF0FF6FF0DFF48F
:1038740093F7072063860700032B81026FF0DFF3C1
:10388400130BF0FF6FF05FF313075000638EE70E26
:10389400636EF702130730006382E70A13074000E0
:1038A400639EE7048327C1009387770093F787FF1C
:1038B400138787002326E10003A7070083A7470097
:1038C4002328E100232AF1006F0000059387A70055
:1038D40093F7F700130710006362F7028327C10010
:1038E400138747002326E10083A7070013D7F74176
:1038F4002328F100232AE1006F0000028327C1007E
:10390400138747002326E10083A7070013D7F74155
:103914002328F100232AE10093071000638AF608A4
:1039240093072000E39AF6EC8317010113D7F741BC
:103934002328F100232AE1006FF01FEC0347310232
:10394400930730066302F7028327C10013874700F9
:103954002326E10083A7070013D7F7412328F100AA
:10396400232AE1006FF05FFB8327C1001387470020
:103974002326E10083A7070013D7F7412328F1008A
:10398400232AE1006FF05FF98327C1009387770052
:1039940093F787FF138787002326E10003A7070017
:1039A40083A747002328E100232AF1006FF0DFF604
:1039B4008307010113D7F7412328F100232AE100EB
:1039C4006FF09FE3130750006380E70C636EF70208
:1039D40013073000638CE70813074000639CE70477
:1039E4008327C1009387770093F787FF13878700A6
:1039F4002326E10003A7070083A747002328E1004B
:103A0400232AF1006F0080049387A70093F7F7003F
:103A1400130710006360F7028327C1001387470070
:103A24002326E10083A707002328F100232A0100AD
:103A34006F00C0018327C100138747002326E100DC
:103A440083A707002328F100232A0100930710000D
:103A54006380F60693072000E390F6DA83570101AA
:103A64002328F100232A01006FF01FD98327C10006
:103A7400138747002326E10083A707002328F100CA
:103A8400232A01006FF09FFC8327C10093877700EE
:103A940093F787FF138787002326E10003A7070016
:103AA40083A747002328E100232AF1006FF01FFABF
:103AB400834701012328F100232A01006FF0DFD39B
:103AC400930780006386F6028327C10093877700FB
:103AD40093F787FF138787002326E10003A70700D6
:103AE40083A747002328E100232AF1006FF0DFD0E9
:103AF4008327C100138747002326E10083A707001B
:103B040003A6070083A6470003A7870083A7C7006F
:103B14002328C100232AD100232CE100232EF10005
:103B24006FF09FCD8327C100138747002326E10050
:103B340083A707002328F1006FF01FCC93860900A8
:103B440013860A009385040013050900EFF01FADE6
:103B5400634C05343304A400938A09006FF05FBCFE
:103B64009385040013055002E7000900634E0532F3
:103B740013041400930B0000130BA104930A000018
:103B84006F004017832A0101634E0B0093050B005D
:103B940013850A00EF409051338BAA00930B000069
:103BA4006F00401513850A00EF4090406FF0DFFE70
:103BB40083270101230AF102930B0000130B510325
:103BC400930A41036F0000138357010213F7870020
:103BD400631A070093F7070163940702930B00002D
:103BE4006F008000930BB00203270101832741017A
:103BF40063CC07002328E100232AF1006F000003AF
:103C0400930B00026FF05FFEB306E0403337E00031
:103C1400B307F040B387E7402328D100232AF100FB
:103C2400930BD0026F008000930B00001307A104D4
:103C34009306410313060102032501018325410173
:103C4400EFF00FF9930A050063460B129307A104E2
:103C5400B3875741035701021377F7FB2310E1029F
:103C640063FE6711B307FB402322F102130BA10487
:103C74006F00400803250101631E0500930B00003B
:103C840037AB0080130BDB56B7AA0080938A8A56A1
:103C94006F0040061307A1049306410313060102B3
:103CA40093050000EFF0CFF2930A05008347210249
:103CB40093E707012301F10293078007A301F102AF
:103CC400930B00006FF05FF81306040083250101D5
:103CD40013050102EFF0DF88930B0000130BA1041E
:103CE400930A00006F000001930B0000130BA10462
:103CF400930A000063840A1AB3065B4163840B00D1
:103D0400938616008347210213F70701630C070605
:103D140093862600032741023307D70093F707044D
:103D240063860700832781023307F700635E400937
:103D3400330AEA408327010293D7270093F7170039
:103D4400639407088357010293F707046384070405
:103D540063860B049385040013850B00E7000900B8
:103D64006344051413041400130C0003930B0000A4
:103D74006F000003130BA1046FF0DFF7130BA10412
:103D84006FF05FF713F78700E30607F893861600D2
:103D94006FF05FF8130C00026F008000130C000337
:103DA40093070A00138AF7FF6350F0029385040017
:103DB40013050C00E70009006348050E1304140002
:103DC40093070A006FF01FFE638C0B0093850400B9
:103DD40013850B00E70009006348050C1304140065
:103DE4008327010213D747011377170093D73701AD
:103DF40093F71700B367F700638C070093850400FB
:103E040013050003E70009006340050A13041400C6
:103E14008347210293F70701638C0700938504000D
:103E240003453102E7000900634005081304140048
:103E340083274102938BF7FF6350F00293850400BC
:103E440013050003E700090063400506130414008A
:103E540093870B006FF01FFE93060B0013860A0076
:103E64009385040013050900EFF04FFB634E050230
:103E74003304A40063504003938504001305000237
:103E8400E70009006342050213041400130AFAFF51
:103E94006FF05FFE938A09006FF09F88938A090090
:103EA4006FF01F8813050400B7D700800327C104EF
:103EB40083A70725B347F70013070000639A070297
:103EC4008320C107032481078324410703290107B1
:103ED4008329C106032A8106832A4106032B01068E
:103EE400832BC105032C81051301010867800000A1
:103EF400EF30D04113803000130101FE232E110056
:103F0400B7D7008003A707252326E1001307000085
:103F14000327C10083A70725B347F7001307000051
:103F2400639807008320C101130101026780000028
:103F3400EF30D03D13803000130101FE232E110019
:103F4400232C810037D40080832704252326F10005
:103F540093070000EF0080149307800073A00730DC
:103F6400730050100327C10083270425B347F700CB
:103F740013070000639A07008320C1010324810111
:103F84001301010267800000EF30503813803000C5
:103F9400130101FE232E1100B7D7008003A70725C4
:103FA4002326E100130700009357850013F7F70F4A
:103FB400631A070293071000B397A700F3A74730CB
:103FC400B7D700800327C10083A70725B347F700AD
:103FD40013070000639E07008320C101130101023F
:103FE400678000001385F7FFEF0010156FF05FFD89
:103FF400EF30D03113803000130101FE232E110065
:10400400B7D7008003A707252326E1001307000084
:10401400135585009377F50F63940702B7D7008093
:104024000327C10083A70725B347F7001307000040
:10403400639E07008320C101130101026780000011
:104044001305F5FFEF0050166FF05FFDEF30102CF5
:1040540013803000130101FE232E1100B7D7008016
:1040640003A707252326E100130700007377043014
:1040740073504030735040340327C10083A7072591
:10408400B347F70013070000639807008320C101BA
:104094001301010267800000EF30502713803000C5
:1040A400130101FE232E1100B7D7008003A70725B3
:1040B4002326E100130700000327C10083A7072577
:1040C400B347F70013070000639807008320C1017A
:1040D4001301010267800000EF3050231380300089
:1040E400130101FE232E1100B7D7008003A7072573
:1040F4002326E100130700000327C10083A7072537
:10410400B347F70013070000639A07001305000084
:104114008320C1011301010267800000EF30101FEA
:1041240013803000130101FE232E1100B7D7008045
:1041340003A707252326E10013070000EF10405CC6
:1041440013803000130101FE232E1100232C810063
:1041540013040500B7D7008003A707252326E10031
:1041640013070000F3272034F3273034EFF01FF750
:10417400630405001305200093050400EFF05FFAC3
:1041840013803000130101FE232E1100B7D70080E5
:1041940003A707252326E10013070000F327203493
:1041A4009305000013051000EFF09FF71380300013
:1041B400130101FE232E1100B7D7008003A70725A2
:1041C4002326E10013070000EF10D004EFF05FE8AE
:1041D400EF10D028732540F1630A05009302100004
:1041E40063425504730050106FF0DFFF97720000B4
:1041F400938202C63713000033035300B7B3AAAA4D
:104204009383A3AA23A0720093824200E3CC62FEAC
:10421400177100001301C1C3B7120000330151002C
:10422400EFF0DFF8976200009382C27183A202006C
:10423400E31A55FE976200009382827003A1020084
:10424400976200009382027023A002006F00C007EF
:1042540023AA150223AC850223AE950223A02505CB
:1042640023A2350523A4450523A6550523A86505E2
:1042740023AA750523AC850523AE950523A0A507C0
:1042840023A2B50723A8250223AEB50603210503FF
:1042940083204503032485038324C50303290504DC
:1042A40083294504032A8504832AC504032B0505B1
:1042B400832B4505032C8505832CC505032D050695
:1042C400832D45066780000013803000130101FE32
:1042D400232E1100232C810013040500B7D700807E
:1042E40003A707252326E10013070000EFF05FD69C
:1042F400B7B700801314340093878794B38787007B
:1043040003A7070003A54700E70007001380300058
:10431400130101FE232E1100B7D5008083A80525C3
:104324002326110193080000130606FB137606FFEB
:104334002320D6022322E6022324F60223260603A0
:10434400B7270000938707882322F604B737008035
:10435400938787AF2320F6042328C502B70700807C
:104364009387C715232AF502232EA5060327C10028
:1043740083A70525B347F7001307000063980700D8
:104384008320C1011301010267800000EF3000782F
:1043940013803000130101FE232E1100B7D70080D3
:1043A40003A707252326E100130700000327C10004
:1043B40083A70725B347F70013070000639A070094
:1043C400130500008320C10113010102678000006E
:1043D400EF30C07313803000130101FE232E11004F
:1043E400B7D7008003A707252326E10013070000A1
:1043F4000327C10083A70725B347F700130700006D
:10440400639A07001305F0FF8320C1011301010221
:1044140067800000EF30806F13803000130101FECD
:10442400232E1100B7D7008003A707252326E10018
:104434001307000023A0A1820327C10083A7072537
:10444400B347F70013070000639807008320C101F6
:104454001301010267800000EF30406B13803000CD
:10446400130101FD23261102232481022322910238
:1044740023202103232E310193090500138905000C
:10448400B7D7008003A707252326E1001307000000
:10449400130400006F00400183A7018203C50400D8
:1044A400E78007001304140063522403B3848900D3
:1044B40003C704009307A000E310F7FE83A701825B
:1044C4001305D000E78007006FF01FFDB7D7008009
:1044D4000327C10083A70725B347F700130700008C
:1044E40063920702130509008320C1020324810299
:1044F40083244102032901028329C1011301010319
:1045040067800000EF30806013803000130101FEEB
:10451400232E1100232C810013850500930506002A
:1045240037D40080832704252326F1009307000055
:10453400EFF0DFF20327C10083270425B347F70018
:1045440013070000639A07008320C101032481013B
:104554001301010267800000EF30405B13803000DC
:10456400130101FE232E1100B7D7008003A70725EE
:104574002326E1001307000013065000B7A50080AE
:104584009385056C13051000EFF01FF86F00000011
:1045940013803000130101FE232E110013070500C0
:1045A400B7D7008083A607252326D10093060000F1
:1045B400B7B7008083A60795938781843385F60077
:1045C4003307D700B70600C0B387F6406378F70215
:1045D400B7B7008023A8E794B7D700800327C100AA
:1045E40083A70725B347F70013070000639C070060
:1045F4008320C10113010102678000001305F0FF4D
:104604006FF09FFDEF30805013803000130101FEE6
:10461400232E1100232C810037D400808327042506
:104624002326F100930700009305F0FF1306F0FF23
:10463400EF10D0330327C10083270425B347F700C5
:1046440013070000639A07008320C101032481013A
:104654001301010267800000EF30404B13803000EB
:10466400130101FE232E1100232C810037D4008076
:10467400832704252326F10093070000EF10D04977
:104684000327C10083270425B347F700130700005D
:10469400639A07008320C1010324810113010102ED
:1046A40067800000EF30804613803000130101FE64
:1046B400232E1100B7D7008003A707252326E10086
:1046C400130700001306D001B7A500809385856CFD
:1046D40013052000EFF05FE31305300093020000A0
:1046E4007300000013803000130101FE232E11001B
:1046F400232C810037D40080832704252326F1004E
:1047040093070000EF00905CB7B7008037D79A3B5F
:10471400130737A0938747950F00500FAFA6E70400
:104724003385A6000327C10083270425B347F70078
:1047340013070000639A07008320C1010324810149
:104744001301010267800000EF30403C1380300009
:10475400130101FE232E1100232C8100232A910032
:10476400232821011309050013840500B7D700800D
:1047740003A707252326E100130700006F00C001EB
:10478400138604009305810013050900EFC08FA66A
:10479400330999003304944063000402EFF09FF45A
:1047A4002324A1009304040093074000E3FA87FC48
:1047B400930440006FF0DFFCB7D700800327C100EB
:1047C40083A70725B347F70013070000639E07007C
:1047D4008320C101032481018324410103290101B0
:1047E4001301010267800000EF3040321380300073
:1047F400130101FE232E1100B7D7008003A707255C
:104804002326E10013070000930700003727000C5C
:104814006F00000123200700130747009387170048
:1048240093061000E3D8F6FE930700003707000C48
:104834006F00000123200700130747009387170028
:1048440093063003E3D8F6FEB707200C23A0070035
:1048540013060000930500001305B000EFF08FF974
:104864001305B000EFF08FF2B7D700800327C10023
:1048740083A70725B347F70013070000639A0700CF
:10488400130500008320C1011301010267800000A9
:10489400EF30C02713803000130101FE232E1100D6
:1048A400232C8100B7D7008003A707252326E10026
:1048B40013070000B707200C03A44700B7B7008014
:1048C40023AC87941307F4FF9307200363EEE704F4
:1048D4001304C400B7970080131434009387475F10
:1048E400B387870003A7470003A50700E700070075
:1048F400B7B7008003A78795B707200C23A2E7006A
:10490400B7D700800327C10083A70725B347F70063
:1049140013070000639007028320C101032481016F
:10492400130101026780000013050000EFF05F85AA
:104934006FF01FFAEF30801D13803000130101FE69
:10494400232E1100B7D5008083A705252326F10067
:10495400930700007377043093565500939626000E
:10496400B727000CB387D70083A6070013061000EF
:104974003316A600B3E6C60023A0D70093778700BA
:1049840073A007300327C10083A70525B347F700A9
:1049940013070000639807008320C101130101027B
:1049A40067800000EF30801613803000130101FE91
:1049B400232E1100B7D7008003A707252326E10083
:1049C400130700009307700063F4B70093057000A9
:1049D40013152500B707000CB387A70023A0B70061
:1049E400B7D700800327C10083A70725B347F70083
:1049F40013070000639807008320C101130101021B
:104A040067800000EF30801013803000130101FE36
:104A1400232E1100232C810013040500B7D7008036
:104A240003A707252326E100130700009307A0002E
:104A34006306F5049375F40F379500809307C55DFD
:104A440083A7870083A747001305C55DE780070098
:104A5400B7D700800327C10083A70725B347F70012
:104A640013070000639C0702130504008320C1019F
:104A7400032481011301010267800000379500803F
:104A84009307C55D83A7870083A747009305D000DC
:104A94001305C55DE78007006FF0DFF9EF3000070D
:104AA40013803000130101FE232E1100232C8100FA
:104AB400232A910037D40080832704252326F1007C
:104AC40093070000B75400801385C4A0EFF0DF946F
:104AD4001385C4A0EFD09FF00327C10083270425CA
:104AE400B347F70013070000639C07008320C1014C
:104AF4000324810183244101130101026780000022
:104B0400EF30C00013803000130101FE232E11008A
:104B1400B7D7008003A707252326E1001307000069
:104B2400379500801305C55DEF0050336308050217
:104B3400EFF01FF713050000B7D700800327C1006B
:104B440083A70725B347F70013070000639C0700FA
:104B54008320C10113010102678000001305D0FE08
:104B64006FF09FFDEF20907A13803000130101FE57
:104B7400232E1100B7D7008003A707252326E100C1
:104B8400130700008327850083A7C70063860702F5
:104B9400E7800700B7D700800327C10083A7072554
:104BA400B347F70013070000639C07008320C1018B
:104BB4001301010267800000130580FA6FF09FFD66
:104BC400EF20D07413803000130101FE232E110056
:104BD400B7D7008003A707252326E10013070000A9
:104BE40003270501638205086300060893974500BF
:104BF4003356F6028327450003A8070083C607013E
:104C040093971600B387D700B387070183C60700BD
:104C140013F8F60F93E606082380D7009376F60F71
:104C24008327450083A707002380D70013568600F7
:104C34001376F60F8327450083A6070083C7070171
:104C4400B387D7002380C7008327450003A6070046
:104C540083C6070193971600B387D700B387C700AD
:104C6400238007012320B700B7D700800327C100A2
:104C740083A70725B347F7001307000063980700CD
:104C84008320C1011301010267800000EF20106836
:104C940013803000130101FE232E110037D700804A
:104CA400832707252326F1009307000083270501A6
:104CB40083A6070023A0D50083C647002382D5001E
:104CC40083C65700A382D50083C667002383D5001B
:104CD40083C77700A383F5008326C10083270725B4
:104CE400B3C7F60093060000639A0700130500009B
:104CF4008320C1011301010267800000EF201061CD
:104D040013803000130101FE232E1100B7D7008059
:104D140003A707252326E100130700007377043057
:104D24008327450003A6070083C60701939726003F
:104D3400B387D700B387C70083C7070093F717006B
:104D4400638E0702834706002380F50013050000E5
:104D54009377870073A00730B7D700800327C1007B
:104D640083A70725B347F70013070000639C0700D8
:104D74008320C10113010102678000001305F0FFC5
:104D84006FF01FFDEF20905813803000130101FED7
:104D9400232E1100B7D7008003A707252326E1009F
:104DA40013070000737604308327450083A60700A9
:104DB40003C7070193172700B387E700B387D7001A
:104DC40083C7070093F70702E38007FE2380B6003A
:104DD4009377860073A00730B7D700800327C100FC
:104DE40083A70725B347F70013070000639807005C
:104DF4008320C1011301010267800000EF201051DC
:104E040013803000130101FE232E1100B7D6008059
:104E140083A706252326F100930700007377043047
:104E24008327450083A5070003C6070193172600BF
:104E3400B387C700B387B70003C50700937787001C
:104E440073A007300327C10083A70625B347F700E3
:104E540013070000639C07001375E5011355154003
:104E64008320C1011301010267800000EF20104A72
:104E740013803000130101FD232611022324810233
:104E84002322910223202103232E3101232C4101CB
:104E94001304050093840500B7D7008003A70725F2
:104EA4002326E10013070000032A05018329450096
:104EB400232001007379043083A749006380070429
:104EC4002320F1000326010083A504001305040038
:104ED400EFF05FCF83C76400130720006380E70C03
:104EE4006362F704638E0704130710006398E702F4
:104EF400930710002305F1006F00C00403A5890087
:104F0400EF00C0756306051A1306010083A5C900E6
:104F140003A58900EFF05FC56FF0DFFA1305A0F772
:104F24006F00C003130730006398E7009307300055
:104F34002305F1006F0000011305A0F76F000002C4
:104F44002305010083C7540013071000638EE70490
:104F5400130730006388E7061305A0F71379890067
:104F640073200930B7D700800327C10083A7072522
:104F7400B347F70013070000639007148320C102AE
:104F84000324810283244102032901028329C101EC
:104F9400032A8101130101036780000093072000A5
:104FA4002305F1006FF01FFAA304010083C7440036
:104FB40063800702130720006380E70E1305A0F740
:104FC4006FF0DFF993074000A304F1006FF01FFEB8
:104FD4002304010083A704002320FA0083A74400CC
:104FE4002322FA008347A1008346910003478100EE
:104FF400B3E7D7003367F7008327440003A607000D
:1050040083C6070193971600B387D700B387C700F9
:105014002380E7008327440003A7070083C7070111
:1050240093972700B387E7001307B0002380E700B6
:105034008327440003A7070083C70701939717003A
:10504400B387E700130770F82380E7008327440041
:1050540003A7070083C7070193971700B387E700E7
:1050640083C7070093F7070C1307000C638CE70250
:10507400930710002304FA00032744008347070121
:105084000327070083460700B387E7002380070050
:10509400130500006FF09FEC930700012304F10057
:1050A4006FF05FF3930700012304FA006FF0DFFC55
:1050B4001305A0FE6FF09FEAEF2050251380300007
:1050C400130101FE232E1100232C810037D400800C
:1050D400832704252326F100930700008325050177
:1050E400EFF01FD90327C10083270425B347F70036
:1050F40013070000639A07008320C1010324810180
:105104001301010267800000EF205020138030005B
:10511400130101FE232E110037D7008083270725B2
:105124002326F10093070000B7B70080938707E2B6
:1051340003C5470113153500B74700023305F500D1
:105144008326C10083270725B3C7F6009306000012
:10515400639A0700930500008320C1011301010233
:1051640067800000EF20901A13803000130101FEC5
:10517400232E1100232C8100232A910023282101AE
:10518400930405001384050037D90080832709257B
:105194002326F10093070000EFF05FF79307F0FF79
:1051A4002322F50023209500232285000327C10034
:1051B40083270925B347F70013070000639E070000
:1051C4008320C101032481018324410103290101B6
:1051D4001301010267800000EF2050131380300098
:1051E400130101FE232E1100B7D7008003A7072562
:1051F4002326E10013070000B7C7000283A5C7FFF9
:1052040003A587FF83A7C7FFE398B7FEB7D700803E
:105214000327C10083A70725B347F700130700003E
:10522400639807008320C101130101026780000015
:10523400EF20D00D13803000130101FE232E110046
:10524400232C810037D40080832704252326F100F2
:105254009307000013060000930500001305700077
:10526400EFE05FD9EFF09FF79307050037B70080B1
:105274002320A7922322B79213050510B337F50014
:10528400B385B700EFF05FEE13057000EFE01FD0B9
:105294000327C10083270425B347F7001307000041
:1052A400639C0700130500008320C10103248101CE
:1052B4001301010267800000EF20500513803000C5
:1052C400130101FE232E1100232C8100232A9100B7
:1052D400B7D4008083A704252326F1009307000098
:1052E40073740430EFF09FEF9306050037B6008027
:1052F4008327069203274692B307F5403335F5001A
:105304003387E5403307A7401317870113D5870078
:105314003365A7002320D6922322B6921374840007
:1053240073200430EF20105D0327C10083A70425F8
:10533400B347F70013070000639C07008320C101F3
:1053440003248101832441011301010267800000C9
:10535400EF20C07B13803000130101FE232E1100C7
:10536400232C8100232A9100B7D7008003A70725A7
:105374002326E10013070000639A050A9307F0FF50
:10538400630AF5049307100063DCA704B7078000E1
:105394009387E7FF63CAA7041304F5FFF37404308B
:1053A400EFF0DFE393178400B7B6008003A70692FB
:1053B40083A546923306E5401306F60FB706008030
:1053C40093C6F6FFB386C64063E6F602B387C7000A
:1053D4006F00C002370580001305E5FF6FF01FFB67
:1053E400130400006FF09FFB370580001304E5FFF2
:1053F4006FF0DFFAB707008093C7F7FF93F707F062
:10540400B306F700B386A640130630066344D600FD
:10541400938707103385E700B337F500B385B700EA
:10542400EFF09FD493F4840073A00430B7D70080C6
:105434000327C10083A70725B347F700130700001C
:10544400639C07008320C10103248101832441015B
:105454001301010267800000EF20406B13803000CD
:10546400130101FE232E1100232C8100232A910015
:10547400B7D4008083A704252326F10093070000F6
:1054840073740430EFF09FD5B7B7008083A70792F9
:105494003305F54013748400732004300327C100DE
:1054A40083A70425B347F70013070000639E070092
:1054B400135585008320C101032481018324410104
:1054C4001301010267800000EF2040641380300064
:1054D400130101FE232E1100232C810037D40080F8
:1054E400832704252326F10093070000EFF01FCF44
:1054F4000327C10083270425B347F70013070000DF
:10550400639A07008320C10103248101130101026E
:1055140067800000EF20805F13803000130101FEDC
:10552400232E1100B7D7008003A707252326E10007
:1055340013070000379700801307C75D6F008000D2
:1055440013078701B79700809387475FE36AF7FEE5
:10555400B7D700800327C10083A70725B347F70007
:1055640013070000639807008320C101130101029F
:1055740067800000EF20805913803000130101FE82
:10558400232E1100232C8100232A9100232821019A
:1055940013090500B7D7008003A707252326E100D8
:1055A40013070000B7A7008013172500938707721D
:1055B400B387E70003A407006F0080023305A0400F
:1055C4006F00800583A7C4002380A70003A7C4003D
:1055D4008357070093E707102310F7001304840090
:1055E40013071900B7A700801317270093870772C2
:1055F400B387E70083A707006378F4028324440099
:105604008327040013850400E7800700E38804FC73
:10561400E30E05FAE34405FA9307F00FE3D4A7FA7F
:105624001305F00F6FF01FFAB7D700800327C100EE
:1056340083A70725B347F70013070000639E0700FD
:105644008320C10103248101832441010329010131
:105654001301010267800000EF20404B13803000EB
:10566400130101FE232E1100B7D7008003A70725DD
:105674002326E10013070000630E05028327C500FB
:1056840003A507001375F51F130505F01335150061
:10569400B7D700800327C10083A70725B347F700C6
:1056A40013070000639C07008320C101130101025A
:1056B40067800000130500006FF09FFDEF20004598
:1056C40013803000130101FFB7D7008003A707251B
:1056D4002326E10013070000F37704306F00000075
:1056E40013803000130101FE232E1100B7D7008070
:1056F40003A707252326E10013070000EFF05FFC52
:1057040013803000130101FD23261102232481029A
:105714002322910223202103232E3101232C410132
:10572400130905009389050037DA008083270A25C9
:105734002326F10093070000F3740430EF20402681
:10574400130405009385090013050900EFF05FF9C0
:1057540093F4840073A0043013050400EF20403652
:105764000327C10083270A25B347F7001307000066
:10577400639207028320C10203248102832441022D
:10578400032901028329C101032A810113010103B1
:1057940067800000EF20803713803000130101FC84
:1057A400232E1102232C8102232A91022328210370
:1057B40023263103232441031304050037DA008030
:1057C40083270A25232EF1009307000013194500AF
:1057D400B309A90093993900B7B40080938484AACB
:1057E400B38999001315A50093161400B386860097
:1057F4009396360023220100930710002320F10022
:105804009308F000130800009307000037B70080E6
:10581400130707E23307D700B76600809386C608EC
:1058240013060040B7C50080938505E5B385A50040
:1058340013850900EF00406283C7D90093F7B7FFCF
:10584400A386F9000327C10183270A25B347F7007C
:1058540013070000639207028320C103032481031A
:1058640083244103032901038329C102032A8102FA
:105874001301010467800000EF20402913803000E9
:10588400130101FE232E1100232C810037D4008044
:10589400832704252326F10093070000B7B700806F
:1058A40013071000238AE79613052000EFF0DFCCDE
:1058B400EF20501C13053000EFF01FCCEF00406ABE
:1058C400EFC09FFEB7B70080938707B303C7C70035
:1058D4001377E7FF2386E7000327C1008327042506
:1058E400B347F70013070000639A07008320C10140
:1058F400032481011301010267800000EF200021CD
:1059040013803000130101FE232E1100232C81008B
:10591400232A910023282101B7D7008003A7072554
:105924002326E10013070000F3740430B7B70080A6
:10593400938707E203A98700930750FF232CF906F6
:10594400F3770430EF00D0686302A9021304050062
:10595400B7B70080938707E223A4A700EF0050495C
:10596400930509000325C407EFE09F8E93F4840098
:1059740073A00430B7D700800327C10083A707258D
:10598400B347F70013070000639E07008320C1019B
:10599400032481018324410103290101130101022C
:1059A40067800000EF20801613803000130101FE91
:1059B400232E1100B7D7008003A707252326E10073
:1059C40013070000EFF0DFF313803000130101FE32
:1059D400232E1100232C810037D400808327042533
:1059E4002326F10093070000EFB00F830327C100C3
:1059F40083270425B347F70013070000639A0700C1
:105A04008320C10103248101130101026780000086
:105A1400EF20C00F13803000130101FE232E11006C
:105A2400232C810037D40080832704252326F1000A
:105A34009307000037B5008013060592B7B70080BE
:105A4400938747E43386C740930500001305059206
:105A5400EFF09FF70327C10083270425B347F7001E
:105A640013070000639A07008320C1010324810106
:105A74001301010267800000EF2040091380300009
:105A8400130101FE232E1100232C8100232A9100EF
:105A940013040500B7D4008083A704252326F1004E
:105AA40093070000EFF05FCF93174400B38787009C
:105AB4009397370037B70080130787AAB387E700A7
:105AC40037B70080130707E2931614003386860065
